:100000000C946C000C946C030C94BA030C940B04C9
:100010000C9494000C9494000C9494000C9405039C
:100020000C9494000C9494000C9494000C94940000
:100030000C9494000C9494000C9494000C949400F0
:100040000C9494000C9494000C9494000C949400E0
:100050000C94940007634236B79BD8A71A396856A8
:1000600018AEBAAB558C1D3CB7CC5763BD6DEDFDDA
:10007000753EF6177231BF000000803F0800000097
:10008000BE922449123EABAAAA2ABECDCCCC4C3E8D
:1000900000000080BEABAAAAAA3E00000000BF007C
:1000A0000000803F0000000000084178D3BB438778
:1000B000D1133D190E3CC3BD4282AD2B3E68EC828C
:1000C00076BED98FE1A93E4C80EFFFBE01C4FF7F11
:1000D0003F0000000000830911241FBECFE5D8E0D7
:1000E000DEBFCDBF15E0A0E6B0E0EEECF0E202C06E
:1000F00005900D92A23EB107D9F726E0A2EEB5E039
:1001000001C01D92A930B207E1F710E0CCE6D0E0C3
:1001100004C02197FE010E942A10CB36D107C9F7EF
:100120000E9453070C9465100C940000FC0188E2B7
:1001300080B981B181B984EA86BF06B607FEFDCFDA
:1001400080ED83B984E886BF06B607FEFDCF13B8FD
:1001500084E886BF06B607FEFDCF90818DEC989FA0
:10016000812D112486958695869540E1849F900186
:100170001124880F382F330F330F830F981B922BC6
:1001800093B984E886BF06B607FEFDCF91818DEC5A
:10019000989F812D112486958695869540E1849FB0
:1001A00090011124880F382F330F330F830F981BC2
:1001B000922B93B984E886BF06B607FEFDCF8281F5
:1001C0009DEC899F912D112496959695969540E1E9
:1001D000949F90011124990F392F330F330F930FF0
:1001E000891B822B83B984E886BF06B607FEFDCF44
:1001F00083819DEC899F912D1124969596959695D6
:1002000040E1949F90011124990F392F330F330F40
:10021000930F891B822B83B984E886BF06B607FE3D
:10022000FDCF84819DEC899F912D11249695969503
:10023000969540E1949F90011124990F392F330F27
:10024000330F930F891B822B83B984E886BF06B6D0
:1002500007FEFDCF85819DEC899F912D11249695F8
:100260009695969540E1949F90011124990F392F0E
:10027000330F330F930F891B822B83B984E886BF1A
:1002800006B607FEFDCF96818DEC989F812D112437
:1002900086958695869540E1849F90011124880F6C
:1002A000382F330F330F830F981B922B93B984E8A9
:1002B00086BF06B607FEFDCF80E183B984E886BF1E
:1002C00006B607FEFDCF84E986BF0895FC0182E4EF
:1002D00080B981B181B984EA86BF06B607FEFDCF39
:1002E00080ED83B984E886BF06B607FEFDCF13B85C
:1002F00084E886BF06B607FEFDCF84EA86BF06B651
:1003000007FEFDCF81ED83B984E886BF06B607FE00
:10031000FDCF84EC86BF06B607FEFDCF83B1282F44
:1003200030E0359527953595279535952795359561
:100330002795220F922F990F990F290F8F70820FF7
:10034000808384EC86BF06B607FEFDCF83B1282FDD
:1003500030E0359527953595279535952795359531
:100360002795220F922F990F990F290F8F70820FC7
:10037000818384EC86BF06B607FEFDCF83B1282FAC
:1003800030E0359527953595279535952795359501
:100390002795220F922F990F990F290F8F70820F97
:1003A000828384EC86BF06B607FEFDCF83B1282F7B
:1003B00030E03595279535952795359527953595D1
:1003C0002795220F922F990F990F290F8F70820F67
:1003D000838384EC86BF06B607FEFDCF83B1282F4A
:1003E00030E03595279535952795359527953595A1
:1003F0002795220F922F990F990F290F8F70820F37
:10040000848384EC86BF06B607FEFDCF83B1282F18
:1004100030E0359527953595279535952795359570
:100420002795220F922F990F990F290F8F70820F06
:10043000858384E886BF06B607FEFDCF23B1822FF1
:1004400090E0959587959595879595958795959540
:1004500087952F70880F982F990F990F890F820F0A
:10046000868384E986BF0895CF92DF92EF92FF9250
:100470000F931F93CF93DF93019709F0BDC06F3F98
:100480007F4F09F0B9C0C8E8D0E01881698170E0F9
:1004900080E090E00E945E0D20E030E040E752E412
:1004A0000E94B60C6B017C01612F70E080E090E04F
:1004B0000E945E0DA70196010E94450C6B017C0114
:1004C0006A8170E080E090E00E945E0D20E030E004
:1004D00041E655E40E94B60C9B01AC01C701B60190
:1004E0000E94450C6093F3057093F4058093F50525
:1004F0009093F6051093F205C0E8D0E0688170E0B3
:1005000080E090E00E945E0D6B017C01698170E0EB
:1005100080E090E00E945E0D20E030E040E752E491
:100520000E94B60C9B01AC01C701B6010E94450CAC
:1005300002EE15E0F80160837183828393836A8100
:1005400070E080E090E00E945E0D6B017C016B81A9
:1005500070E080E090E00E945E0D20E030E040E737
:1005600052E40E94B60C9B01AC01C701B6010E9487
:10057000450CF80164837583868397836C8170E0F2
:1005800080E090E00E945E0D6B017C016D8170E067
:1005900080E090E00E945E0D20E030E040E752E411
:1005A0000E94B60C9B01AC01C701B6010E94450C2C
:1005B000F80160877187828793876E8170E080E0A1
:1005C00090E00E945E0D6B017C016F8170E080E025
:1005D00090E00E945E0D20E030E040E752E40E948F
:1005E000B60C9B01AC01C701B6010E94450CF80195
:1005F0006487758786879787DF91CF911F910F91C9
:10060000FF90EF90DF90CF9008951F920F920FB65A
:100610000F9211242F933F934F935F936F937F9388
:100620008F939F93AF93BF93EF93FF93F894E8E872
:10063000F0E080818F5F80838C3320F081818F5F39
:1006400081831082809189008C3330F0E8E8F0E0FB
:1006500082818F5F8283118280918A00883128F0A5
:10066000E8E8F0E010821182128280918800811106
:1006700012C08091890081110EC080918A00811181
:100680000AC080919300813031F488E890E00E94A4
:100690006601109293008091880081110BC08091B7
:1006A0008900813039F480918A00811103C081E092
:1006B000809393007894FF91EF91BF91AF919F91B8
:1006C0008F917F916F915F914F913F912F910F90FB
:1006D0000FBE0F901F9018951F920F920FB60F929A
:1006E00011242F938F939F93EF93FF93F89426E613
:1006F00086EE90E0215080409040E1F7829930C032
:1007000080919200811109C0E7EFF5E090819F5F31
:1007100090839C3310F01092F705813049F4E7EF95
:10072000F5E091819F5F91839C3310F01092F80562
:10073000823049F4E7EFF5E092819F5F9283983130
:1007400010F01092F905833059F081E08BBB26E65A
:1007500086EE90E0215080409040E1F71BBA7894FB
:10076000FF91EF919F918F912F910F900FBE0F905E
:100770001F9018951F920F920FB60F9211242F936E
:100780008F939F93EF93FF93F89426E686EE90E085
:10079000215080409040E1F7839933C080919200CE
:1007A00081110AC0E7EFF5E09081915090839C336E
:1007B00018F09BE39093F705813051F4E7EFF5E0F3
:1007C0009181915091839C3318F09BE39093F805AD
:1007D000823051F4E7EFF5E09281915092839831A5
:1007E00018F097E19093F905833059F081E08BBBC5
:1007F00026E686EE90E0215080409040E1F71BBA5B
:100800007894FF91EF919F918F912F910F900FBE50
:100810000F901F9018951F920F920FB60F921124F0
:100820002F933F934F935F936F937F938F939F93F8
:10083000AF93BF93EF93FF93F8942FEF8FE392E082
:10084000215080409040E1F700C00000B2993CC0C8
:10085000809192008F5F80939200843010F010920C
:1008600092003091920031110FC080E090E087300B
:10087000910554F4FC01E857FF4F2081FC01E95039
:10088000FA4F20830196F3CF333099F480E090E063
:100890008730910554F4FC01E950FA4F2081FC01A6
:1008A000E857FF4F20830196F3CF88E890E00E943D
:1008B000960081E08BBB26E686EE90E021508040DA
:1008C0009040E1F71BBA7894FF91EF91BF91AF91FF
:1008D0009F918F917F916F915F914F913F912F9158
:1008E0000F900FBE0F901F90189578948BB7806E65
:1008F0008BBF85B78A6085BF84B784BF8FEF8ABB03
:100900001BBA8EE398E39BBD8ABD8FB58FBD8EB5B4
:100910008D608EBD89B7806189BF8CB78CBF83B76E
:10092000896683BF87B3886087BB0E948A09089560
:10093000CF92EF920F931F93CF93DF93EC018091AF
:100940009200823051F58A818A3080F40F2EF5E0D2
:10095000CF2EF02DE12C00E02091910047E056E0F1
:1009600068E076E084E990E00E94D50A1091910059
:100970008A814AE06EEF75E090E00E9430100F2E01
:10098000F5E0CF2EF02DE12C00E0212F47E056E0DE
:1009900068E076E00E94D50A2DC08A818A3090F402
:1009A0000F2EF5E0CF2EF02DE0908F0000919000FB
:1009B0002091910047E056E068E076E084E990E01D
:1009C0000E94D50AE0908F00009190001091910054
:1009D0008A814AE06EEF75E090E00E9430100F2EA1
:1009E000F5E0CF2EF02D212F47E056E068E076E0CD
:1009F0000E94D50A0F2EF5E0CF2EF02DE0908F004B
:100A0000009190002091910047E056E068E076E088
:100A100086E990E00E94D50A80919200813031F5FC
:100A200089818A3060F4E12C00E02091910047E058
:100A300056E068E076E084E990E00E94D50A1091E3
:100A4000910089814AE06EEF75E090E00E943010DD
:100A50000F2EF5E0CF2EF02DE12C00E0212F47E006
:100A600056E068E076E00E94D50A2DC089818A3080
:100A700090F40F2EF5E0CF2EF02DE0908F00009136
:100A800090002091910047E056E068E076E084E92C
:100A900090E00E94D50AE0908F00009190001091A4
:100AA000910089814AE06EEF75E090E00E9430107D
:100AB0000F2EF5E0CF2EF02D212F47E056E068E015
:100AC00076E00E94D50A0F2EF5E0CF2EF02DE090B3
:100AD0008F00009190002091910047E056E068E07F
:100AE00076E086E990E00E94D50A8091920081111B
:100AF00026C088818A3060F4E12C00E020919100CA
:100B000047E056E068E076E084E990E00E94D50A8C
:100B10001091910088814AE06EEF75E090E00E94AC
:100B200030100F2EF5E0CF2EF02DE12C00E0212F1C
:100B300047E056E068E076E00E94D50A2DC0888143
:100B40008A3090F40F2EF5E0CF2EF02DE0908F003C
:100B5000009190002091910047E056E068E076E037
:100B600084E990E00E94D50AE0908F000091900007
:100B70001091910088814AE06EEF75E090E00E944C
:100B800030100F2EF5E0CF2EF02D212F47E056E04C
:100B900068E076E00E94D50ADF91CF911F910F9116
:100BA000EF90CF900895AF92BF92CF92EF92FF92C5
:100BB0000F931F93CF93DF9310E0143008F0A5C07C
:100BC000C12FD0E0FE01EE0FFF1FE058FF4F8081E4
:100BD0008A3090F40F2EF3E0CF2EF02DE0908F00AE
:100BE000009190002091910047E056E068E076E0A7
:100BF00084E990E00E94D50AE0908F000091900077
:100C0000F0909100CE01880F991F9C0120583F4F12
:100C10005901F90180814AE06EEF75E090E00E9491
:100C200030100F2EF3E0CF2EF02D2F2D47E056E0A1
:100C300068E076E00E94D50AE0908F000091900075
:100C40002091910047E056E068E076E086E990E088
:100C50000E94D50AF50181818A3070F4E0908F00FE
:100C6000009190002091910047E056E068E076E026
:100C700084E990E00E94D50AE0908F0000919000F6
:100C8000B0909100FE01EE0FFF1FE058FF4F8181F1
:100C90004AE06EEF75E090E00E9430100F2EF3E016
:100CA000CF2EF02D2B2D47E056E068E076E00E9435
:100CB000D50AE0908F00009190002091910047E0CC
:100CC00056E068E076E08FE990E00E94D50ACE0118
:100CD000880F991F880F991F880F991FE0908F0028
:100CE000009190002091910047E056E068E076E0A6
:100CF000805A9F4F0E94D50A1092080680910706DD
:100D0000865E809307061F5F58CF809107068A5141
:100D100080930706DF91CF911F910F91FF90EF9085
:100D2000CF90BF90AF9008958F929F92AF92BF9255
:100D3000CF92DF92EF92FF920F931F93CF93DF93A7
:100D40004B015C017A0169010E94280D8B01072E7D
:100D5000000C880B990B0E94600D9B01AC01C50132
:100D6000B4010E94440C4B015C01C0E0D0E00115CD
:100D7000110571F0F701EC0FFD1FC8016AE070E08A
:100D80000E940210805D8083062F172F2196EFCFDF
:100D9000DD233CF4F701EC0FFD1F80E380832196F7
:100DA000F7CF9E012150310980E090E08217930730
:100DB00074F4D701A80FB91F4C91F701E20FF31F8C
:100DC00050815C934083019621503109EFCFF701A8
:100DD000EC0FFD1F1082C114D10409F456C0F701B5
:100DE000EC0FFD1F8EE28083B6010D2C000C880BEA
:100DF000990B0E94600D9B01AC0160E070E080E205
:100E000091E40E947D0E9B01AC01C501B4010E94DA
:100E1000100E2196CE0DDF1D0E94280DCB0120E083
:100E200030E0009771F0FE01E20FF31F6AE070E01E
:100E30000E940210805D8083862F972F2F5F3F4F87
:100E4000F0CF2C153D0544F4FE01E20FF31F80E3C3
:100E500080832F5F3F4FF5CFA9014150510980E0BA
:100E600090E08417950774F4DE01A80FB91F6C9108
:100E7000FE01E40FF51F70817C9360830196415061
:100E80005109EFCFC20FD31F1882C701DF91CF9155
:100E90001F910F91FF90EF90DF90CF90BF90AF9098
:100EA0009F908F9008952FEF8FE794E0215080401E
:100EB0009040E1F700C000000E94750440E060E04F
:100EC00080E00E94620A88E890E00E9466018091BA
:100ED00088009091F205891304C09091920093309C
:100EE000B1F38093F20510920806109207068091E4
:100EF0009200833029F488E890E00E94980404C0AE
:100F000087EF95E00E9498041092080688E280938B
:100F1000070680919200833009F065C1C8E8D0E0EF
:100F20001A81698170E080E090E00E945E0D20E00F
:100F300030E040E752E40E94B60C4B015C01612FA7
:100F400070E080E090E00E945E0DA50194010E9497
:100F5000450C4B015C01688170E080E090E00E94EC
:100F60005E0D20E030E041E655E40E94B60C9B01A6
:100F7000AC01C501B4010E94450C4B015C016093BA
:100F8000F3057093F4058093F5059093F605F12C25
:100F9000E3E0EF1578F1CF2DD0E08E01000F111FA7
:100FA00000581F4FF801608170E080E090E00E94DF
:100FB0005E0D2B013C01F801618170E080E090E062
:100FC0000E945E0D20E030E040E752E40E94B60C43
:100FD0009B01AC01C301B2010E94450CCC0FDD1F87
:100FE000CC0FDD1FCE51DA4F688379838A839B83D0
:100FF000F394CECF2091E2053091E3054091E405D2
:101000005091E505C501B4010E94B10C8823A4F4F8
:101010000F2EF5E0CF2EF02DE0908F000091900084
:101020002091910047E056E068E076E088E790E0A4
:101030000E94D50A1CBED7C02091E6053091E70575
:101040004091E8055091E905C501B4010E94B10C39
:101050008823F4F50F2EF5E0CF2EF02DE0908F00D1
:10106000009190002091910047E056E068E076E022
:1010700080E690E00E94D50AC2EED5E08880998093
:10108000AA80BB80A50194016091F3057091F405DD
:101090008091F5059091F6050E94440C2B013C01CE
:1010A0006C817D818E819F81A50194010E94440CF9
:1010B0009B01AC01C301B2010E94B60C20E030E0FC
:1010C0004FE753E40E94100E0E942F0D6CBF8BC09F
:1010D0002091EA053091EB054091EC055091ED052A
:1010E000C501B4010E94B10C8823ACF40F2EF5E0C9
:1010F000CF2EF02DE0908F00009190002091910074
:1011000047E056E068E076E088E690E00E94D50A85
:101110008FEF8CBF68C02091EE053091EF054091B4
:10112000F0055091F105C501B4010E94B10C88236E
:101130000CF046C00F2EF5E0CF2EF02DE0908F0082
:10114000009190002091910047E056E068E076E041
:1011500080E790E00E94D50AC2EED5E088849984A9
:10116000AA84BB84A50194016091F3057091F405F4
:101170008091F5059091F6050E94440C2B013C01ED
:101180006C857D858E859F85A50194010E94440C08
:101190009B01AC01C301B2010E94B60C9B01AC01E2
:1011A00060E070E080E89FE30E94440C20E030E0C3
:1011B0004FE753E40E94100E0E942F0D6CBF13C026
:1011C0000F2EF5E0CF2EF02DE0908F0000919000D3
:1011D0002091910047E056E068E076E088E790E0F3
:1011E0000E94D50A1CBE1092080685E5809307066A
:1011F00080919200833009F079C0E0908F000091D7
:101200009000C09191008CB74AE06EEF75E090E0DD
:101210000E9430100F2EF3E0CF2EF02D2C2F47E040
:1012200056E068E076E00E94D50AE0908F000091D9
:1012300090002091910047E056E068E076E088E970
:1012400090E00E94D50A6CB770E080E090E00E94C8
:101250005E0D23E333E343E250E40E94B60C20E04A
:1012600030E040E251E40E94B10C882374F4E09035
:101270008F00009190002091910047E056E068E0D7
:1012800076E084E990E00E94D50AE0908F0000911A
:101290009000C09191006CB770E080E090E00E94F7
:1012A0005E0D23E333E343E250E40E94B60C22E0F8
:1012B00030E04EEF55E00E9494060F2EF3E0CF2E63
:1012C000F02D2C2F47E056E068E076E00E94D50A2A
:1012D000E0908F00009190002091910047E056E04F
:1012E00068E076E08DE990E00E94D50A1092080649
:1012F00082E88093070680919200833009F0E7CD61
:101300000E94D305E4CD6FEF7FEF81E090E00E9473
:101310003402089587B3806B87BB88B3806F88BB26
:101320008CE58DB991E09EB984B3886084BB85B3A8
:10133000886085BB84B3846084BB85B3846085BBCF
:1013400085B3886085BBE7E8F3E13197F1F700C02A
:10135000000085B3877F85BBE1EEF4E03197F1F7BC
:1013600000C0000085B3886085BBE7E8F3E13197F2
:10137000F1F700C0000085B38B7F85BB9FB9779BD9
:10138000FECF83EC99E00197F1F700C0000085B330
:101390008B7F85BB81E18FB9779BFECFE3ECF9E0D2
:1013A0003197F1F700C0000085B38B7F85BB8AE3DE
:1013B0008FB9779BFECF85B3846085BB86E08FB9FC
:1013C000779BFECF83EC99E00197F1F700C0000016
:1013D00085B38B7F85BB86E38FB9779BFECF85B3C3
:1013E000846085BB1FB8779BFECFE3ECF9E03197B3
:1013F000F1F700C0000085B38B7F85BB8AE28FB90F
:10140000779BFECF85B3846085BB1FB8779BFECFEB
:1014100085B3846085BB1FB8779BFECF85B384609E
:1014200085BB1FB8779BFECF85B3846085BB80EFFB
:101430008FB9779BFECF83EC99E00197F1F700C05D
:10144000000085B38B7F85BB8BE28FB9779BFECF86
:1014500085B3846085BB1FB8779BFECF85B384605E
:1014600085BB1FB8779BFECF85B3846085BB1FB853
:10147000779BFECF85B3846085BB80EF8FB9779B68
:10148000FECFE3ECF9E03197F1F700C0000085B33F
:101490008B7F85BB81E28FB9779BFECF83EC99E090
:1014A0000197F1F700C0000085B38B7F85BB89E20F
:1014B0008FB9779BFECFE3ECF9E03197F1F700C0ED
:1014C00000000895262F342F95B39B7F95BB9AE299
:1014D0009FB9779BFECF95B3946095BB1FB8779B60
:1014E000FECF95B3946095BB1FB8779BFECF95B3A5
:1014F000946095BB1FB8779BFECF95B3946095BB66
:1015000090EF9FB9779BFECF95B39B7F95BB9BE2F6
:101510009FB9779BFECF95B3946095BB1FB8779B1F
:10152000FECF95B3946095BB1FB8779BFECF95B364
:10153000946095BB1FB8779BFECF95B3946095BB25
:1015400090EF9FB9779BFECF95B39B7F95BB9CE2B5
:101550009FB9779BFECF40E050E0BA01411591EE74
:1015600059076105710504F595B3946095BB982FF3
:10157000990F990F9FB9779BFECF95B3946095BB58
:10158000922F990F990F9FB9779BFECF95B39460D7
:1015900095BB932F990F990F9FB9779BFECF4F5F04
:1015A0005F4F6F4F7F4FDACF08958F929F92AF9228
:1015B000BF92CF92EF920F931F93CF93DF935C0173
:1015C000EB0110E0F501E10FF11D3081332309F447
:1015D00050C180E0863008F04AC190E0983008F0B1
:1015E00030C1E32FF0E0B097BF01660F771FE60F21
:1015F000F71FEE0FFF1FEF55FF4FE80FF11DA08102
:10160000E7E0F0E0E91BF10961E070E04B0102C0A6
:10161000880C991CEA95E2F76A2F70E0682179211D
:10162000672B09F48AC0FA01A081C99EA00D11247C
:10163000B881B13F08F003C1A13F08F000C165B314
:101640006B7F65BB6AE26FB9779BFECFEB2FF0E053
:1016500065B3646065BB1FB8779BFECF65B36460FC
:1016600065BBBFB9779BFECF6C2D70E0E60FF71F0F
:101670003197E5B3E460E5BBFFB9779BFECFBC0DC6
:10168000B150E5B3E460E5BBBFB9779BFECFE5B3EE
:10169000EB7FE5BBEBE2EFB9779BFECFEA2FF0E003
:1016A000B5B3B460B5BB1FB8779BFECFB5B3B4601C
:1016B000B5BBAFB9779BFECFE60FF71F3197E5B308
:1016C000E460E5BBFFB9779BFECFAC0DA150E5B35D
:1016D000E460E5BBAFB9779BFECFE5B3EB7FE5BB3D
:1016E000ECE2EFB9779BFECFE0E0F0E0669FD0013F
:1016F000679FB00DB00D1124EA17FB070CF09FC0D7
:10170000A5B3A460A5BBA22FAA0FAA0FAFB9779B60
:10171000FECFA5B3A460A5BBA02FAA0FAA0FAFB997
:10172000779BFECFA5B3A460A5BBAE2DAA0FAA0FD1
:10173000AFB9779BFECF3196D9CFDA01EC91C99E34
:10174000E00D1124F881F13F08F079C0E13F08F085
:1017500076C065B36B7F65BB6AE26FB9779BFECFDE
:101760006F2F70E0A5B3A460A5BB1FB8779BFECF19
:10177000A5B3A460A5BBFFB9779BFECFAC2DB0E0AD
:101780006A0F7B1F6150710965B3646065BB7FB9E7
:10179000779BFECFFC0DF15065B3646065BBFFB96C
:1017A000779BFECF65B36B7F65BB6BE26FB9779BB1
:1017B000FECF6E2F70E0F5B3F460F5BB1FB8779BDA
:1017C000FECFF5B3F460F5BBEFB9779BFECF6A0FA0
:1017D0007B1F6150710965B3646065BB7FB9779BFE
:1017E000FECFEC0DE15065B3646065BBEFB9779B4C
:1017F000FECF65B36B7F65BB6CE26FB9779BFECFA5
:10180000E0E0F0E0AA9FB001AB9F700D700D1124D5
:10181000E617F707A4F465B3646065BB1FB8779B50
:10182000FECF65B3646065BB1FB8779BFECF65B321
:10183000646065BB1FB8779BFECF3196E3CF9F5F97
:10184000CDCE98819C0D9883903F48F01882FA0184
:1018500060819C2D990F990F990F960F9083DA0153
:101860009C91903F10F018821C928F5FB3CE1F5F47
:10187000A9CEDF91CF911F910F91EF90CF90BF90A4
:10188000AF909F908F9008955058BB27AA270E9431
:101890005C0C0C94D60D0E94C80D38F00E94CF0D40
:1018A00020F039F49F3F19F426F40C94C50D0EF482
:1018B000E095E7FB0C94BF0DE92F0E94E70D58F36C
:1018C000BA17620773078407950720F079F4A6F525
:1018D0000C94090E0EF4E0950B2EBA2FA02D0B01DF
:1018E000B90190010C01CA01A0011124FF27591B65
:1018F00099F0593F50F4503E68F11A16F040A22F6B
:10190000232F342F4427585FF3CF469537952795DB
:10191000A795F0405395C9F77EF41F16BA0B620BDA
:10192000730B840BBAF09150A1F0FF0FBB1F661F21
:10193000771F881FC2F70EC0BA0F621F731F841F64
:1019400048F4879577956795B795F7959E3F08F08A
:10195000B0CF9395880F08F09927EE0F979587954C
:1019600008950E949B0D08F481E008950E94CA0C1E
:101970000C94D60D0E94CF0D58F00E94C80D40F077
:1019800029F45F3F29F00C94BF0D51110C940A0EFD
:101990000C94C50D0E94E70D68F39923B1F355230C
:1019A00091F3951B550BBB27AA2762177307840772
:1019B00038F09F5F5F4F220F331F441FAA1FA9F308
:1019C00035D00E2E3AF0E0E832D091505040E695F6
:1019D000001CCAF72BD0FE2F29D0660F771F881F57
:1019E000BB1F261737074807AB07B0E809F0BB0B4A
:1019F000802DBF01FF2793585F4F3AF09E3F51055E
:101A000078F00C94BF0D0C940A0E5F3FE4F3983EFF
:101A1000D4F3869577956795B795F7959F5FC9F746
:101A2000880F911D9695879597F90895E1E0660FC7
:101A3000771F881FBB1F621773078407BA0720F040
:101A4000621B730B840BBA0BEE1F88F7E0950895A9
:101A50000E942F0D6894B1110C940A0E08950E94F3
:101A6000EF0D88F09F5798F0B92F9927B751B0F034
:101A7000E1F0660F771F881F991F1AF0BA95C9F712
:101A800014C0B13091F00E94090EB1E008950C9499
:101A9000090E672F782F8827B85F39F0B93FCCF34C
:101AA000869577956795B395D9F73EF4909580958F
:101AB000709561957F4F8F4F9F4F0895E89409C0AF
:101AC00097FB3EF490958095709561957F4F8F4F71
:101AD0009F4F9923A9F0F92F96E9BB279395F69587
:101AE000879577956795B795F111F8CFFAF4BB0F05
:101AF00011F460FF1BC06F5F7F4F8F4F9F4F16C069
:101B0000882311F096E911C0772321F09EE8872FF2
:101B1000762F05C0662371F096E8862F70E060E0AE
:101B20002AF09A95660F771F881FDAF7880F969527
:101B3000879597F90895990F0008550FAA0BE0E8CB
:101B4000FEEF16161706E807F907C0F0121613067F
:101B5000E407F50798F0621B730B840B950B39F4BF
:101B60000A2661F0232B242B252B21F408950A2625
:101B700009F4A140A6958FEF811D811D089597F965
:101B80009F6780E870E060E008959FEF80EC089523
:101B900000240A941616170618060906089500244C
:101BA0000A9412161306140605060895092E0394C6
:101BB000000C11F4882352F0BB0F40F4BF2B11F43A
:101BC00060FF04C06F5F7F4F8F4F9F4F089557FD99
:101BD0009058440F551F59F05F3F71F04795880F9B
:101BE00097FB991F61F09F3F79F087950895121632
:101BF00013061406551FF2CF4695F1DF08C01616DE
:101C000017061806991FF1CF86957105610508948E
:101C10000895E894BB2766277727CB0197F90895A5
:101C20000E94230E0C94D60D0E94C80D38F00E941D
:101C3000CF0D20F0952311F00C94BF0D0C94C50D21
:101C400011240C940A0E0E94E70D70F3959FC1F3C6
:101C5000950F50E0551F629FF001729FBB27F00D5A
:101C6000B11D639FAA27F00DB11DAA1F649F6627AF
:101C7000B00DA11D661F829F2227B00DA11D621FFE
:101C8000739FB00DA11D621F839FA00D611D221FB8
:101C9000749F3327A00D611D231F849F600D211D9C
:101CA000822F762F6A2F11249F5750409AF0F1F01F
:101CB00088234AF0EE0FFF1FBB1F661F771F881F88
:101CC00091505040A9F79E3F510580F00C94BF0DF4
:101CD0000C940A0E5F3FE4F3983ED4F38695779513
:101CE0006795B795F795E7959F5FC1F7FE2B880F2E
:101CF000911D9695879597F90895FA01EE0FFF1FAC
:101D0000309621053105A1F16115710561F4803826
:101D1000BFE39B0749F168949038810561F08038F2
:101D2000BFEF9B0741F099234AF5FF3FE1053105DD
:101D3000210519F1E8940894E795D901AA2329F41B
:101D4000AB2FBE2FF85FD0F310C0FF5F70F4A695E5
:101D5000E0F7F73950F019F0FF3A38F49F779F9386
:101D60000DD00F9007FC9058089546F00C94C50DC7
:101D700060E070E080E89FE308954FE79F775F930E
:101D80004F933F932F930E94780F2F913F914F9144
:101D90005F910E94100E0C94D50E29F416F00C944D
:101DA000BF0D0C94090E0C94C50D0E94EF0DA8F305
:101DB0009638A0F707F80F92E8942BE33AEA48EB3D
:101DC0005FE70E94260E0F920F920F924DB75EB7FB
:101DD0000F920E94C00FE4E5F0E00E94070F4F91C0
:101DE0005F91EF91FF91E595EE1FFF1F49F0FE57C0
:101DF000E0684427EE0F441FFA95E1F74195550B33
:101E00000E943A0F0F9007FE0C942E0F0895DF9357
:101E1000CF931F930F93FF92EF92DF927B018C0180
:101E2000689406C0DA2EEF010E94230EFE01E894AA
:101E3000A5912591359145915591A6F3EF010E9409
:101E40005C0CFE019701A801DA9469F7DF90EF902E
:101E5000FF900F911F91CF91DF9108959B01AC01ED
:101E600060E070E080E89FE30C94B60C0C94BF0D2A
:101E70000C94F40F0E94EF0DD8F39923C9F3940F3B
:101E8000511DA3F39150504094F059F0882332F043
:101E9000660F771F881F91505040C1F79E3F510534
:101EA0002CF7880F911D9695879597F908955F3FB8
:101EB000ACF0983E9CF0BB27869577956795B795D3
:101EC00008F4B1609395C1F7BB0F58F711F460FFA8
:101ED000E8CF6F5F7F4F8F4F9F4FE3CF0C940A0E79
:101EE00016F00C94F40F0C94C50D68940C94BF0D6F
:101EF0000E94EF0DA8F39923C1F3AEF3DF93CF93C4
:101F00001F930F93FF92C92FDD2788232AF0219773
:101F1000660F771F881FDAF720E030E040E85FEBBC
:101F20009FE3883920F0803E38F021968F770E9419
:101F3000450CECE7F0E004C00E94450CE9EAF0E053
:101F40000E94070F8B01BE01EC01FB2E6F57710938
:101F50007595771F880B990B0E94600D28E132E779
:101F600041E35FE30E94230EAF2D9801AE01FF9085
:101F70000F911F91CF91DF910E945C0C0C94D60DB4
:101F8000FA01DC01AA0FBB1F9B01AC01BF5728F46B
:101F9000222733274427507820C0B75190F4AB2F25
:101FA0000024469537952795011CA395D2F3002070
:101FB00071F0220F331F441FB395DAF30ED00C9447
:101FC000440C61307105A0E88A07B94630F49B01E2
:101FD000AC016627772788279078309621F02083F8
:101FE00031834283538308959F3F31F0915020F411
:101FF000879577956795B795880F911D96958795E5
:1020000097F9089597FB072E16F4009407D077FDF3
:1020100009D00E94161007FC05D03EF490958195DA
:102020009F4F0895709561957F4F0895AA1BBB1B24
:1020300051E107C0AA1FBB1FA617B70710F0A61BC8
:10204000B70B881F991F5A95A9F780959095BC01E9
:10205000CD010895EE0FFF1F0590F491E02D099436
:10206000BB274A3031F4992322F4BDE29095819543
:102070009F4F0C943C10BB27FB015527AA27880FC4
:10208000991FAA1FA41710F0A41B83955051B9F7EC
:10209000A05DAA3308F0A95DA193009779F7B1116B
:1020A000B1931192CB010C945510DC01FC01672F08
:1020B00071917723E1F7329704C07C916D9370831F
:0E20C0006291AE17BF07C8F30895F894FFCFE2
:1020CE00D0E0F1F1E2E5F200C4E5EDFC20202000C5
:1020DE00C7E0EAE0F2202000CDEEF7FC2020200041
:1020EE0005000A001100160000080F041705182D30
:1020FE00373C030130003A00EEF1E22E002520209D
:10210E000000000000000000FA0000000000600067
:10211E0060000028FE28FE28002454D6544800C231
:10212E000C106086000C52BA4C12000000600000C9
:10213E000000384482000000824438000000502025
:10214E0050000010107C1010000001020000000072
:10215E001010100000000002000000020C10608041
:10216E00007C8A92A27C000242FE020200468A9203
:10217E00926600448292926C0018284888FE00E411
:10218E00A2A2A29C003C5292920C00C0808E90E0C3
:10219E00006C9292926C00609292947800000024EF
:1021AE0000000000022400000010284482000024D9
:1021BE00242424000082442810000040808A90606D
:1021CE00003C425A4A3A007E9090907E00FE9292D7
:1021DE00926C007C8282824400FE8282827C00FEAF
:1021EE009292928200FE90909080007C8282A2BC9D
:1021FE0000FE101010FE000082FE8200000402029B
:10220E0002FC00FE2020508E00FE0202020000FEA4
:10221E00402040FE00FE402010FE007C8282827C28
:10222E0000FE90909060007C8282847A00FE9090F6
:10223E00906E00649292924C008080FE808000FC32
:10224E00020202FC00F00C020CF000FE040804FE78
:10225E0000C6281028C60080403E408000868A9224
:10226E00A2C20000FE828200008060100C020000FC
:10227E008282FE0000204080402000010101010109
:10228E0000402000000000042A2A2A1E007E12228E
:10229E00221C001C22222214001C2222127E001C50
:1022AE002A2A2A1A00207EA0A00000192525253EE4
:1022BE0000FE1020201E000020BC020000040202BE
:1022CE0002BC0000FE081422000080FC0202003E48
:1022DE002018201E003E2020201E001C2222221C20
:1022EE00003F1424241800182424143F003E10200C
:1022FE00201000122A2A2A24000020FC2200003C72
:10230E000202023E003804020438003C020E023E75
:10231E0000221408142200390505053E0022262A43
:10232E0032220000106C8200000000FE000000004F
:10233E00826C100000182010083000000000000011
:10234E00000000000000000000000000000000007F
:10235E00000000000000000000000000000000006F
:10236E00000000000000000000000000000000005F
:10237E00000000000000000000000000000000004F
:10238E00000000000000000000000000000000003F
:10239E00000000000000000000000000000000002F
:1023AE00000000000000000000000000000000001F
:1023BE00000000000000000000000000000000000F
:1023CE0000000000000000000000000000000000FF
:1023DE0000000000000000000000000000000000EF
:1023EE0000000000000000000000000000000000DF
:1023FE0000000000000000000000000000000000CF
:10240E0000000000000000000000000000000000BE
:10241E0000000000000000000000000000000000AE
:10242E00000000000000000000000000000000009E
:10243E00003EAA2AAA2200000000000000000000B0
:10244E00000000000000000000000000000000007E
:10245E00000000000000000000000000000000006E
:10246E00000000000000000000000000000000005E
:10247E00000000000000000000000000000000004E
:10248E00000000000000000000000000000000003E
:10249E00000000000000000000000000000000002E
:1024AE00000000000000000000000000000000001E
:1024BE00000000000000000000000000000000000E
:1024CE00007E9090907E00FEA2A2A29C00FE9292B0
:1024DE00926C00FE8080808000031EE282FF00FE70
:1024EE009292928200DE20FE20DE004482A2A25C46
:1024FE0000FE040830FE0000000000000000000096
:10250E00000000000000000000000000000000FEBF
:10251E00101010FE0000000000000000000000007F
:10252E0000FE90909060000000000000000000008F
:10253E00000000000000000000000000000000008D
:10254E00000000000000000000000000000000007D
:10255E00000000000000000000000000000000006D
:10256E00000000000000000000000000000000005D
:10257E00000000000000000000000000000000004D
:10258E0000042A2A2A1E000000000000003E2A2A0B
:10259E002A14000000000000000000000000001CD3
:1025AE002A2A2A1A00000000000000000000000085
:1025BE00000000000000000000000000003E0808BF
:1025CE001422000000000000000000000000003E89
:1025DE000808083E001C2222221C000000000000F9
:1025EE00000000000000001C222222140020203EC9
:1025FE00202000000000000000000000000000008D
:10260E000000000000000000000000300808083E36
:10261E0000000000000000000000000000000000AC
:10262E000000000000000000003E0A0A0A0400003C
:10263E00000000000000000000000000000000008C
:02264E0000008A
:00000001FF
