S01600004C45445F636F6E74726F6C6C65722E7372656396
S11300000C948E000C945A060C94B6000C94B60012
S11300100C94B6000C94B6000C94B6000C94B5067F
S11300200C94B6000C94B6000C94B6000C94B60074
S11300300C94B6000C94B6000C94B6000C94B60064
S11300400C94B6000C94B6000C94B6000C94B60054
S11300500C94B600750282028F029C02D302FB024A
S113006032035A039103B903CB03F103FF030D04D5
S11300701B042B04470476049A04C904ED041C05EC
S1130080CD05310631063106D805E105EA05F3054B
S1130090FC0505060E06170607634236B79BD8A76C
S11300A01A39685618AEBAAB558C1D3CB7CC576399
S11300B0BD6DEDFD753EF6177231BF000000803F47
S11300C008000000BE922449123EABAAAA2ABECD63
S11300D0CCCC4C3E00000080BEABAAAAAA3E0000D5
S11300E00000BF000000803F0000000000084178CD
S11300F0D3BB4387D1133D190E3CC3BD4282AD2B04
S11301003E68EC8276BED98FE1A93E4C80EFFFBEFB
S113011001C4FF7F3F0000000000790F11241FBEBF
S1130120CFE5D8E0DEBFCDBF15E0A0E6B0E0E4E166
S1130130FCE202C005900D92A23FB107D9F726E078
S1130140A2EFB5E001C01D92A831B207E1F710E0BB
S1130150CEE8D0E004C02197FE010E94F611CD380C
S1130160D107C9F70E94E2070C9408160C9400000A
S113017082E480B981B181B9089584EA86BF06B664
S113018007FEFDCF81B1089583B984E886BF06B622
S113019007FEFDCF81B1089583B984E886BF06B612
S11301A007FEFDCF81B1089584E986BF089584EAEE
S11301B086BF06B607FEFDCF81B1089584EC86BFE5
S11301C006B607FEFDCF81B183B1089584E886BFEA
S11301D006B607FEFDCF81B183B1089584E986BFD9
S11301E00895282F30E03595279535952795359531
S11301F0279535952795220F922F990F990F290F3F
S11302008F70820F08959DEC899F912D11249695EE
S11302109695969520E1929FA0011124990F292F7C
S1130220220F220F920F891B842B0895CF93DF9303
S1130230EC010E94B8000E94BD0080ED0E94C40041
S113024080E00E94CC0088810E9403010E94CC00BF
S113025089810E9403010E94CC008A810E940301CB
S11302600E94CC008B810E9403010E94CC008C81EF
S11302700E9403010E94CC008D810E9403010E9410
S1130280CC008E810E9403010E94CC0080E10E9478
S1130290CC000E94D400DF91CF910895CF93DF93D7
S11302A0EC010E94B8000E94BD0080ED0E94C400D1
S11302B080E00E94CC000E94D70081ED0E94C4001F
S11302C00E94DE000E94F10088830E94DE000E94EA
S11302D0F10089830E94DE000E94F1008A830E945B
S11302E0DE000E94F1008B830E94DE000E94F10078
S11302F08C830E94DE000E94F1008D830E94E60040
S11303000E94F1008E830E94EE00DF91CF91089548
S1130310CF92DF92EF92FF920F931F93CF93DF93CD
S1130320019709F0C4C06F3F7F4F09F0C0C0A8E631
S1130330B0E0DC91E6E0F6E0D08311966C91119781
S113034061831296CC91C28370E080E090E00E94B9
S11303502A1320E030E040E752E40E9482126B014D
S11303607C016D2F70E080E090E00E942A13A701C9
S113037096010E9411126B017C016C2F70E080E0E9
S113038090E00E942A1320E030E041E655E40E9408
S113039082129B01AC01C701B6010E941112609345
S11303A00206709303068093040690930506C0E644
S11303B0D0E0688170E080E090E00E942A136B0135
S11303C07C01698170E080E090E00E942A1320E0C3
S11303D030E040E752E40E9482129B01AC01C70165
S11303E0B6010E94111202EF15E0F80160837183D7
S11303F0828393836A8170E080E090E00E942A13F4
S11304006B017C016B8170E080E090E00E942A1314
S113041020E030E040E752E40E9482129B01AC01EC
S1130420C701B6010E941112F801648375838683A3
S113043097836C8170E080E090E00E942A136B0146
S11304407C016D8170E080E090E00E942A1320E03E
S113045030E040E752E40E9482129B01AC01C701E4
S1130460B6010E941112F801608771878287938711
S11304706E8170E080E090E00E942A136B017C01A1
S11304806F8170E080E090E00E942A1320E030E069
S113049040E752E40E9482129B01AC01C701B601FD
S11304A00E941112F8016487758786879787DF9108
S11304B0CF911F910F91FF90EF90DF90CF9008950F
S11304C080910A06813009F077C110920A06E09102
S11304D009068E2F90E0FC013197EB30F10508F00E
S11304E068C1E65DFF4F0C94F611E6E0F6E080810A
S11304F08F5F80838C3310F01092060681E0809326
S113050079005AC1E6E0F6E081818F5F81838C3304
S113051010F01092070681E0809378004DC1E6E068
S1130520F6E082818F5F8283883110F01092080692
S113053081E08093770040C1E0E6F0E05081852FB0
S113054090E001967CE3789F9001799F300D11240F
S11305508181280F311D62814381842F90E0769F31
S1130560800D911D11242817390724F45F5F5093DF
S113057060000EC0E0E6F0E06083415041834C33FC
S113058020F0615060838BE3818381E08093750068
S113059080916000883118F087E18093600081E0E9
S11305A08093760009C1E0E6F0E080815CE341815C
S11305B0242F30E0589F200D311D11242E5F3F4F12
S11305C06281838190E0569F800D911D11248217D2
S11305D093071CF04F5F40936100809161008C335E
S11305E030F08BE38093610081E08093760081E0BA
S11305F080937500E1C0E0E6F0E05281852F90E041
S113060001967CE3789F9001799F300D11248381BA
S1130610280F311D64814581842F90E0769F800DE1
S1130620911D11242817390724F45F5F5093620049
S11306300EC0E0E6F0E06283415043834C3320F087
S1130640615062838BE3838381E0809373008091A4
S11306506200883118F087E18093620081E0809322
S11306607400AAC0E0E6F0E082815CE34381242FB9
S113067030E0589F200D311D11242E5F3F4F6481BF
S1130680858190E0569F800D911D11248217930758
S11306901CF04F5F40936300809163008C3330F013
S11306A08BE38093630081E08093740081E0809306
S11306B0730082C0E0E6F0E05481852F90E001965B
S11306C07CE3789F9001799F300D11248581280F58
S11306D0311D66814781842F90E0769F800D911DA6
S11306E011242817390724F45F5F509364000EC067
S11306F0E0E6F0E06483415045834C3320F06150E0
S113070064838BE3858381E080937100809164002E
S1130710883118F087E18093640081E0809372004F
S11307204BC0E0E6F0E084815CE34581242F30E0B7
S1130730589F200D311D11242E5F3F4F6681878104
S113074090E0569F800D911D1124821793071CF091
S11307504F5F40936500809165008C3330F08BE3EC
S11307608093650081E08093720081E08093710042
S113077023C0E0E6F0E086818F5F8683883138F01D
S113078087E186838BE3878381E080936F0081E038
S11307908093700011C0E0E6F0E087818F5F87836B
S11307A08C3318F08BE38093670081E080936F00B3
S11307B003C010920906089580910A06823009F058
S11307C062C110920A06E09109068E2F90E0FC01A6
S11307D03197EB30F10508F053C1EB5CFF4F0C94FB
S11307E0F611E6E0F6E08081815080838C3318F0C6
S11307F08BE38093060681E08093790044C1E6E0B0
S1130800F6E08181815081838C3318F08BE38093EF
S1130810070681E08093780036C1E6E0F6E0828145
S113082081508283883118F087E18093080681E043
S11308308093770028C1E0E6F0E0808181508083D6
S1130840883128F01082118281E08093750081E064
S11308508093760018C180916100882319F081503B
S113086080936100809161008C3368F0E0E6F0E0F1
S11308708BE381838081882331F0118281508083CE
S113088081E08093760081E080937500FCC0E0E60F
S1130890F0E06281862F90E001977CE3789FA001CD
S11308A0799F500D11248381480F511D90818181BE
S11308B0282F30E0799F200D311D1124241735078E
S11308C024F46150609362000DC0E0E6F0E092838E
S11308D08F5F83838C3318F09F5F9283138281E050
S11308E08093730081E080937400CDC0E0E6F0E073
S11308F082815CE34381242F30E0589F200D311D19
S11309001124215031096081818190E0569F800D2E
S1130910911D1124821793071CF4415040936300E6
S1130920809163008C3310F01092630081E0809317
S11309307300A9C0E0E6F0E06481862F90E001979F
S11309407CE3789FA001799F500D11248581480F85
S1130950511D92818381282F30E0799F200D311D14
S113096011242417350724F46150609364000DC0EA
S1130970E0E6F0E094838F5F85838C3318F09F5F0B
S11309809483158281E08093710081E080937200EA
S11309907AC0E0E6F0E084815CE34581242F30E016
S11309A0589F200D311D112421503109628183810A
S11309B090E0569F800D911D1124821793071CF41B
S11309C0415040936500809165008C3310F0109283
S11309D0650081E08093710056C0E0E6F0E0668136
S11309E0862F90E001977CE3789FA001799F500DBA
S11309F011248781480F511D94818581282F30E06F
S1130A00799F200D311D11242417350724F46150DA
S1130A10609366000DC0E0E6F0E096838F5F878305
S1130A208C3318F09F5F9683178281E080936F0068
S1130A3081E08093700027C0E0E6F0E086815CE30B
S1130A404781242F30E0589F200D311D112421505F
S1130A5031096481858190E0569F800D911D112498
S1130A60821793071CF441504093670080916700FC
S1130A708C3310F01092670081E080936F0003C004
S1130A8010920906089580910A06833009F06CC01B
S1130A90809109069CEF980F983008F4E4C01092F6
S1130AA00A068130F9F028F0823029F1833061F1AF
S1130AB058C081E0809309068093790080930C06E6
S1130AC080937A0080E090E0833091050CF04CC074
S1130AD0FC01E859FF4F2081FC01EA5FF94F2083B4
S1130AE00196F2CF82E08093090681E0809378003A
S1130AF080930C0639C083E08093090681E08093DB
S1130B00770080930C0630C01092090681E0809330
S1130B100B06809376008093740080937200809318
S1130B2070008093750080937300809371008093AC
S1130B306F0080937A0080937B0080E090E08330A4
S1130B40910554F4FC01EA5FF94F2081FC01E85956
S1130B50FF4F20830196F3CF88E690E00E941601B0
S1130B6003C010920906089580910A06843009F0A2
S1130B707AC0E09109068FEF8E0F833008F473C0BA
S1130B8010920A068E2F90E08C30910508F069C00F
S1130B90FC01E05CFF4F0C94F61184E0809309069D
S1130BA081E080930B068093760080937A00089509
S1130BB085E08093090681E080930B06809375009D
S1130BC0089586E08093090681E080930B06809364
S1130BD07400089587E08093090681E080930B06F2
S1130BE080937300089588E08093090681E08093E0
S1130BF00B0680937200089589E08093090681E0D2
S1130C0080930B068093710008958AE0809309060F
S1130C1081E080930B068093700008958BE08093AD
S1130C20090681E080930B0680936F00089510926B
S1130C30090681E080930B0680937600809374000C
S1130C40809372008093700080937500809373008A
S1130C508093710080936F0080937A0080937B006F
S1130C6008951092090608958CB78CBF83B78966DE
S1130C7083BF87B3886087BB789408958EE398E335
S1130C809BBD8ABD8FB58FBD8EB58D608EBD89B776
S1130C90806189BF789408958BB780648BBF85B7D2
S1130CA08A6085BF84B784BF789408958FEF8BBB27
S1130CB01ABA08951F920F920FB60F9211242F9310
S1130CC08F939F93EF93FF93F8942FEF8FE392E02A
S1130CD0215080409040E1F700C0000080E099B3CB
S1130CE09E3F59F099B39D3F51F099B39B3F49F012
S1130CF099B3973F41F490E007C090E005C090E0BD
S1130D0003C090E001C091E0992351F08F5FEFEFB1
S1130D10F7E43197F1F700C000008B3000F31BC0FB
S1130D2089B38B3F81F018F4873F89F014C08D3F5D
S1130D3031F08E3F81F481E080930A060BC082E09B
S1130D4080930A0607C083E080930A0603C084E008
S1130D5080930A067894FF91EF919F918F912F9140
S1130D600F900FBE0F901F9018951F920F920FB601
S1130D700F9211242F933F934F935F936F937F931D
S1130D808F939F93AF93BF93EF93FF93F894E8E609
S1130D90F0E080818F5F80839091090691509330B9
S1130DA018F021E0209379008C33E0F0E8E6F0E0DD
S1130DB0108281818F5F8183933018F021E020932A
S1130DC078008C3378F0E8E6F0E0118282818F5F5E
S1130DD08283933018F091E090937700883110F07B
S1130DE010926A008091680081110EC080916900A0
S1130DF081110AC080917C00882331F010927C001C
S1130E0088E690E00E944E0180916800811106C03E
S1130E1080916900813011F480937C0081E080939B
S1130E207A007894FF91EF91BF91AF919F918F9148
S1130E307F916F915F914F913F912F910F900FBED2
S1130E400F901F9018958F929F92AF92BF92CF925E
S1130E50DF92EF92FF920F931F93CF93DF934B0197
S1130E605C017A0169010E94F4128B01072E000CC7
S1130E70880B990B0E942C139B01AC01C501B40192
S1130E800E9410124B015C01C0E0D0E00115110575
S1130E9071F0F701EC0FFD1FC8016AE070E00E94D9
S1130EA0E211805D8083062F172F2196EFCFDD237B
S1130EB03CF4F701EC0FFD1F80E380832196F7CF0C
S1130EC09E012150310980E090E08217930774F469
S1130ED0D701A80FB91F4C91F701E20FF31F5081FE
S1130EE05C934083019621503109EFCFF701EC0F59
S1130EF0FD1F1082C114D10409F456C0F701EC0F90
S1130F00FD1F8EE28083B6010D2C000C880B990B1B
S1130F100E942C139B01AC0160E070E080E291E43C
S1130F200E944E149B01AC01C501B4010E94E1135F
S1130F302196CE0DDF1D0E94F412CB0120E030E09B
S1130F40009771F0FE01E20FF31F6AE070E00E9467
S1130F50E211805D8083862F972F2F5F3F4FF0CF64
S1130F602C153D0544F4FE01E20FF31F80E380835A
S1130F702F5F3F4FF5CFA9014150510980E090E028
S1130F808417950774F4DE01A80FB91F6C91FE0154
S1130F90E40FF51F70817C936083019641505109E1
S1130FA0EFCFC20FD31F1882C701DF91CF911F91DA
S1130FB00F91FF90EF90DF90CF90BF90AF909F90F4
S1130FC08F9008952FEF3FEF88E02150304080400C
S1130FD0E1F700C000000E944C060E9456060E94E1
S1130FE034060E943E0688E690E00E944E010E946C
S1130FF0800F0E94960F6091AE007091AF008091B7
S1131000B0000E94E41060E080E00E9459101FE1EB
S1131010DDE3CFE10F2EFFE1FF2EF02D00E0E12C08
S11310200E94600280910906882339F090917A0029
S1131030992319F010927A00A5C18111A3C180915E
S11310407A00882309F49EC110927A000F2EF8E6E4
S1131050CF2EF0E0DF2EF02DF6017280618170E07A
S113106080E090E00E942A1320E030E040E752E460
S11310700E9482124B015C01672D70E080E090E0D9
S11310800E942A13A50194010E9411124B015C01D4
S1131090F601608170E080E090E00E942A1320E075
S11310A030E041E655E40E9482129B01AC01C50187
S11310B0B4010E9411126093020670930306809398
S11310C0040690930506C12CD12CF4E0CF16D1046C
S11310D094F5C601880F991F9C01205A3F4F59016E
S11310E0F901608170E080E090E00E942A132B01F6
S11310F03C01F501618170E080E090E00E942A13D8
S113110020E030E040E752E40E9482129B01AC01EF
S1131110C301B2010E941112F601EE0FFF1FEE0F80
S1131120FF1FEE50FA4F6083718382839383FFEF36
S1131130CF1ADF0ACACF68E280E00E94591060919A
S1131140F2057091F3058091F4059091F505809076
S1131150020690900306A0900406B0900506A5012F
S113116094010E94DC13181654F425E0412F5D2FDE
S11311706C2F86EA90E00E94CF111CBEBBC0209168
S1131180F6053091F7054091F8055091F905C50130
S1131190B4010E947D128823D4F525E0412F5D2FF0
S11311A06C2F8BE890E00E94CF110F2EF2EFCF2E20
S11311B0F5E0DF2EF02DF60180809180A280B380CF
S11311C0A5019401609102067091030680910406C2
S11311D0909105060E9410122B013C01F6016481D6
S11311E0758186819781A50194010E9410129B014B
S11311F0AC01C301B2010E94821220E030E04FE74B
S113120053E40E94E1130E94FB126CBF73C020914F
S1131210FA053091FB054091FC055091FD05C5018F
S1131220B4010E947D1288235CF425E0412F5D2FD8
S11312306C2F84E990E00E94CF118FEF8CBF5AC0CD
S11312402091FE053091FF05409100065091010662
S1131250C501B4010E947D1288230CF042C025E030
S1131260412F5D2F6C2F8DE990E00E94CF110F2E3E
S1131270F2EFCF2EF5E0DF2EF02DF601808491847D
S1131280A284B384A50194016091020670910306BF
S113129080910406909105060E9410122B013C01D6
S11312A0F6016485758586859785A50194010E945C
S11312B010129B01AC01C301B2010E9482129B0176
S11312C0AC0160E070E080E89FE30E94101220E02F
S11312D030E04FE753E40E94E1130E94FB126CBF1D
S11312E009C025E0412F5D2F6C2F86EA90E00E9413
S11312F0CF111CBE6AE580E00E94591023E0412F03
S11313005D2F6C2F8DE790E00E94CF116CB770E0D9
S113131080E090E00E942A1323E333E343E250E4A5
S11313200E94821220E030E040E251E40E947D12EB
S1131330882344F423E0412F5D2F6C2F82E890E052
S11313400E94CF116CB770E080E090E00E942A13F5
S113135023E333E343E250E40E94821222E030E0CC
S11313604DE056E00E94230723E0412F5D2F6C2FB0
S11313700E94CF1123E0412F5D2F6C2F84E890E071
S11313800E94CF1180910906882339F090917B0047
S1131390992319F010927B00EAC08111E8C0809172
S11313A07B00882309F4E3C010927B0060E08CE3A7
S11313B00E94591025E0412F5D2F6C2F88E890E0A2
S11313C00E94CF1160E086E90E94591025E0412F68
S11313D05D2F6C2F88E890E00E94CF11A12CB12CD6
S11313E0F3E0AF16B10474F560E08AE58A9D802DC0
S11313F011240E94591082E090E06C01CA18DB08A5
S1131400F601E859FF4F80818A3040F425E0412FEE
S11314105D2F6C2F82E890E00E94CF11F601E8590D
S1131420FF4F80814AE06DE076E090E00E94D315A2
S113143025E0412F5D2F6C2F0E94CF112FEFA21AB0
S1131440B20ACECFC12CD12C34E0C316D104A4F4FB
S11314506AE1C69E602D1124685784E20E945910E7
S113146023E0412F5D2F6C2F88E890E00E94CF117C
S11314708FEFC81AD80AE8CFA12CB12C94E0A91692
S1131480B1040CF074C0C12CD12CE2E0CE16D1040E
S1131490ACF56AE1A69E602D1124685786E38C9D05
S11314A0802D11240E945910F501EE0FFF1FE05A00
S11314B0FF4FEC0DFD1D80818A3040F423E0412F65
S11314C05D2F6C2F82E890E00E94CF11F501EE0FA2
S11314D0FF1FE05AFF4FEC0DFD1D80814AE06DE0D7
S11314E076E090E00E94D31523E0412F5D2F6C2F0E
S11314F00E94CF11FFEFCF1ADF0AC7CF21E0A21657
S1131500B104B9F024F4A114B10451F02CC082E068
S1131510A816B104B9F093E0A916B104E1F023C010
S113152023E0412F5D2F6C2F8AE890E00E94CF11B9
S11315301AC023E0412F5D2F6C2F83E990E00E94B5
S1131540CF1111C023E0412F5D2F6C2F8CE990E067
S11315500E94CF1108C023E0412F5D2F6C2F85EA34
S113156090E00E94CF11EFEFAE1ABE0A87CF8091B0
S11315700906813029F190917900992309F110929B
S1131580790060E084EB0E945910809168008A30F1
S113159040F425E0412F5D2F6C2F82E890E00E94FB
S11315A0CF11809168004AE06DE076E090E00E94FF
S11315B0D31525E0412F5D2F6C2F0E94CF112BC036
S11315C0813049F580917900882329F110927900BE
S11315D060E084EB0E945910809106068A3040F442
S11315E025E04F2D502F6E2D82E890E00E94CF1100
S11315F0809106064AE06DE076E090E00E94D31503
S113160025E04F2D502F6E2D0E94CF1180910C0696
S1131610811110920C0680910906823029F1909173
S11316207800992309F11092780060E08AE50E941D
S11316305910809169008A3040F425E0412F5D2FD4
S11316406C2F82E890E00E94CF11809169004AE0FB
S11316506DE076E090E00E94D31525E0412F5D2FE8
S11316606C2F0E94CF114CC0823009F049C0809188
S11316707800882309F444C01092780060E08AE579
S11316800E945910809107068A3040F425E04F2DBE
S1131690502F6E2D82E890E00E94CF1180910706B2
S11316A04AE06DE076E090E00E94D31525E04F2DEE
S11316B0502F6E2D0E94CF1180910C06882301F1CA
S11316C010920C0660E084EB0E945910809106068B
S11316D08A3040F425E0412F5D2F6C2F82E890E0A2
S11316E00E94CF11809106064AE06DE076E090E01A
S11316F00E94D31525E0412F5D2F6C2F0E94CF113E
S113170080910906833029F190917700992309F19A
S11317101092770060E080E00E94591080916A0086
S11317208A3040F425E0412F5D2F6C2F82E890E051
S11317300E94CF1180916A004AE06DE076E090E06B
S11317400E94D31525E0412F5D2F6C2F0E94CF11ED
S11317504CC0833009F049C080917700882309F494
S113176044C01092770060E080E00E94591080919C
S113177008068A3040F425E04F2D502F6E2D82E864
S113178090E00E94CF11809108064AE06DE076E077
S113179090E00E94D31525E04F2D502F6E2D0E940E
S11317A0CF1180910C06882301F110920C0660E0A1
S11317B08AE50E945910809107068A3040F425E09A
S11317C0412F5D2F6C2F82E890E00E94CF11809111
S11317D007064AE06DE076E090E00E94D31525E02C
S11317E0412F5D2F6C2F0E94CF1180910906843008
S11317F029F190917600992309F11092760068E816
S113180080E00E945910809160008A3040F423E007
S1131810412F5D2F6C2F82E890E00E94CF118091C0
S113182060004AE06DE076E090E00E94D31523E08A
S1131830412F5D2F6C2F0E94CF1126C0843021F5DB
S113184080917600882301F11092760068E880E0A8
S11318500E945910809160008A3040F423E04F2D9B
S1131860502F6E2D82E890E00E94CF11809160008D
S11318704AE06DE076E090E00E94D31523E04F2D1E
S1131880502F6E2D0E94CF1180910906853029F1C9
S113189090917500992309F11092750068E886E328
S11318A00E945910809161008A3040F423E0412F56
S11318B05D2F6C2F82E890E00E94CF11809161002F
S11318C04AE06DE076E090E00E94D31523E0412FDA
S11318D05D2F6C2F0E94CF114CC0853009F049C098
S11318E080917500882309F444C01092750068E85B
S11318F086E30E945910809161008A3040F423E00D
S11319004F2D502F6E2D82E890E00E94CF118091D0
S113191061004AE06DE076E090E00E94D31523E098
S11319204F2D502F6E2D0E94CF1180910B068823CE
S113193001F110920B0668E880E00E945910809132
S113194060008A3040F423E0412F5D2F6C2F82E841
S113195090E00E94CF11809160004AE06DE076E053
S113196090E00E94D31523E0412F5D2F6C2F0E943D
S1131970CF1180910906863029F190917400992342
S113198009F11092740062EA80E00E94591080917B
S113199062008A3040F423E0412F5D2F6C2F82E8EF
S11319A090E00E94CF11809162004AE06DE076E001
S11319B090E00E94D31523E0412F5D2F6C2F0E94ED
S11319C0CF114CC0863009F049C08091740088233F
S11319D009F444C01092740062EA80E00E94591035
S11319E0809162008A3040F423E04F2D502F6E2DF9
S11319F082E890E00E94CF11809162004AE06DE09D
S1131A0076E090E00E94D31523E04F2D502F6E2DE9
S1131A100E94CF1180910B06882301F110920B06CE
S1131A2068E886E30E945910809161008A3040F48E
S1131A3023E0412F5D2F6C2F82E890E00E94CF11AC
S1131A40809161004AE06DE076E090E00E94D31559
S1131A5023E0412F5D2F6C2F0E94CF118091090646
S1131A60873029F190917300992309F11092730042
S1131A7062EA86E30E945910809163008A3040F440
S1131A8023E0412F5D2F6C2F82E890E00E94CF115C
S1131A90809163004AE06DE076E090E00E94D31507
S1131AA023E0412F5D2F6C2F0E94CF114CC0873053
S1131AB009F049C080917300882309F444C010924E
S1131AC0730062EA86E30E945910809163008A30B1
S1131AD040F423E04F2D502F6E2D82E890E00E94B9
S1131AE0CF11809163004AE06DE076E090E00E94BF
S1131AF0D31523E04F2D502F6E2D0E94CF118091CE
S1131B000B06882301F110920B0662EA80E00E9422
S1131B105910809162008A3040F423E0412F5D2FF8
S1131B206C2F82E890E00E94CF11809162004AE01D
S1131B306DE076E090E00E94D31523E0412F5D2F05
S1131B406C2F0E94CF1180910906883029F1909161
S1131B507200992309F1109272006CEB80E00E94EC
S1131B605910809164008A3040F423E0412F5D2FA6
S1131B706C2F82E890E00E94CF11809164004AE0CB
S1131B806DE076E090E00E94D31523E0412F5D2FB5
S1131B906C2F0E94CF114CC0883009F049C080914D
S1131BA07200882309F444C0109272006CEB80E048
S1131BB00E945910809164008A3040F423E04F2D34
S1131BC0502F6E2D82E890E00E94CF118091640026
S1131BD04AE06DE076E090E00E94D31523E04F2DBB
S1131BE0502F6E2D0E94CF1180910B06882301F196
S1131BF010920B0662EA86E30E94591080916300FA
S1131C008A3040F423E0412F5D2F6C2F82E890E06E
S1131C100E94CF11809163004AE06DE076E090E08D
S1131C200E94D31523E0412F5D2F6C2F0E94CF110A
S1131C3080910906893029F190917100992309F165
S1131C40109271006CEB86E30E945910809165003C
S1131C508A3040F423E0412F5D2F6C2F82E890E01E
S1131C600E94CF11809165004AE06DE076E090E03B
S1131C700E94D31523E0412F5D2F6C2F0E94CF11BA
S1131C804CC0893009F049C080917100882309F45F
S1131C9044C0109271006CEB86E30E94591080914D
S1131CA065008A3040F423E04F2D502F6E2D82E8DA
S1131CB090E00E94CF11809165004AE06DE076E0EB
S1131CC090E00E94D31523E04F2D502F6E2D0E94DB
S1131CD0CF1180910B06882301F110920B066CEB57
S1131CE080E00E945910809164008A3040F423E01F
S1131CF0412F5D2F6C2F82E890E00E94CF118091DC
S1131D0064004AE06DE076E090E00E94D31523E0A1
S1131D10412F5D2F6C2F0E94CF11809109068A30CC
S1131D2029F190917000992309F11092700066EDE9
S1131D3080E00E945910809166008A3040F423E0CC
S1131D40412F5D2F6C2F82E890E00E94CF1180918B
S1131D5066004AE06DE076E090E00E94D31523E04F
S1131D60412F5D2F6C2F0E94CF114CC08A3009F097
S1131D7049C080917000882309F444C01092700017
S1131D8066ED80E00E945910809166008A3040F42C
S1131D9023E04F2D502F6E2D82E890E00E94CF114A
S1131DA0809166004AE06DE076E090E00E94D315F1
S1131DB023E04F2D502F6E2D0E94CF1180910B06E2
S1131DC0882301F110920B066CEB86E30E945910F4
S1131DD0809165008A3040F423E0412F5D2F6C2F01
S1131DE082E890E00E94CF11809165004AE06DE0A6
S1131DF076E090E00E94D31523E0412F5D2F6C2FF5
S1131E000E94CF11809109068B3029F190916F00C7
S1131E10992309F110926F0066ED86E30E94591030
S1131E20809167008A3040F423E0412F5D2F6C2FAE
S1131E3082E890E00E94CF11809167004AE06DE053
S1131E4076E090E00E94D31523E0412F5D2F6C2FA4
S1131E500E94CF11E5C88B3009F0E2C880916F0071
S1131E60882309F4DDC810926F0066ED86E30E94B2
S1131E705910809167008A3040F423E04F2D502F91
S1131E806E2D82E890E00E94CF11809167004AE0B5
S1131E906DE076E090E00E94D31523E04F2D502FA3
S1131EA06E2D0E94CF1180910B06882309F4B8C8C7
S1131EB010920B0666ED80E00E9459108091660036
S1131EC08A3040F423E0412F5D2F6C2F82E890E0AC
S1131ED00E94CF11809166004AE06DE076E090E0C8
S1131EE00E94D31523E0412F5D2F6C2F0E94CF1148
S1131EF097C86FEF7FEF81E090E00E94880108951A
S1131F0087B3806B87BB88B3806F88BB8CE58DB942
S1131F101EB884B3886084BB85B3886085BB84B3F2
S1131F20846084BB85B3846085BB089585B3886071
S1131F3085BB81EE94E00197F1F700C0000085B302
S1131F40877F85BB81EE94E00197F1F700C0000024
S1131F5085B3886085BB81EE94E00197F1F700C0FA
S1131F60000085B38B7F85BB81E08FB9779BFECF63
S1131F7083EC99E00197F1F700C0000085B38B7FF3
S1131F8085BB81E18FB9779BFECF83EC99E0019704
S1131F90F1F700C0000085B38B7F85BB8AE38FB95E
S1131FA0779BFECF85B3846085BB85E08FB9779B33
S1131FB0FECF83EC99E00197F1F700C0000085B3F0
S1131FC08B7F85BB86E38FB9779BFECF85B3846017
S1131FD085BB1FB8779BFECF83EC99E00197F1F79F
S1131FE000C0000085B38B7F85BB8AE28FB9779BE5
S1131FF0FECF85B3846085BB1FB8779BFECF85B3C6
S1132000846085BB1FB8779BFECF85B3846085BB96
S11320101FB8779BFECF85B3846085BB80EF8FB9F3
S1132020779BFECF83EC99E00197F1F700C00000A5
S113203085B38B7F85BB8BE28FB9779BFECF85B34E
S1132040846085BB1FB8779BFECF85B3846085BB56
S11320501FB8779BFECF85B3846085BB1FB8779B81
S1132060FECF85B3846085BB80EF8FB9779BFECFAD
S113207083EC99E00197F1F700C0000085B38B7FF2
S113208085BB81E28FB9779BFECF83EC99E0019702
S1132090F1F700C0000085B38B7F85BB89E28FB95F
S11320A0779BFECF83EC99E00197F1F700C0000025
S11320B0089580931706609316060895CF92EF92C1
S11320C00F93813F08F07CC0613F08F079C095B35D
S11320D09B7F95BB9AE29FB9779BFECF95B39460A3
S11320E095BBA82FB0E01FB8779BFECF8FB9779B25
S11320F0FECFE42FF0E0AE0FBF1F1197BFB9779B5F
S1132100FECF480F41504FB9779BFECF85B38B7FED
S113211085BB8BE28FB9779BFECF85B3846085BB8B
S1132120862F90E01FB8779BFECF6FB9779BFECFC9
S1132130A22FB0E08A0F9B1F01979FB9779BFECF18
S1132140260F21502FB9779BFECF85B38B7F85BB9C
S11321508CE28FB9779BFECF85B3846085BB60E04A
S113216070E0EA9FC001EB9F900DFA9F900D11243F
S1132170681779072CF5202F30E0A901440F551F6B
S1132180440F551F440F551F8E2D90E09C0135952B
S113219027953595279535952795242B2FB9779B2A
S11321A0FECF880F991F82959295907F9827807F04
S11321B098278C298FB9779BFECF6F5F7F4FD1CF44
S11321C00F91EF90CF900895CF92EF920F93C82E76
S11321D0E72E062F20EF40EF60E080E00E945E10C3
S11321E00F91EF90CF9008957F928F929F92AF922C
S11321F0BF92CF92DF92EF92FF920F931F93CF93F0
S1132200DF93182FF62ED42EB22E902E8E2C7C2CEB
S11322108A2D90E09C01220F331F820F931F880F99
S1132220991F20911706820F911D813F91055CF043
S113223010921706909116068A2D880F880F880F22
S1132240890F80931606D0E0D63008F060C0C0E055
S1132250C83008F040C0812F90E08097FC01EE0F59
S1132260FF1FE80FF91FEE0FFF1FEF54FF4FED0F95
S1132270F11D408127E030E02C1B310981E090E022
S1132280BC0102C0660F771F2A95E2F7842F90E005
S113229086239723892B79F060911606CA9D600DD9
S11322A01124CB2CED2C0F2D2A2D4A2D80911706AD
S11322B00E945E100EC060911606CA9D600D112426
S11322C0C72CE82C092D2A2D4A2D809117060E942F
S11322D05E10CF5FBDCF809117068A0D80931706DD
S11322E0803F58F010921706909116068A2D880F99
S11322F0880F880F890F8093160680911606803FF9
S113230020F01092170610921606DF5F9DCFDF9122
S1132310CF911F910F91FF90EF90DF90CF90BF90DE
S1132320AF909F908F907F9008955F926F927F926D
S11323308F929F92AF92BF92CF92DF92EF92FF92D1
S11323400F931F93CF93DF934C01562E642E722E5E
S1132350B02EDE2CFC2C1A2DC0E0D0E0F401EC0FE2
S1132360FD1F8081882359F0A12ECF2CED2C0B2D3D
S1132370272D462D652D0E94F4102196EFCFDF9175
S1132380CF911F910F91FF90EF90DF90CF90BF906E
S1132390AF909F908F907F906F905F900895AF92D1
S11323A0CF92EF920F93342F452FA22EC12CE12C04
S11323B000E0262F632F0E9495110F91EF90CF908C
S11323C0AF90089597FB072E16F4009407D077FD7D
S11323D009D00E94FC1107FC05D03EF4909581952C
S11323E09F4F0895709561957F4F0895EE0FFF1FDD
S11323F00590F491E02D0994AA1BBB1B51E107C081
S1132400AA1FBB1FA617B70710F0A61BB70B881F80
S1132410991F5A95A9F780959095BC01CD0108950F
S11324205058BB27AA270E9428120C94A2130E947A
S1132430941338F00E949B1320F039F49F3F19F451
S113244026F40C9491130EF4E095E7FB0C948B1393
S1132450E92F0E94B31358F3BA176207730784076E
S1132460950720F079F4A6F50C94D5130EF4E095B5
S11324700B2EBA2FA02D0B01B90190010C01CA013A
S1132480A0011124FF27591B99F0593F50F4503EE5
S113249068F11A16F040A22F232F342F4427585FD7
S11324A0F3CF469537952795A795F0405395C9F7EF
S11324B07EF41F16BA0B620B730B840BBAF09150A7
S11324C0A1F0FF0FBB1F661F771F881FC2F70EC046
S11324D0BA0F621F731F841F48F487957795679519
S11324E0B795F7959E3F08F0B0CF9395880F08F005
S11324F09927EE0F9795879508950E94671308F41E
S113250081E008950E9496120C94A2130E949B13DA
S113251058F00E94941340F029F45F3F29F00C9482
S11325208B1351110C94D6130C9491130E94B31372
S113253068F39923B1F3552391F3951B550BBB27EE
S1132540AA2762177307840738F09F5F5F4F220F33
S1132550331F441FAA1FA9F335D00E2E3AF0E0E82A
S113256032D091505040E695001CCAF72BD0FE2F74
S113257029D0660F771F881FBB1F26173707480708
S1132580AB07B0E809F0BB0B802DBF01FF279358C0
S11325905F4F3AF09E3F510578F00C948B130C94E6
S11325A0D6135F3FE4F3983ED4F386957795679509
S11325B0B795F7959F5FC9F7880F911D96958795F5
S11325C097F90895E1E0660F771F881FBB1F621714
S11325D073078407BA0720F0621B730B840BBA0BD2
S11325E0EE1F88F7E09508950E94FB126894B111DC
S11325F00C94D61308950E94BB1388F09F5798F04B
S1132600B92F9927B751B0F0E1F0660F771F881FF3
S1132610991F1AF0BA95C9F714C0B13091F00E940D
S1132620D513B1E008950C94D513672F782F88271C
S1132630B85F39F0B93FCCF3869577956795B39534
S1132640D9F73EF490958095709561957F4F8F4FA3
S11326509F4F0895E89409C097FB3EF490958095A8
S1132660709561957F4F8F4F9F4F9923A9F0F92F54
S113267096E9BB279395F695879577956795B795D2
S1132680F111F8CFFAF4BB0F11F460FF1BC06F5FB8
S11326907F4F8F4F9F4F16C0882311F096E911C0CA
S11326A0772321F09EE8872F762F05C0662371F0EB
S11326B096E8862F70E060E02AF09A95660F771FFF
S11326C0881FDAF7880F9695879597F90895990FDB
S11326D00008550FAA0BE0E8FEEF16161706E807E8
S11326E0F907C0F012161306E407F50798F0621B09
S11326F0730B840B950B39F40A2661F0232B242BDE
S1132700252B21F408950A2609F4A140A6958FEFFC
S1132710811D811D089597F99F6780E870E060E04E
S113272008959FEF80EC089500240A941616170666
S113273018060906089500240A94121613061406AE
S113274005060895092E0394000C11F4882352F011
S1132750BB0F40F4BF2B11F460FF04C06F5F7F4FC9
S11327608F4F9F4F089557FD9058440F551F59F0B0
S11327705F3F71F04795880F97FB991F61F09F3F6A
S113278079F087950895121613061406551FF2CF93
S11327904695F1DF08C0161617061806991FF1CFE3
S11327A086957105610508940895E894BB2766270A
S11327B07727CB0197F908950E94671308F48FEFE8
S11327C008950E94F4130C94A2130E94941338F0F9
S11327D00E949B1320F0952311F00C948B130C94FE
S11327E0911311240C94D6130E94B31370F3959F84
S11327F0C1F3950F50E0551F629FF001729FBB27F4
S1132800F00DB11D639FAA27F00DB11DAA1F649F8F
S11328106627B00DA11D661F829F2227B00DA11D42
S1132820621F739FB00DA11D621F839FA00D611DC8
S1132830221F749F3327A00D611D231F849F600DE9
S1132840211D822F762F6A2F11249F5750409AF012
S1132850F1F088234AF0EE0FFF1FBB1F661F771F9E
S1132860881F91505040A9F79E3F510580F00C9469
S11328708B130C94D6135F3FE4F3983ED4F3869500
S113288077956795B795F795E7959F5FC1F7FE2B09
S1132890880F911D9695879597F90895FA01EE0F83
S11328A0FF1F309621053105A1F16115710561F411
S11328B08038BFE39B0749F168949038810561F043
S11328C08038BFEF9B0741F099234AF5FF3FE105AC
S11328D03105210519F1E8940894E795D901AA2353
S11328E029F4AB2FBE2FF85FD0F310C0FF5F70F454
S11328F0A695E0F7F73950F019F0FF3A38F49F77CE
S11329009F930DD00F9007FC9058089546F00C94B7
S1132910911360E070E080E89FE308954FE79F77AC
S11329205F934F933F932F930E9449152F913F91AB
S11329304F915F910E94E1130C94A61429F416F0B0
S11329400C948B130C94D5130C9491130E94BB1309
S1132950A8F39638A0F707F80F92E8942BE33AEA25
S113296048EB5FE70E94F7130F920F920F924DB757
S11329705EB70F920E949115E8E9F0E00E94D81426
S11329804F915F91EF91FF91E595EE1FFF1F49F085
S1132990FE57E0684427EE0F441FFA95E1F741958E
S11329A0550B0E940B150F9007FE0C94FF1408950D
S11329B0DF93CF931F930F93FF92EF92DF927B01EC
S11329C08C01689406C0DA2EEF010E94F413FE0114
S11329D0E894A5912591359145915591A6F3EF0180
S11329E00E942812FE019701A801DA9469F7DF908A
S11329F0EF90FF900F911F91CF91DF9108959B016C
S1132A00AC0160E070E080E89FE30C9482120C94C7
S1132A108B130C94C5150E94BB13D8F39923C9F3E7
S1132A20940F511DA3F39150504094F059F0882312
S1132A3032F0660F771F881F91505040C1F79E3FB8
S1132A4051052CF7880F911D9695879597F9089550
S1132A505F3FACF0983E9CF0BB27869577956795D1
S1132A60B79508F4B1609395C1F7BB0F58F711F40B
S1132A7060FFE8CF6F5F7F4F8F4F9F4FE3CF0C9482
S1132A80D61316F00C94C5150C94911368940C94F9
S1132A908B130E94BB13A8F39923C1F3AEF3DF9306
S1132AA0CF931F930F93FF92C92FDD2788232AF01A
S1132AB02197660F771F881FDAF720E030E040E89F
S1132AC05FEB9FE3883920F0803E38F021968F77C2
S1132AD00E941112E0ECF0E004C00E941112EDEE2D
S1132AE0F0E00E94D8148B01BE01EC01FB2E6F575D
S1132AF071097595771F880B990B0E942C1328E197
S1132B0032E741E35FE30E94F413AF2D9801AE0175
S1132B10FF900F911F91CF91DF910E9428120C9486
S1132B20A213FA01DC01AA0FBB1F9B01AC01BF5722
S1132B3028F4222733274427507820C0B75190F433
S1132B40AB2F0024469537952795011CA395D2F306
S1132B50002071F0220F331F441FB395DAF30ED017
S1132B600C94101261307105A0E88A07B94630F45C
S1132B709B01AC016627772788279078309621F04F
S1132B80208331834283538308959F3F31F09150D2
S1132B9020F4879577956795B795880F911D96953D
S1132BA0879597F90895BB274A3031F4992322F485
S1132BB0BDE2909581959F4F0C94DF15BB27FB01D7
S1132BC05527AA27880F991FAA1FA41710F0A41B22
S1132BD083955051B9F7A05DAA3308F0A95DA1937C
S1132BE0009779F7B111B1931192CB010C94F815B8
S1132BF0DC01FC01672F71917723E1F7329704C060
S1132C007C916D9370836291AE17BF07C8F30895EA
S1072C10F894FFCF62
S1132C1406000A001200140000000001010118015A
S1132C2401010101010101010101010101EEF1E2CE
S1132C342E003000252020003A0020D0E0F1F1E2FB
S1132C44E5F20020C4E5EDFC2020200020C7E0EAE2
S1132C54E0F220200020CDEEF7FC2020200000002C
S1132C640000000000000000FA0000000000600002
S1132C7460000028FE28FE28002454D6544800C2CC
S1132C840C106086000C52BA4C1200000060000064
S1132C9400003844820000008244380000005020C0
S1132CA450000010107C101000000102000000000D
S1132CB41010100000000002000000020C106080DC
S1132CC4007C8A92A27C000242FE020200468A929E
S1132CD4926600448292926C0018284888FE00E4AC
S1132CE4A2A2A29C003C5292920C00C0808E90E05E
S1132CF4006C9292926C006092929478000000248A
S1132D040000000002240000001028448200002473
S1132D14242424000082442810000040808A906007
S1132D24003C425A4A3A007E9090907E00FE929271
S1132D34926C007C8282824400FE8282827C00FE49
S1132D449292928200FE90909080007C8282A2BC37
S1132D5400FE101010FE000082FE82000004020235
S1132D6402FC00FE2020508E00FE0202020000FE3F
S1132D74402040FE00FE402010FE007C8282827CC3
S1132D8400FE90909060007C8282847A00FE909091
S1132D94906E00649292924C008080FE808000FCCD
S1132DA4020202FC00F00C020CF000FE040804FE13
S1132DB400C6281028C60080403E408000868A92BF
S1132DC4A2C20000FE828200008060100C02000097
S1132DD48282FE00002040804020000101010101A4
S1132DE400402000000000042A2A2A1E007E122229
S1132DF4221C001C22222214001C2222127E001CEB
S1132E042A2A2A1A00207EA0A00000192525253E7E
S1132E1400FE1020201E000020BC02000004020258
S1132E2402BC0000FE081422000080FC0202003EE2
S1132E342018201E003E2020201E001C2222221CBA
S1132E44003F1424241800182424143F003E1020A6
S1132E54201000122A2A2A24000020FC2200003C0C
S1132E640202023E003804020438003C020E023E10
S1132E7400221408142200390505053E0022262ADE
S1132E8432220000106C8200000000FE00000000EA
S1132E94826C1000001820100830000000000000AC
S1132EA4000000000000000000000000000000001A
S1132EB4000000000000000000000000000000000A
S1132EC400000000000000000000000000000000FA
S1132ED400000000000000000000000000000000EA
S1132EE400000000000000000000000000000000DA
S1132EF400000000000000000000000000000000CA
S1132F0400000000000000000000000000000000B9
S1132F1400000000000000000000000000000000A9
S1132F240000000000000000000000000000000099
S1132F340000000000000000000000000000000089
S1132F440000000000000000000000000000000079
S1132F540000000000000000000000000000000069
S1132F640000000000000000000000000000000059
S1132F740000000000000000000000000000000049
S1132F840000000000000000000000000000000039
S1132F94003EAA2AAA22000000000000000000004B
S1132FA40000000000000000000000000000000019
S1132FB40000000000000000000000000000000009
S1132FC400000000000000000000000000000000F9
S1132FD400000000000000000000000000000000E9
S1132FE400000000000000000000000000000000D9
S1132FF400000000000000000000000000000000C9
S113300400000000000000000000000000000000B8
S113301400000000000000000000000000000000A8
S1133024007E9090907E00FEA2A2A29C00FE92924A
S1133034926C00FE8080808000031EE282FF00FE0A
S11330449292928200DE20FE20DE004482A2A25CE0
S113305400FE040830FE0000000000000000000030
S1133064000000000000000000000000000000FE5A
S1133074101010FE0000000000000000000000001A
S113308400FE90909060000000000000000000002A
S11330940000000000000000000000000000000028
S11330A40000000000000000000000000000000018
S11330B40000000000000000000000000000000008
S11330C400000000000000000000000000000000F8
S11330D400000000000000000000000000000000E8
S11330E400042A2A2A1E000000000000003E2A2AA6
S11330F42A14000000000000000000000000001C6E
S11331042A2A2A1A0000000000000000000000001F
S1133114003E0408103E003E8448903E003E0808E9
S11331241422000000000000000000000000003E23
S11331340808083E001C2222221C00000000000093
S1133144003F14242418001C222222140020203EB0
S11331542020000000000000000000000000000027
S11331640000000000000000000000300808083ED1
S11331740000000000000000000000000000000047
S11331840000000000000000003E0A0A0A040000D7
S11331940000000000000000000000000000000027
S10531A4000025
S9030000FC
