:100000000C946C000C9494000C9494000C94940048
:100010000C9494000C9494000C9494000C9435026D
:100020000C9494000C9494000C9494000C94940000
:100030000C9494000C9494000C9494000C949400F0
:100040000C9494000C9494000C9494000C949400E0
:100050000C94940007634236B79BD8A71A396856A8
:1000600018AEBAAB558C1D3CB7CC5763BD6DEDFDDA
:10007000753EF6177231BF000000803F0800000097
:10008000BE922449123EABAAAA2ABECDCCCC4C3E8D
:1000900000000080BEABAAAAAA3E00000000BF007C
:1000A0000000803F0000000000084178D3BB438778
:1000B000D1133D190E3CC3BD4282AD2B3E68EC828C
:1000C00076BED98FE1A93E4C80EFFFBE01C4FF7F11
:1000D0003F0000000000E80611241FBECFE5D8E075
:1000E000DEBFCDBF15E0A0E6B0E0E8E9FBE102C06D
:1000F00005900D92AA3DB107D9F725E0AAEDB5E02C
:1001000001C01D92AA3FB207E1F710E0CCE6D0E0B3
:1001100004C02197FE010E948F0DCB36D107C9F78D
:100120000E94CD040C94CA0D0C940000FC0182E4E2
:1001300080B981B181B984EA86BF06B607FEFDCFDA
:1001400080ED83B984E886BF06B607FEFDCF13B8FD
:1001500084E886BF06B607FEFDCF84EA86BF06B6F2
:1001600007FEFDCF81ED83B984E886BF06B607FEA2
:10017000FDCF84EC86BF06B607FEFDCF83B1282FE6
:1001800030E0359527953595279535952795359503
:100190002795220F922F990F990F290F8F70820F99
:1001A000808384EC86BF06B607FEFDCF83B1282F7F
:1001B00030E03595279535952795359527953595D3
:1001C0002795220F922F990F990F290F8F70820F69
:1001D000818384EC86BF06B607FEFDCF83B1282F4E
:1001E00030E03595279535952795359527953595A3
:1001F0002795220F922F990F990F290F8F70820F39
:10020000828384EC86BF06B607FEFDCF83B1282F1C
:1002100030E0359527953595279535952795359572
:100220002795220F922F990F990F290F8F70820F08
:10023000838384EC86BF06B607FEFDCF83B1282FEB
:1002400030E0359527953595279535952795359542
:100250002795220F922F990F990F290F8F70820FD8
:10026000848384EC86BF06B607FEFDCF83B1282FBA
:1002700030E0359527953595279535952795359512
:100280002795220F922F990F990F290F8F70820FA8
:10029000858384E886BF06B607FEFDCF23B1822F93
:1002A00090E09595879595958795959587959595E2
:1002B00087952F70880F982F990F990F890F820FAC
:1002C000868384E986BF0895CF92DF92EF92FF92F2
:1002D0000F931F93CF93DF93019709F0BDC06F3F3A
:1002E0007F4F09F0B9C0C8E8D0E01881698170E09B
:1002F00080E090E00E94C30A20E030E040E752E452
:100300000E941B0A6B017C01612F70E080E090E08D
:100310000E94C30AA70196010E94AA096B017C01F1
:100320006A8170E080E090E00E94C30A20E030E043
:1003300041E655E40E941B0A9B01AC01C701B601CE
:100340000E94AA096093EB057093EC058093ED057C
:100350009093EE051093EA05C0E8D0E0688170E064
:1003600080E090E00E94C30A6B017C01698170E02B
:1003700080E090E00E94C30A20E030E040E752E4D1
:100380000E941B0A9B01AC01C701B6010E94AA0989
:100390000AED15E0F80160837183828393836A819B
:1003A00070E080E090E00E94C30A6B017C016B81E9
:1003B00070E080E090E00E94C30A20E030E040E777
:1003C00052E40E941B0A9B01AC01C701B6010E94C6
:1003D000AA09F80164837583868397836C8170E032
:1003E00080E090E00E94C30A6B017C016D8170E0A7
:1003F00080E090E00E94C30A20E030E040E752E451
:100400000E941B0A9B01AC01C701B6010E94AA0908
:10041000F80160877187828793876E8170E080E042
:1004200090E00E94C30A6B017C016F8170E080E064
:1004300090E00E94C30A20E030E040E752E40E94CE
:100440001B0A9B01AC01C701B6010E94AA09F80171
:100450006487758786879787DF91CF911F910F916A
:10046000FF90EF90DF90CF9008951F920F920FB6FC
:100470000F9211242F933F934F935F936F937F932A
:100480008F939F93AF93BF93EF93FF93F894E8E814
:10049000F0E080818F5F80838C3320F081818F5FDB
:1004A00081831082809189008C3330F0E8E8F0E09D
:1004B00082818F5F8283118280918A00883128F047
:1004C000E8E8F0E0108211821282809188008111A8
:1004D0000CC080918900811108C080918A0081112F
:1004E00004C088E890E00E9496007894FF91EF9114
:1004F000BF91AF919F918F917F916F915F914F913C
:100500003F912F910F900FBE0F901F9018957894E8
:100510008EE398E39BBD8ABD8FB58FBD8EB58D6090
:100520008EBD89B7806189BF8CB78CBF83B7896660
:1005300083BF87B3886087BB0E94EF060895CF9280
:10054000EF920F931F93CF93DF9380918A008A30AD
:1005500090F40F2EF5E0CF2EF02DE0908F0000915B
:1005600090002091910048EF55E069EF75E082E935
:1005700090E00E943A08E0908F0000919000109166
:100580009100C8E8D0E08A814AE06FEE75E090E023
:100590000E94950D0F2EF5E0CF2EF02D212F48EF64
:1005A00055E069EF75E00E943A08E0908F000091F5
:1005B00090002091910048EF55E069EF75E084E9E3
:1005C00090E00E943A0889818A3070F4E0908F00B0
:1005D000009190002091910048EF55E069EF75E09F
:1005E00082E990E00E943A08E0908F00009190002C
:1005F00010919100C8E8D0E089814AE06FEE75E083
:1006000090E00E94950D0F2EF5E0CF2EF02D212FBA
:1006100048EF55E069EF75E00E943A08E0908F00DE
:10062000009190002091910048EF55E069EF75E04E
:1006300084E990E00E943A0888818A3070F4E09062
:100640008F00009190002091910048EF55E069EFF4
:1006500075E082E990E00E943A08E0908F000091F6
:100660009000C0919100809188004AE06FEE75E0A3
:1006700090E00E94950D0F2EF5E0CF2EF02D2C2F3F
:1006800048EF55E069EF75E00E943A08DF91CF919D
:100690001F910F91EF90CF900895AF92BF92CF929C
:1006A000EF92FF920F931F93CF93DF9310E01430DC
:1006B00008F0A5C0C12FD0E0FE01EE0FFF1FE058EB
:1006C000FF4F80818A3090F40F2EF3E0CF2EF02D73
:1006D000E0908F00009190002091910048EF55E04C
:1006E00069EF75E082E990E00E943A08E0908F009F
:1006F00000919000F0909100CE01880F991F9C010D
:1007000020583F4F5901F90180814AE06FEE75E0B2
:1007100090E00E94950D0F2EF3E0CF2EF02D2F2D9F
:1007200048EF55E069EF75E00E943A08E0908F00CD
:10073000009190002091910048EF55E069EF75E03D
:1007400084E990E00E943A08F50181818A3070F4D2
:10075000E0908F00009190002091910048EF55E0CB
:1007600069EF75E082E990E00E943A08E0908F001E
:1007700000919000B0909100FE01EE0FFF1FE05835
:10078000FF4F81814AE06FEE75E090E00E94950D89
:100790000F2EF3E0CF2EF02D2B2D48EF55E069EF13
:1007A00075E00E943A08E0908F000091900020913F
:1007B000910048EF55E069EF75E088E990E00E940C
:1007C0003A08CE01880F991F880F991F880F991F2B
:1007D000E0908F00009190002091910048EF55E04B
:1007E00069EF75E0805A9F4F0E943A081092F90510
:1007F0008091F805865E8093F8051F5F58CF809141
:10080000F8058A518093F805DF91CF911F910F91E0
:10081000FF90EF90CF90BF90AF9008958F929F92EE
:10082000AF92BF92CF92DF92EF92FF920F931F93FE
:10083000CF93DF934B015C017A0169010E948D0A1D
:100840008B01072E000C880B990B0E94C50A9B0197
:10085000AC01C501B4010E94A9094B015C01C0E0D3
:10086000D0E00115110571F0F701EC0FFD1FC80173
:100870006AE070E00E94670D805D8083062F172F6D
:100880002196EFCFDD233CF4F701EC0FFD1F80E351
:1008900080832196F7CF9E012150310980E090E0BE
:1008A0008217930774F4D701A80FB91F4C91F70171
:1008B000E20FF31F50815C93408301962150310970
:1008C000EFCFF701EC0FFD1F1082C114D10409F422
:1008D00056C0F701EC0FFD1F8EE28083B6010D2C90
:1008E000000C880B990B0E94C50A9B01AC0160E0CB
:1008F00070E080E291E40E94E20B9B01AC01C50133
:10090000B4010E94750B2196CE0DDF1D0E948D0A49
:10091000CB0120E030E0009771F0FE01E20FF31F01
:100920006AE070E00E94670D805D8083862F972FBC
:100930002F5F3F4FF0CF2C153D0544F4FE01E20F31
:10094000F31F80E380832F5F3F4FF5CFA901415014
:10095000510980E090E08417950774F4DE01A80F38
:10096000B91F6C91FE01E40FF51F70817C936083C9
:10097000019641505109EFCFC20FD31F1882C70112
:10098000DF91CF911F910F91FF90EF90DF90CF906B
:10099000BF90AF909F908F9008952FEF8FE794E0D6
:1009A000215080409040E1F700C000000E94870283
:1009B00040E060E080E00E94C707EFEFFFE322E045
:1009C000E150F0402040E1F700C0000088E890E0EE
:1009D0000E949600809188009091EA058917D1F3D2
:1009E0008093EA051092F9051092F8050E949F0283
:1009F0001092F90588E28093F805C8E8D0E01A81E2
:100A0000698170E080E090E00E94C30A20E030E05D
:100A100040E752E40E941B0A4B015C01612F70E029
:100A200080E090E00E94C30AA50194010E94AA09F7
:100A30004B015C01688170E080E090E00E94C30A95
:100A400020E030E041E655E40E941B0A9B01AC0126
:100A5000C501B4010E94AA094B015C016093EB053A
:100A60007093EC058093ED059093EE05F12C83E0F7
:100A70008F1578F1CF2DD0E08E01000F111F005897
:100A80001F4FF801608170E080E090E00E94C30A8F
:100A90002B013C01F801618170E080E090E00E9450
:100AA000C30A20E030E040E752E40E941B0A9B01A9
:100AB000AC01C301B2010E94AA09CC0FDD1FCC0F0B
:100AC000DD1FC652DA4F688379838A839B83F39450
:100AD000CECF2091DA053091DB054091DC055091B5
:100AE000DD05C501B4010E94160A8823A4F40F2E67
:100AF000F5E0CF2EF02DE0908F0000919000209136
:100B0000910048EF55E069EF75E088E790E00E94BA
:100B10003A081CBED7C02091DE053091DF05409118
:100B2000E0055091E105C501B4010E94160A882331
:100B3000F4F50F2EF5E0CF2EF02DE0908F00009110
:100B400090002091910048EF55E069EF75E080E654
:100B500090E00E943A08CAEDD5E088809980AA808A
:100B6000BB80A50194016091EB057091EC0580912B
:100B7000ED059091EE050E94A9092B013C016C81C5
:100B80007D818E819F81A50194010E94A9099B010D
:100B9000AC01C301B2010E941B0A20E030E04FE724
:100BA00053E40E94750B0E94940A6CBF8BC0209185
:100BB000E2053091E3054091E4055091E505C5015A
:100BC000B4010E94160A8823ACF40F2EF5E0CF2E54
:100BD000F02DE0908F00009190002091910048EF5F
:100BE00055E069EF75E088E690E00E943A088FEFE3
:100BF0008CBF68C02091E6053091E7054091E8057B
:100C00005091E905C501B4010E94160A88230CF031
:100C100046C00F2EF5E0CF2EF02DE0908F00009112
:100C200090002091910048EF55E069EF75E080E772
:100C300090E00E943A08CAEDD5E088849984AA849D
:100C4000BB84A50194016091EB057091EC05809146
:100C5000ED059091EE050E94A9092B013C016C85E0
:100C60007D858E859F85A50194010E94A9099B0120
:100C7000AC01C301B2010E941B0A9B01AC0160E000
:100C800070E080E89FE30E94A90920E030E04FE790
:100C900053E40E94750B0E94940A6CBF13C00F2E80
:100CA000F5E0CF2EF02DE0908F0000919000209184
:100CB000910048EF55E069EF75E088E790E00E9409
:100CC0003A081CBE1092F90585E58093F805E0907E
:100CD0008F0000919000C09191008CB74AE06FEEB8
:100CE00075E090E00E94950D0F2EF3E0CF2EF02DD1
:100CF0002C2F48EF55E069EF75E00E943A08E0902C
:100D00008F00009190002091910048EF55E069EF2D
:100D100075E088E990E00E943A086CB770E080E0E6
:100D200090E00E94C30A23E333E343E250E40E94CD
:100D30001B0A20E030E040E251E40E94160A8823BA
:100D400074F4E0908F00009190002091910048EFA2
:100D500055E069EF75E082E990E00E943A08E09082
:100D60008F0000919000C09191006CB770E080E01E
:100D700090E00E94C30A23E333E343E250E40E947D
:100D80001B0A22E030E04FEE55E00E940E040F2EC9
:100D9000F3E0CF2EF02D2C2F48EF55E069EF75E0F2
:100DA0000E943A08E0908F000091900020919100FD
:100DB00048EF55E069EF75E086E990E00E943A0857
:100DC0001092F90582E88093F8050E944D0302CE47
:100DD0006FEF7FEF81E090E00E946401089587B398
:100DE000806B87BB88B3806F88BB8CE58DB991E041
:100DF0009EB984B3886084BB85B3886085BB84B3A7
:100E0000846084BB85B3846085BB85B3886085BB03
:100E1000E7E8F3E13197F1F700C0000085B3877F81
:100E200085BBE1EEF4E03197F1F700C0000085B337
:100E3000886085BBE7E8F3E13197F1F700C0000077
:100E400085B38B7F85BB9FB9779BFECF83EC99E001
:100E50000197F1F700C0000085B38B7F85BB81E16E
:100E60008FB9779BFECFE3ECF9E03197F1F700C043
:100E7000000085B38B7F85BB8AE38FB9779BFECF5C
:100E800085B3846085BB86E08FB9779BFECF83EC0A
:100E900099E00197F1F700C0000085B38B7F85BB17
:100EA00086E38FB9779BFECF85B3846085BB1FB87F
:100EB000779BFECFE3ECF9E03197F1F700C000003B
:100EC00085B38B7F85BB8AE28FB9779BFECF85B3D5
:100ED000846085BB1FB8779BFECF85B3846085BBDC
:100EE0001FB8779BFECF85B3846085BB1FB8779B07
:100EF000FECF85B3846085BB80EF8FB9779BFECF33
:100F000083EC99E00197F1F700C0000085B38B7F77
:100F100085BB8BE28FB9779BFECF85B3846085BBA1
:100F20001FB8779BFECF85B3846085BB1FB8779BC6
:100F3000FECF85B3846085BB1FB8779BFECF85B39A
:100F4000846085BB80EF8FB9779BFECFE3ECF9E03F
:100F50003197F1F700C0000085B38B7F85BB81E23C
:100F60008FB9779BFECF83EC99E00197F1F700C032
:100F7000000085B38B7F85BB89E28FB9779BFECF5D
:100F8000E3ECF9E03197F1F700C000000895262F57
:100F9000342F95B39B7F95BB9AE29FB9779BFECF89
:100FA00095B3946095BB1FB8779BFECF95B39460C3
:100FB00095BB1FB8779BFECF95B3946095BB1FB8C8
:100FC000779BFECF95B3946095BB90EF9FB9779BCD
:100FD000FECF95B39B7F95BB9BE29FB9779BFECFDE
:100FE00095B3946095BB1FB8779BFECF95B3946083
:100FF00095BB1FB8779BFECF95B3946095BB1FB888
:10100000779BFECF95B3946095BB90EF9FB9779B8C
:10101000FECF95B39B7F95BB9CE29FB9779BFECF9C
:1010200040E050E0BA01411591EE590761057105A4
:1010300004F595B3946095BB982F990F990F9FB9BC
:10104000779BFECF95B3946095BB922F990F990F24
:101050009FB9779BFECF95B3946095BB932F990F63
:10106000990F9FB9779BFECF4F5F5F4F6F4F7F4FB9
:10107000DACF08958F929F92AF92BF92CF92EF9264
:101080000F931F93CF93DF935C01EB0110E0F50109
:10109000E10FF11D3081332309F450C180E0863027
:1010A00008F04AC190E0983008F030C1E32FF0E03A
:1010B000B097BF01660F771FE60FF71FEE0FFF1FF8
:1010C000E656FF4FE80FF11DA081E7E0F0E0E91BD5
:1010D000F10961E070E04B0102C0880C991CEA95AF
:1010E000E2F76A2F70E068217921672B09F48AC042
:1010F000FA01A081C99EA00D1124B881B13F08F06A
:1011000003C1A13F08F000C165B36B7F65BB6AE214
:101110006FB9779BFECFEB2FF0E065B3646065BBE2
:101120001FB8779BFECF65B3646065BBBFB9779B83
:10113000FECF6C2D70E0E60FF71F3197E5B3E4604A
:10114000E5BBFFB9779BFECFBC0DB150E5B3E460C2
:10115000E5BBBFB9779BFECFE5B3EB7FE5BBEBE229
:10116000EFB9779BFECFEA2FF0E0B5B3B460B5BB23
:101170001FB8779BFECFB5B3B460B5BBAFB9779B53
:10118000FECFE60FF71F3197E5B3E460E5BBFFB98B
:10119000779BFECFAC0DA150E5B3E460E5BBAFB9E2
:1011A000779BFECFE5B3EB7FE5BBECE2EFB9779B36
:1011B000FECFE0E0F0E0669FD001679FB00DB00D7C
:1011C0001124EA17FB070CF09FC0A5B3A460A5BBD0
:1011D000A22FAA0FAA0FAFB9779BFECFA5B3A46029
:1011E000A5BBA02FAA0FAA0FAFB9779BFECFA5B3BF
:1011F000A460A5BBAE2DAA0FAA0FAFB9779BFECFF7
:101200003196D9CFDA01EC91C99EE00D1124F88115
:10121000F13F08F079C0E13F08F076C065B36B7F1D
:1012200065BB6AE26FB9779BFECF6F2F70E0A5B305
:10123000A460A5BB1FB8779BFECFA5B3A460A5BBD8
:10124000FFB9779BFECFAC2DB0E06A0F7B1F6150DA
:10125000710965B3646065BB7FB9779BFECFFC0DF8
:10126000F15065B3646065BBFFB9779BFECF65B392
:101270006B7F65BB6BE26FB9779BFECF6E2F70E023
:10128000F5B3F460F5BB1FB8779BFECFF5B3F46000
:10129000F5BBEFB9779BFECF6A0F7B1F61507109D9
:1012A00065B3646065BB7FB9779BFECFEC0DE15001
:1012B00065B3646065BBEFB9779BFECF65B36B7FA9
:1012C00065BB6CE26FB9779BFECFE0E0F0E0AA9FD0
:1012D000B001AB9F700D700D1124E617F707A4F451
:1012E00065B3646065BB1FB8779BFECF65B3646070
:1012F00065BB1FB8779BFECF65B3646065BB1FB845
:10130000779BFECF3196E3CF9F5FCDCE98819C0D2A
:101310009883903F48F01882FA0160819C2D990FC4
:10132000990F990F960F9083DA019C91903F10F0DE
:1013300018821C928F5FB3CE1F5FA9CEDF91CF9131
:101340001F910F91EF90CF90BF90AF909F908F9093
:1013500008955058BB27AA270E94C1090C943B0B43
:101360000E942D0B38F00E94340B20F039F49F3F7F
:1013700019F426F40C942A0B0EF4E095E7FB0C9478
:10138000240BE92F0E944C0B58F3BA17620773071E
:101390008407950720F079F4A6F50C946E0B0EF4F3
:1013A000E0950B2EBA2FA02D0B01B90190010C0175
:1013B000CA01A0011124FF27591B99F0593F50F48D
:1013C000503E68F11A16F040A22F232F342F4427E5
:1013D000585FF3CF469537952795A795F0405395DD
:1013E000C9F77EF41F16BA0B620B730B840BBAF0AD
:1013F0009150A1F0FF0FBB1F661F771F881FC2F718
:101400000EC0BA0F621F731F841F48F4879577952B
:101410006795B795F7959E3F08F0B0CF9395880FE5
:1014200008F09927EE0F9795879508950E94000B75
:1014300008F481E008950E942F0A0C943B0B0E944F
:10144000340B58F00E942D0B40F029F45F3F29F037
:101450000C94240B51110C946F0B0C942A0B0E94CA
:101460004C0B68F39923B1F3552391F3951B550B5E
:10147000BB27AA2762177307840738F09F5F5F4F67
:10148000220F331F441FAA1FA9F335D00E2E3AF0A6
:10149000E0E832D091505040E695001CCAF72BD0BE
:1014A000FE2F29D0660F771F881FBB1F261737070F
:1014B0004807AB07B0E809F0BB0B802DBF01FF2741
:1014C00093585F4F3AF09E3F510578F00C94240BEF
:1014D0000C946F0B5F3FE4F3983ED4F386957795B9
:1014E0006795B795F7959F5FC9F7880F911D9695FA
:1014F000879597F90895E1E0660F771F881FBB1F56
:10150000621773078407BA0720F0621B730B840B02
:10151000BA0BEE1F88F7E09508950E94940A68942C
:10152000B1110C946F0B08950E94540B88F09F57D3
:1015300098F0B92F9927B751B0F0E1F0660F771FF7
:10154000881F991F1AF0BA95C9F714C0B13091F0ED
:101550000E946E0BB1E008950C946E0B672F782FEC
:101560008827B85F39F0B93FCCF3869577956795B2
:10157000B395D9F73EF490958095709561957F4F1E
:101580008F4F9F4F0895E89409C097FB3EF49095C4
:101590008095709561957F4F8F4F9F4F9923A9F04C
:1015A000F92F96E9BB279395F695879577956795DB
:1015B000B795F111F8CFFAF4BB0F11F460FF1BC01F
:1015C0006F5F7F4F8F4F9F4F16C0882311F096E9B2
:1015D00011C0772321F09EE8872F762F05C0662360
:1015E00071F096E8862F70E060E02AF09A95660F19
:1015F000771F881FDAF7880F9695879597F90895D2
:10160000990F0008550FAA0BE0E8FEEF1616170613
:10161000E807F907C0F012161306E407F50798F07B
:10162000621B730B840B950B39F40A2661F0232B94
:10163000242B252B21F408950A2609F4A140A69510
:101640008FEF811D811D089597F99F6780E870E0F5
:1016500060E008959FEF80EC089500240A94161628
:10166000170618060906089500240A941216130690
:10167000140605060895092E0394000C11F488231E
:1016800052F0BB0F40F4BF2B11F460FF04C06F5F3A
:101690007F4F8F4F9F4F089557FD9058440F551F10
:1016A00059F05F3F71F04795880F97FB991F61F0E4
:1016B0009F3F79F087950895121613061406551F5B
:1016C000F2CF4695F1DF08C0161617061806991FC7
:1016D000F1CF86957105610508940895E894BB27BC
:1016E00066277727CB0197F908950E94880B0C9401
:1016F0003B0B0E942D0B38F00E94340B20F09523F9
:1017000011F00C94240B0C942A0B11240C946F0BE5
:101710000E944C0B70F3959FC1F3950F50E0551F3D
:10172000629FF001729FBB27F00DB11D639FAA2736
:10173000F00DB11DAA1F649F6627B00DA11D661F85
:10174000829F2227B00DA11D621F739FB00DA11DA6
:10175000621F839FA00D611D221F749F3327A00D60
:10176000611D231F849F600D211D822F762F6A2FFC
:1017700011249F5750409AF0F1F088234AF0EE0F61
:10178000FF1FBB1F661F771F881F91505040A9F78E
:101790009E3F510580F00C94240B0C946F0B5F3F1F
:1017A000E4F3983ED4F3869577956795B795F795CA
:1017B000E7959F5FC1F7FE2B880F911D9695879542
:1017C00097F90895FA01EE0FFF1F309621053105B4
:1017D000A1F16115710561F48038BFE39B0749F100
:1017E00068949038810561F08038BFEF9B0741F025
:1017F00099234AF5FF3FE1053105210519F1E894E8
:101800000894E795D901AA2329F4AB2FBE2FF85FDE
:10181000D0F310C0FF5F70F4A695E0F7F73950F0F1
:1018200019F0FF3A38F49F779F930DD00F9007FC83
:101830009058089546F00C942A0B60E070E080E820
:101840009FE308954FE79F775F934F933F932F93C5
:101850000E94DD0C2F913F914F915F910E94750B7B
:101860000C943A0C29F416F00C94240B0C946E0B87
:101870000C942A0B0E94540BA8F39638A0F707F893
:101880000F92E8942BE33AEA48EB5FE70E948B0B58
:101890000F920F920F924DB75EB70F920E94250DD7
:1018A000E4E5F0E00E946C0C4F915F91EF91FF91A5
:1018B000E595EE1FFF1F49F0FE57E0684427EE0F45
:1018C000441FFA95E1F74195550B0E949F0C0F902C
:1018D00007FE0C94930C0895DF93CF931F930F93FF
:1018E000FF92EF92DF927B018C01689406C0DA2EA2
:1018F000EF010E94880BFE01E894A5912591359196
:1019000045915591A6F3EF010E94C109FE0197018F
:10191000A801DA9469F7DF90EF90FF900F911F9183
:10192000CF91DF9108959B01AC0160E070E080E809
:101930009FE30C941B0A0C94240B0C94590D0E94E9
:10194000540BD8F39923C9F3940F511DA3F391506D
:10195000504094F059F0882332F0660F771F881FAB
:1019600091505040C1F79E3F51052CF7880F911DB3
:101970009695879597F908955F3FACF0983E9CF057
:10198000BB27869577956795B79508F4B1609395D1
:10199000C1F7BB0F58F711F460FFE8CF6F5F7F4FBF
:1019A0008F4F9F4FE3CF0C946F0B16F00C94590D93
:1019B0000C942A0B68940C94240B0E94540BA8F3EB
:1019C0009923C1F3AEF3DF93CF931F930F93FF924D
:1019D000C92FDD2788232AF02197660F771F881FDC
:1019E000DAF720E030E040E85FEB9FE3883920F051
:1019F000803E38F021968F770E94AA09ECE7F0E04C
:101A000004C00E94AA09E9EAF0E00E946C0C8B0174
:101A1000BE01EC01FB2E6F5771097595771F880B7E
:101A2000990B0E94C50A28E132E741E35FE30E9477
:101A3000880BAF2D9801AE01FF900F911F91CF91B0
:101A4000DF910E94C1090C943B0BFA01DC01AA0F43
:101A5000BB1F9B01AC01BF5728F422273327442723
:101A6000507820C0B75190F4AB2F0024469537959D
:101A70002795011CA395D2F3002071F0220F331F8C
:101A8000441FB395DAF30ED00C94A90961307105A7
:101A9000A0E88A07B94630F49B01AC016627772796
:101AA00088279078309621F02083318342835383B6
:101AB00008959F3F31F0915020F487957795679571
:101AC000B795880F911D9695879597F9089597FB7F
:101AD000072E16F4009407D077FD09D00E947B0DE5
:101AE00007FC05D03EF4909581959F4F0895709521
:101AF00061957F4F0895AA1BBB1B51E107C0AA1F28
:101B0000BB1FA617B70710F0A61BB70B881F991F9E
:101B10005A95A9F780959095BC01CD010895EE0FD7
:101B2000FF1F0590F491E02D0994BB274A3031F452
:101B3000992322F4BDE2909581959F4F0C94A10DBD
:101B4000BB27FB015527AA27880F991FAA1FA41797
:101B500010F0A41B83955051B9F7A05DAA3308F08B
:101B6000A95DA193009779F7B111B1931192CB01BF
:101B70000C94BA0DDC01FC01672F71917723E1F71A
:101B8000329704C07C916D9370836291AE17BF074A
:081B9000C8F30895F894FFCF9B
:101B9800D0E0F1F1E2E5F200C4E5EDFC2020200000
:101BA800C7E0EAE0F2202000CDEEF7FC202020007C
:101BB80005000A0011001600283B13021505182D10
:101BC800373C30003A0025202000000000000000CB
:101BD80000FA0000000000600060000028FE28FEF7
:101BE80028002454D6544800C20C106086000C52B9
:101BF800BA4C120000006000000000384482000067
:101C080000824438000000502050000010107C1062
:101C18001000000102000000001010100000000079
:101C280002000000020C106080007C8A92A27C00F6
:101C38000242FE020200468A929266004482929212
:101C48006C0018284888FE00E4A2A2A29C003C521E
:101C580092920C00C0808E90E0006C9292926C0080
:101C68006092929478000000240000000002240092
:101C78000000102844820000242424240000824408
:101C88002810000040808A9060003C425A4A3A007E
:101C98007E9090907E00FE9292926C007C8282826E
:101CA8004400FE8282827C00FE9292928200FE9024
:101CB800909080007C8282A2BC00FE101010FE0072
:101CC8000082FE82000004020202FC00FE20205076
:101CD8008E00FE0202020000FE402040FE00FE4090
:101CE8002010FE007C8282827C00FE909090600032
:101CF8007C8282847A00FE9090906E006492929228
:101D08004C008080FE808000FC020202FC00F00C87
:101D1800020CF000FE040804FE00C6281028C600C5
:101D280080403E408000868A92A2C20000FE8282E5
:101D380000008060100C0200008282FE000020403B
:101D48008040200001010101010040200000000046
:101D5800042A2A2A1E007E1222221C001C22222269
:101D680014001C2222127E001C2A2A2A1A00207E15
:101D7800A0A00000192525253E00FE1020201E00E9
:101D88000020BC02000004020202BC0000FE08148D
:101D980022000080FC0202003E2018201E003E2087
:101DA80020201E001C2222221C003F14242418007C
:101DB800182424143F003E1020201000122A2A2A3A
:101DC80024000020FC2200003C0202023E003804ED
:101DD800020438003C020E023E00221408142200BD
:101DE800390505053E0022262A32220000106C82A1
:101DF80000000000FE00000000826C1000001820A7
:101E08001008300000000000000000000000000082
:101E180000000000000000000000000000000000BA
:101E280000000000000000000000000000000000AA
:101E3800000000000000000000000000000000009A
:101E4800000000000000000000000000000000008A
:101E5800000000000000000000000000000000007A
:101E6800000000000000000000000000000000006A
:101E7800000000000000000000000000000000005A
:101E8800000000000000000000000000000000004A
:101E9800000000000000000000000000000000003A
:101EA800000000000000000000000000000000002A
:101EB800000000000000000000000000000000001A
:101EC800000000000000000000000000000000000A
:101ED80000000000000000000000000000000000FA
:101EE80000000000000000000000000000000000EA
:101EF800000000000000000000003EAA2AAA2200FC
:101F080000000000000000000000000000000000C9
:101F180000000000000000000000000000000000B9
:101F280000000000000000000000000000000000A9
:101F38000000000000000000000000000000000099
:101F48000000000000000000000000000000000089
:101F58000000000000000000000000000000000079
:101F68000000000000000000000000000000000069
:101F78000000000000000000000000000000000059
:101F8800000000000000000000007E9090907E009D
:101F9800FEA2A2A29C00FE9292926C00FE8080801B
:101FA8008000031EE282FF00FE9292928200DE20F1
:101FB800FE20DE004482A2A25C00FE040830FE007F
:101FC8000000000000000000000000000000000009
:101FD8000000000000000000FE101010FE000000CD
:101FE80000000000000000000000FE9090906000DB
:101FF80000000000000000000000000000000000D9
:1020080000000000000000000000000000000000C8
:1020180000000000000000000000000000000000B8
:1020280000000000000000000000000000000000A8
:102038000000000000000000000000000000000098
:1020480000000000000000000000042A2A2A1E00E8
:102058000000000000003E2A2A2A140000000000A8
:1020680000000000000000001C2A2A2A1A000000B4
:102078000000000000000000000000000000000058
:102088000000000000003E080814220000000000C4
:1020980000000000000000003E0808083E001C2266
:1020A80022221C00000000000000000000000000C8
:1020B8001C222222140020203E20200000000000C4
:1020C8000000000000000000000000000000000008
:1020D80000000000300808083E0000000000000072
:1020E80000000000000000000000000000000000E8
:1020F80000003E0A0A0A0400000000000000000078
:0A21080000000000000000000000CD
:00000001FF
