:100000000C946C000C94A5010C94F5010C94410225
:100010000C9494000C9494000C9494000C943A0169
:100020000C9494000C9494000C9494000C94940000
:100030000C9494000C9494000C9494000C949400F0
:100040000C9494000C9494000C9494000C949400E0
:100050000C94940007634236B79BD8A71A396856A8
:1000600018AEBAAB558C1D3CB7CC5763BD6DEDFDDA
:10007000753EF6177231BF000000803F0800000097
:10008000BE922449123EABAAAA2ABECDCCCC4C3E8D
:1000900000000080BEABAAAAAA3E00000000BF007C
:1000A0000000803F0000000000084178D3BB438778
:1000B000D1133D190E3CC3BD4282AD2B3E68EC828C
:1000C00076BED98FE1A93E4C80EFFFBE01C4FF7F11
:1000D0003F0000000000300711241FBECFE5D8E02C
:1000E000DEBFCDBF15E0A0E6B0E0EEE2FCE102C06D
:1000F00005900D92A23EB107D9F726E0A2EEB5E039
:1001000001C01D92A930B207E1F710E0CCE6D0E0C3
:1001100004C02197FE010E94CF0DCB36D107C9F74D
:100120000E9424050C94150E0C940000982F9695AF
:10013000969596959E71292F220F220F920F8F7000
:10014000890F08956AE00E949B0D292F30E1839F5B
:10015000C0011124822B089584EA86BF06B607FEEB
:10016000FDCF089583B984E886BF06B607FEFDCFAC
:10017000089584EC86BF06B607FEFDCF83B10895CF
:10018000CF93DF93EC0188E280B981B181B90E94FD
:10019000AC0080ED0E94B20080E00E94B200888135
:1001A0000E94A2000E94B20089810E94A2000E94C7
:1001B000B2008A810E94A2000E94B2008B810E943C
:1001C000A2000E94B2008C810E94A2000E94B20094
:1001D0008D810E94A2000E94B2008E810E94A20026
:1001E0000E94B20080E10E94B20084E986BFDF91E4
:1001F000CF910895CF93DF93EC0182E480B981B170
:1002000081B90E94AC0080ED0E94B20080E00E94A3
:10021000B2000E94AC0081ED0E94B2000E94B900C1
:100220000E94960088830E94B9000E9496008983EC
:100230000E94B9000E9496008A830E94B9000E9421
:1002400096008B830E94B9000E9496008C830E94C6
:10025000B9000E9496008D8384E886BF06B607FE2B
:10026000FDCF83B10E9496008E8384E986BFDF9123
:10027000CF9108951F920F920FB60F9211242F93D2
:100280003F934F935F936F937F938F939F93AF931E
:10029000BF93EF93FF93F894809188008F5F8093D2
:1002A00088008C3338F0809189008F5F80938900BB
:1002B00010928800809189008C3338F080918A00F8
:1002C0008F5F80938A001092890080918A00883124
:1002D00030F0109288001092890010928A0080916C
:1002E0008800811112C08091890081110EC0809117
:1002F0008A0081110AC080919300813031F488E82E
:1003000090E00E94FA001092930080918800811181
:100310000AC080918900813031F490918A00911156
:1003200002C0809393007894FF91EF91BF91AF91B9
:100330009F918F917F916F915F914F913F912F91FD
:100340000F900FBE0F901F9018951F920F920FB62F
:100350000F9211242F938F939F93F89426E686EEA5
:1003600090E0215080409040E1F7829936C0809122
:100370009200811108C08091F7058F5F8C33D0F017
:100380001092F7051FC0813041F48091F8058F5F0E
:100390008C33B0F01092F80515C0823071F4809162
:1003A000F9058F5F883118F48093F9050BC010921E
:1003B000F90508C08093F70505C0833071F002C0CD
:1003C0008093F80581E08BBB26E686EE90E0215015
:1003D00080409040E1F71BBA78949F918F912F91C4
:1003E0000F900FBE0F901F9018951F920F920FB68F
:1003F0000F9211242F938F939F93F89426E686EE05
:1004000090E0215080409040E1F7839932C0809184
:100410009200811107C08091F70581508C33B0F0B4
:100420008BE314C0813039F48091F80581508C330E
:1004300098F08BE311C0823061F48091F90581500E
:10044000883108F087E18093F90508C08093F705AB
:1004500005C0833071F002C08093F80581E08BBB4A
:1004600026E686EE90E0215080409040E1F71BBAEE
:1004700078949F918F912F910F900FBE0F901F90A6
:1004800018951F920F920FB60F9211242F933F933E
:100490004F935F936F937F938F939F93AF93BF938C
:1004A000EF93FF93F8942FEF8FE392E02150804079
:1004B0009040E1F700C00000B29934C080919200F2
:1004C0008F5F843018F48093920002C010929200E3
:1004D0008091920081110BC0E8E8F0E0A7EFB5E051
:1004E00081918D9320E0EF38F207D1F710C083306F
:1004F00071F4E7EFF5E0A8E8B0E081918D9385E035
:10050000EE3FF807D1F788E890E00E94C00081E054
:100510008BBB96E626EE80E0915020408040E1F7CC
:100520001BBA7894FF91EF91BF91AF919F918F91FA
:100530007F916F915F914F913F912F910F900FBEDF
:100540000F901F90189578948BB7806E8BBF85B7EE
:100550008A6085BF84B784BF8FEF8ABB1BBA8EE3E6
:1005600098E39BBD8ABD8FB58FBD8EB58D608EBD66
:1005700089B7806189BF8CB78CBF83B7896683BF19
:10058000BB9A0C946C08CF92EF920F931F93CF936A
:10059000DF93EC01909192008A819230F9F48A30D5
:1005A00070F485E0C82EE12C00E02091910047E036
:1005B00056E068E076E084E990E00E943B09109103
:1005C00091008A814AE050E06EEF75E090E00E9471
:1005D000D50D05E0C02EE12C00E022C08A3080F469
:1005E000B5E0CB2EE0908F0000919000209191001B
:1005F00047E056E068E076E084E990E00E943B093D
:10060000E0908F0000919000109191008A814AE063
:1006100050E06EEF75E090E00E94D50DA5E0CA2E87
:10062000212F47E056E068E076E00E943B09F5E0C4
:10063000CF2EE0908F00009190002091910047E034
:1006400056E068E076E086E990E00E943B099091F0
:10065000920089819130E9F48A3060F4E12C00E065
:100660002091910047E056E068E076E084E990E070
:100670000E943B091091910089814AE050E06EEFA1
:1006800075E090E00E94D50DE5E0CE2EE12C00E073
:1006900022C08A3080F475E0C72EE0908F00009170
:1006A00090002091910047E056E068E076E084E910
:1006B00090E00E943B09E0908F0000919000109123
:1006C000910089814AE050E06EEF75E090E00E9471
:1006D000D50D65E0C62E212F47E056E068E076E0B4
:1006E0000E943B0955E0C52EE0908F0000919000DC
:1006F0002091910047E056E068E076E086E990E0DE
:100700000E943B0990919200888191111DC08A300E
:1007100060F4E12C00E02091910047E056E068E0B1
:1007200076E084E990E00E943B0910919100888175
:100730004AE050E06EEF75E090E00E94D50D45E094
:10074000C42EE12C00E022C08A3080F435E0C32EB4
:10075000E0908F00009190002091910047E056E0DA
:1007600068E076E084E990E00E943B09E0908F0029
:10077000009190001091910088814AE050E06EEF66
:1007800075E090E00E94D50D25E0C22E212F47E0B4
:1007900056E068E076E00E943B09DF91CF911F911F
:1007A0000F91EF90CF900895AF92BF92CF92EF92BA
:1007B0000F931F93CF93DF93C0E8D0E050E6A52EB0
:1007C00050E0B52E88818A3080F443E0C42EE0905A
:1007D0008F00009190002091910047E056E068E082
:1007E00076E084E990E00E943B09E0908F00009160
:1007F00090001091910088814AE050E06EEF75E022
:1008000090E00E94D50D33E0C32E212F47E056E043
:1008100068E076E00E943B09E0908F000091900034
:100820002091910047E056E068E076E086E990E0AC
:100830000E943B0989818A3070F4E0908F0000911A
:1008400090002091910047E056E068E076E084E96E
:1008500090E00E943B09E0908F0000919000109181
:10086000910089814AE050E06EEF75E090E00E94CF
:10087000D50D23E0C22E212F47E056E068E076E058
:100880000E943B09E0908F00009190002091910020
:1008900047E056E068E076E08FE990E00E943B098F
:1008A000E0908F00009190002091910047E056E089
:1008B00068E076E0C5010E943B091092080680912D
:1008C00007069AE1980F90930706229698E0A90EE2
:1008D000B11C90E0C838D90709F074CF809307069F
:1008E000DF91CF911F910F91EF90CF90BF90AF907C
:1008F0000895EF92FF920F931F93CF93DF93FB0125
:100900008A01EB012AE0E22EF12C9E012E1B3F0B07
:10091000009739F0B7010E94A70D805D8993CB0144
:10092000F4CFDF01A20FB31F80E32017310724F4B7
:100930002F5F3F4F8D93F9CFC9010197AF01420F50
:10094000531FEA01DF01BD016E1B7F0B681779079A
:1009500034F46C917A917D9368830197F4CFFA0116
:100960001082C901DF91CF911F910F91FF90EF90FD
:1009700008952F923F924F925F926F927F928F9243
:100980009F92AF92BF92CF92DF92EF92FF920F931E
:100990001F93CF93DF934B015C01EA0189010E9411
:1009A000C10A6B017C0140E050E0BE01C6010E941B
:1009B00079041C010115110599F1FE01E80FF91FD9
:1009C0008EE28083B801012E000C880B990B0E94E7
:1009D000F90A9B01AC0160E070E080E291E40E94C2
:1009E000160C2B013C01B601DD0C880B990B0E9403
:1009F000F90A9B01AC01C501B4010E94DD092FEF8A
:100A0000221A320A2C0E3D1EA30192010E94A90B4C
:100A10000E94C10ADC01CB01A801B1010E94790446
:100A2000CE01DF91CF911F910F91FF90EF90DF905A
:100A3000CF90BF90AF909F908F907F906F905F907E
:100A40004F903F902F9008952FEF8FE794E0215023
:100A500080409040E1F700C000000E94A30240E007
:100A600060E080E00E94F60888E890E00E94FA00CA
:100A7000E8E28E2EF5E5BF2EA2E8AA2E99249A94DC
:100A8000909188002091F20580919200921302C00B
:100A90008330B1F39093F205109208061092070686
:100AA000833019F488E890E002C087EF95E00E9457
:100AB000C30210920806809207068091920083304C
:100AC00009F043C16091890070E080E090E00E94ED
:100AD000F70A20E030E040E752E40E944F0A6B0141
:100AE0007C0160918A0070E080E090E00E94F70A4B
:100AF0009B01AC01C701B6010E94DE096B017C01BC
:100B00006091880070E080E090E00E94F70A20E0A9
:100B100030E041E655E40E944F0A9B01AC01C70159
:100B2000B6010E94DE096B017C016093F3057093AE
:100B3000F4058093F5059093F605C0E8D0E002EE49
:100B400015E0698170E080E090E00E94F70A20E003
:100B500030E040E752E40E944F0A2B013C016881DB
:100B600070E080E090E00E94F70A9B01AC01C301B5
:100B7000B2010E94DE09F801619371938193919310
:100B80008F012296F0E0C838DF07D9F62091E20500
:100B90003091E3054091E4055091E505C701B601A8
:100BA0000E944A0A87FF0DC075E0C72EE0908F00B3
:100BB000009190002091910047E056E068E076E0D7
:100BC000BFC02091E6053091E7054091E8055091BE
:100BD000E905C701B6010E944A0A87FF39C065E0EE
:100BE000C62EE0908F00009190002091910047E088
:100BF00056E068E076E080E690E00E943B09C09015
:100C0000E205D090E305E090E405F090E505A7014A
:100C100096016091F3057091F4058091F50590912E
:100C2000F6050E94DD092B013C01A70196016091A8
:100C3000E6057091E7058091E8059091E9050E942D
:100C4000DD099B01AC01C301B2010E944F0A6EC0D5
:100C50002091EA053091EB054091EC055091ED05AE
:100C6000C701B6010E944A0A87FF12C055E0C52E8F
:100C7000E0908F00009190002091910047E056E0B5
:100C800068E076E088E690E00E943B099CBE5DC08B
:100C90002091EE053091EF054091F0055091F1055E
:100CA000C701B6010E944A0A45E0C42EE0908F00B9
:100CB000009190002091910047E056E068E076E0D6
:100CC00087FF3EC080E790E00E943B09C090EA05A4
:100CD000D090EB05E090EC05F090ED05A7019601B2
:100CE0006091F3057091F4058091F5059091F605FA
:100CF0000E94DD092B013C01A70196016091EE05E0
:100D00007091EF058091F0059091F1050E94DD0949
:100D10009B01AC01C301B2010E944F0A9B01AC01CF
:100D200060E070E080E89FE30E94DD0920E030E0B1
:100D30004FE753E40E94A90B0E94C80A6CBF05C08C
:100D400088E790E00E943B091CBE10920806B09212
:100D5000070680919200833009F076C0E0908F0002
:100D600000919000C09191008CB74AE050E06EEF86
:100D700075E090E00E94D50D33E0C32E2C2F47E0A4
:100D800056E068E076E00E943B09E0908F00009119
:100D900090002091910047E056E068E076E088E915
:100DA00090E00E943B096CB770E080E090E00E9408
:100DB000F70A23E333E343E250E40E944F0A20E0C2
:100DC00030E040E251E40E944A0A87FF0EC0E09002
:100DD0008F00009190002091910047E056E068E07C
:100DE00076E084E990E00E943B09E0908F0000915A
:100DF0009000C09191006CB770E080E090E00E949C
:100E0000F70A23E333E343E250E40E944F0A22E06F
:100E100030E04EEF55E00E94B90423E0C22E2C2FA3
:100E200047E056E068E076E00E943B09E0908F00E2
:100E3000009190002091910047E056E068E076E054
:100E40008DE990E00E943B0910920806A0920706E7
:100E500080919200833009F013CE0E94D40310CE0B
:100E6000CF92DF92EF92FF920F931F93CF93DF9376
:100E7000C8E8D0E01881698170E080E090E00E94CD
:100E8000F70A20E030E040E752E40E944F0A6B018D
:100E90007C01612F70E080E090E00E94F70A9B01E6
:100EA000AC01C701B6010E94DE096B017C016A81B9
:100EB00070E080E090E00E94F70A20E030E041E638
:100EC00055E40E944F0A9B01AC01C701B6010E9484
:100ED000DE096093F3057093F4058093F505909314
:100EE000F6051093F20502EE15E0C0E8D0E0698146
:100EF00070E080E090E00E94F70A20E030E040E7F8
:100F000052E40E944F0A6B017C01688170E080E02E
:100F100090E00E94F70A9B01AC01C701B6010E9454
:100F2000DE09F80160837183828393836B8170E0B3
:100F300080E090E00E94F70A20E030E040E752E4D1
:100F40000E944F0A6B017C016A8170E080E090E0B2
:100F50000E94F70A9B01AC01C701B6010E94DE099D
:100F6000F80164837583868397836D8170E080E0E8
:100F700090E00E94F70A20E030E040E752E40E944F
:100F80004F0A6B017C016C8170E080E090E00E9470
:100F9000F70A9B01AC01C701B6010E94DE09F80106
:100FA00060877187828793876F8170E080E090E02F
:100FB0000E94F70A20E030E040E752E40E944F0A26
:100FC0006B017C016E8170E080E090E00E94F70A86
:100FD0009B01AC01C701B6010E94DE09F8016487DC
:100FE000758786879787DF91CF911F910F91FF902B
:100FF000EF90DF90CF900895AA9A8FB9779BFECF9C
:101000000895AA988FB9779BFECF0895BF92CF928B
:10101000DF92EF92FF920F931F93CF93DF93813F65
:1010200008F050C0613F08F04DC0D22EC42EF62EFD
:10103000182F8AE20E94010880E00E94FC07812F9D
:101040000E94FC07CE2DD0E0CE01810F911D0197AB
:10105000892F0E94FC07BB24BA94BE0C812F8B0DF4
:101060000E94FC078BE20E94010880E00E94FC07BE
:101070008F2D0E94FC07CF0DD11D21978D2F0E942F
:10108000FC078F2D8B0D0E94FC078CE20E9401084B
:10109000EE9C70011124CC0CCC0C1D2D110F110FE6
:1010A000000F000FC0E0D0E0CE15DF0559F08C2D09
:1010B0000E94FC07812F0E94FC07802F0E94FC07E2
:1010C0002196F2CFDF91CF911F910F91FF90EF907A
:1010D000DF90CF90BF90089587B3806B87BB88B3B4
:1010E000806F88BB8CE58DB981E08EB9A39AAB9AED
:1010F000A29AAA9AAB9A87E893E10197F1F700C008
:101100000000AB9881EE94E00197F1F700C0000079
:10111000AB9A87E893E10197F1F700C0000081E006
:101120000E94010883EC99E00197F1F700C00000EC
:1011300081E10E94010883EC99E00197F1F700C07A
:1011400000008AE30E94010886E00E94FC0783EC0D
:1011500099E00197F1F700C0000086E30E940108C2
:1011600080E00E94FC0783EC99E00197F1F700C052
:1011700000008AE20E94010880E00E94FC0780E0F3
:101180000E94FC0780E00E94FC0780EF0E94FC07A1
:1011900083EC99E00197F1F700C000008BE20E9418
:1011A000010880E00E94FC0780E00E94FC0780E0CC
:1011B0000E94FC0780EF0E94FC0783EC99E00197F6
:1011C000F1F700C0000081E20E94010883EC99E081
:1011D0000197F1F700C0000089E20E94010883EC4A
:1011E00099E00197F1F700C000000895FF920F9376
:1011F0001F93CF93DF93F82E062F142F8AE20E94BD
:10120000010880E00E94FC0780E00E94FC0780E06B
:101210000E94FC0780EF0E94FC078BE20E940108FD
:1012200080E00E94FC0780E00E94FC0780E00E94B2
:10123000FC0780EF0E94FC078CE20E940108FF0C73
:10124000FF0C000F000F110F110FC0E0D0E08F2D29
:101250000E94FC07802F0E94FC07812F0E94FC0740
:101260002196C11581EED80791F7DF91CF911F919B
:101270000F91FF9008952F923F924F925F926F923D
:101280007F928F929F92AF92BF92CF92DF92EF9216
:10129000FF920F931F93CF93DF93CDB7DEB72797BE
:1012A0000FB6F894DEBF0FBECDBF2C017F836E83D7
:1012B0005A012B830C83ED821C2D2C2C220C220C2A
:1012C000220C312CF201E30DF11DC080CC2009F479
:1012D0005BC026E0C29E60011124812C912CC601C6
:1012E000880D991DFC01EF51F040FA83E983F12C40
:1012F00087E0682E712CE981FA818081282F30E007
:1013000081E090E0062C02C0880F991F0A94E2F752
:1013100082239323F50160816F0DE12E892B21F04B
:101320000D812C814B8103C000E020E040E0EE8184
:10133000FF8180810E940608F1E06F1A7108F10EAA
:101340002FEF62167206B9F6EE81FF818081810F60
:10135000803F30F0EE81FF811082F5018081820DA7
:101360008083F5018081803F28F0EE81FF8110822B
:10137000F5011082FFEF8F1A9F0A26E08216910472
:1013800009F0ADCF33949ECF27960FB6F894DEBF09
:101390000FBECDBFDF91CF911F910F91FF90EF90C6
:1013A000DF90CF90BF90AF909F908F907F906F9085
:1013B0005F904F903F902F9008955058BB27AA27D9
:1013C0000E94F5090C946F0B0E94610B38F00E948B
:1013D000680B20F039F49F3F19F426F40C945E0B4F
:1013E0000EF4E095E7FB0C94580BE92F0E94800B5C
:1013F00058F3BA17620773078407950720F079F44A
:10140000A6F50C94A20B0EF4E0950B2EBA2FA02D8E
:101410000B01B90190010C01CA01A0011124FF27A1
:10142000591B99F0593F50F4503E68F11A16F0409C
:10143000A22F232F342F4427585FF3CF469537959B
:101440002795A795F0405395C9F77EF41F16BA0B60
:10145000620B730B840BBAF09150A1F0FF0FBB1F0E
:10146000661F771F881FC2F70EC0BA0F621F731F57
:10147000841F48F4879577956795B795F7959E3FB4
:1014800008F0B0CF9395880F08F09927EE0F979545
:10149000879508950E94340B08F481E008950E9416
:1014A000630A0C946F0B0E94680B58F00E94610B4A
:1014B00040F029F45F3F29F00C94580B51110C9423
:1014C000A30B0C945E0B0E94800B68F39923B1F37D
:1014D000552391F3951B550BBB27AA27621773075A
:1014E000840738F09F5F5F4F220F331F441FAA1FEE
:1014F000A9F335D00E2E3AF0E0E832D091505040AA
:10150000E695001CCAF72BD0FE2F29D0660F771F57
:10151000881FBB1F261737074807AB07B0E809F03D
:10152000BB0B802DBF01FF2793585F4F3AF09E3FC2
:10153000510578F00C94580B0C94A30B5F3FE4F327
:10154000983ED4F3869577956795B795F7959F5F05
:10155000C9F7880F911D9695879597F90895E1E051
:10156000660F771F881FBB1F621773078407BA07B0
:1015700020F0621B730B840BBA0BEE1F88F7E0950B
:1015800008950E94C80A6894B1110C94A30B0895A1
:101590000E94880B88F09F5798F0B92F9927B75170
:1015A000B0F0E1F0660F771F881F991F1AF0BA9507
:1015B000C9F714C0B13091F00E94A20BB1E00895B8
:1015C0000C94A20B672F782F8827B85F39F0B93FAA
:1015D000CCF3869577956795B395D9F73EF49095BA
:1015E0008095709561957F4F8F4F9F4F0895E89438
:1015F00009C097FB3EF490958095709561957F4F5B
:101600008F4F9F4F9923A9F0F92F96E9BB27939508
:10161000F695879577956795B795F111F8CFFAF418
:10162000BB0F11F460FF1BC06F5F7F4F8F4F9F4F49
:1016300016C0882311F096E911C0772321F09EE8A7
:10164000872F762F05C0662371F096E8862F70E00D
:1016500060E02AF09A95660F771F881FDAF7880FE7
:101660009695879597F90895990F0008550FAA0B3D
:10167000E0E8FEEF16161706E807F907C0F01216A5
:101680001306E407F50798F0621B730B840B950BA8
:1016900039F40A2661F0232B242B252B21F40895FD
:1016A0000A2609F4A140A6958FEF811D811D08959A
:1016B00097F99F6780E870E060E008959FEF80EC05
:1016C000089500240A9416161706180609060895A8
:1016D00000240A9412161306140605060895092E0E
:1016E0000394000C11F4882352F0BB0F40F4BF2B7D
:1016F00011F460FF04C06F5F7F4F8F4F9F4F0895BD
:1017000057FD9058440F551F59F05F3F71F04795B2
:10171000880F97FB991F61F09F3F79F08795089597
:10172000121613061406551FF2CF4695F1DF08C0B6
:10173000161617061806991FF1CF869571056105D3
:1017400008940895E894BB2766277727CB0197F97B
:1017500008950E94BC0B0C946F0B0E94610B38F033
:101760000E94680B20F0952311F00C94580B0C94F8
:101770005E0B11240C94A30B0E94800B70F3959FB9
:10178000C1F3950F50E0551F629FF001729FBB2778
:10179000F00DB11D639FAA27F00DB11DAA1F649F14
:1017A0006627B00DA11D661F829F2227B00DA11DC7
:1017B000621F739FB00DA11D621F839FA00D611D4D
:1017C000221F749F3327A00D611D231F849F600D6E
:1017D000211D822F762F6A2F11249F5750409AF097
:1017E000F1F088234AF0EE0FFF1FBB1F661F771F23
:1017F000881F91505040A9F79E3F510580F00C94EE
:10180000580B0C94A30B5F3FE4F3983ED4F38695FA
:1018100077956795B795F795E7959F5FC1F7FE2B8D
:10182000880F911D9695879597F90895FA01EE0F07
:10183000FF1F309621053105A1F16115710561F495
:101840008038BFE39B0749F168949038810561F0C7
:101850008038BFEF9B0741F099234AF5FF3FE10530
:101860003105210519F1E8940894E795D901AA23D7
:1018700029F4AB2FBE2FF85FD0F310C0FF5F70F4D8
:10188000A695E0F7F73950F019F0FF3A38F49F7752
:101890009F930DD00F9007FC9058089546F00C943C
:1018A0005E0B60E070E080E89FE308954FE79F776C
:1018B0005F934F933F932F930E94110D2F913F9170
:1018C0004F915F910E94A90B0C946E0C29F416F0B5
:1018D0000C94580B0C94A20B0C945E0B0E94880B7A
:1018E000A8F39638A0F707F80F92E8942BE33AEAAA
:1018F00048EB5FE70E94BF0B0F920F920F924DB71C
:101900005EB70F920E94590DE4E5F0E00E94A00C32
:101910004F915F91EF91FF91E595EE1FFF1F49F009
:10192000FE57E0684427EE0F441FFA95E1F7419512
:10193000550B0E94D30C0F9007FE0C94C70C089512
:10194000DF93CF931F930F93FF92EF92DF927B0170
:101950008C01689406C0DA2EEF010E94BC0BFE01D8
:10196000E894A5912591359145915591A6F3EF0104
:101970000E94F509FE019701A801DA9469F7DF904A
:10198000EF90FF900F911F91CF91DF9108959B01F0
:10199000AC0160E070E080E89FE30C944F0A0C9487
:1019A000580B0C948D0D0E94880BD8F39923C9F322
:1019B000940F511DA3F39150504094F059F0882397
:1019C00032F0660F771F881F91505040C1F79E3F3D
:1019D00051052CF7880F911D9695879597F90895D5
:1019E0005F3FACF0983E9CF0BB2786957795679556
:1019F000B79508F4B1609395C1F7BB0F58F711F490
:101A000060FFE8CF6F5F7F4F8F4F9F4FE3CF0C9406
:101A1000A30B16F00C948D0D0C945E0B68940C9433
:101A2000580B0E94880BA8F39923C1F3AEF3DF9300
:101A3000CF931F930F93FF92C92FDD2788232AF09E
:101A40002197660F771F881FDAF720E030E040E823
:101A50005FEB9FE3883920F0803E38F021968F7746
:101A60000E94DE09ECE7F0E004C00E94DE09E9EA2A
:101A7000F0E00E94A00C8B01BE01EC01FB2E6F5721
:101A800071097595771F880B990B0E94F90A28E157
:101A900032E741E35FE30E94BC0BAF2D9801AE013A
:101AA000FF900F911F91CF91DF910E94F5090C9447
:101AB0006F0BFA01DC01AA0FBB1F9B01AC01BF57E2
:101AC00028F4222733274427507820C0B75190F4B8
:101AD000AB2F0024469537952795011CA395D2F38B
:101AE000002071F0220F331F441FB395DAF30ED09C
:101AF0000C94DD0961307105A0E88A07B94630F41D
:101B00009B01AC016627772788279078309621F0D3
:101B1000208331834283538308959F3F31F0915056
:101B200020F4879577956795B795880F911D9695C1
:101B3000879597F90895991B79E004C0991F961726
:101B400008F0961B881F7A95C9F78095089597FB32
:101B5000072E16F4009407D077FD09D00E94BB0D24
:101B600007FC05D03EF4909581959F4F08957095A0
:101B700061957F4F0895AA1BBB1B51E107C0AA1FA7
:101B8000BB1FA617B70710F0A61BB70B881F991F1E
:101B90005A95A9F780959095BC01CD010895EE0F57
:101BA000FF1F0590F491E02D09944532510520F472
:101BB000423010F00C94E00DFB011082CB0108952F
:101BC000BB274A3031F4992322F4BDE290958195E8
:101BD0009F4F0C94EC0DBB27FB015527AA27880FBC
:101BE000991FAA1FA41710F0A41B83955051B9F791
:101BF000A05DAA3308F0A95DA193009779F7B11110
:101C0000B1931192CB010C94050EDC01FC01672FFE
:101C100071917723E1F7329704C07C916D937083C3
:0E1C20006291AE17BF07C8F30895F894FFCF86
:101C2E00D0E0F1F1E2E5F200C4E5EDFC2020200069
:101C3E00C7E0EAE0F2202000CDEEF7FC20202000E5
:101C4E0005000A0011001600000008041705182DE3
:101C5E00373C030130003A00EEF1E22E0025202041
:101C6E000000000000000000FA000000000060000C
:101C7E0060000028FE28FE28002454D6544800C2D6
:101C8E000C106086000C52BA4C120000006000006E
:101C9E0000003844820000008244380000005020CA
:101CAE0050000010107C1010000001020000000017
:101CBE001010100000000002000000020C106080E6
:101CCE00007C8A92A27C000242FE020200468A92A8
:101CDE00926600448292926C0018284888FE00E4B6
:101CEE00A2A2A29C003C5292920C00C0808E90E068
:101CFE00006C9292926C0060929294780000002494
:101D0E00000000000224000000102844820000247D
:101D1E00242424000082442810000040808A906011
:101D2E00003C425A4A3A007E9090907E00FE92927B
:101D3E00926C007C8282824400FE8282827C00FE53
:101D4E009292928200FE90909080007C8282A2BC41
:101D5E0000FE101010FE000082FE8200000402023F
:101D6E0002FC00FE2020508E00FE0202020000FE49
:101D7E00402040FE00FE402010FE007C8282827CCD
:101D8E0000FE90909060007C8282847A00FE90909B
:101D9E00906E00649292924C008080FE808000FCD7
:101DAE00020202FC00F00C020CF000FE040804FE1D
:101DBE0000C6281028C60080403E408000868A92C9
:101DCE00A2C20000FE828200008060100C020000A1
:101DDE008282FE00002040804020000101010101AE
:101DEE0000402000000000042A2A2A1E007E122233
:101DFE00221C001C22222214001C2222127E001CF5
:101E0E002A2A2A1A00207EA0A00000192525253E88
:101E1E0000FE1020201E000020BC02000004020262
:101E2E0002BC0000FE081422000080FC0202003EEC
:101E3E002018201E003E2020201E001C2222221CC4
:101E4E00003F1424241800182424143F003E1020B0
:101E5E00201000122A2A2A24000020FC2200003C16
:101E6E000202023E003804020438003C020E023E1A
:101E7E0000221408142200390505053E0022262AE8
:101E8E0032220000106C8200000000FE00000000F4
:101E9E00826C1000001820100830000000000000B6
:101EAE000000000000000000000000000000000024
:101EBE000000000000000000000000000000000014
:101ECE000000000000000000000000000000000004
:101EDE0000000000000000000000000000000000F4
:101EEE0000000000000000000000000000000000E4
:101EFE0000000000000000000000000000000000D4
:101F0E0000000000000000000000000000000000C3
:101F1E0000000000000000000000000000000000B3
:101F2E0000000000000000000000000000000000A3
:101F3E000000000000000000000000000000000093
:101F4E000000000000000000000000000000000083
:101F5E000000000000000000000000000000000073
:101F6E000000000000000000000000000000000063
:101F7E000000000000000000000000000000000053
:101F8E000000000000000000000000000000000043
:101F9E00003EAA2AAA220000000000000000000055
:101FAE000000000000000000000000000000000023
:101FBE000000000000000000000000000000000013
:101FCE000000000000000000000000000000000003
:101FDE0000000000000000000000000000000000F3
:101FEE0000000000000000000000000000000000E3
:101FFE0000000000000000000000000000000000D3
:10200E0000000000000000000000000000000000C2
:10201E0000000000000000000000000000000000B2
:10202E00007E9090907E00FEA2A2A29C00FE929254
:10203E00926C00FE8080808000031EE282FF00FE14
:10204E009292928200DE20FE20DE004482A2A25CEA
:10205E0000FE040830FE000000000000000000003A
:10206E00000000000000000000000000000000FE64
:10207E00101010FE00000000000000000000000024
:10208E0000FE909090600000000000000000000034
:10209E000000000000000000000000000000000032
:1020AE000000000000000000000000000000000022
:1020BE000000000000000000000000000000000012
:1020CE000000000000000000000000000000000002
:1020DE0000000000000000000000000000000000F2
:1020EE0000042A2A2A1E000000000000003E2A2AB0
:1020FE002A14000000000000000000000000001C78
:10210E002A2A2A1A00000000000000000000000029
:10211E00000000000000000000000000003E080863
:10212E001422000000000000000000000000003E2D
:10213E000808083E001C2222221C0000000000009D
:10214E00000000000000001C222222140020203E6D
:10215E002020000000000000000000000000000031
:10216E000000000000000000000000300808083EDB
:10217E000000000000000000000000000000000051
:10218E000000000000000000003E0A0A0A040000E1
:10219E000000000000000000000000000000000031
:0221AE0000002F
:00000001FF
