S01600004C45445F636F6E74726F6C6C65722E7372656396
S11300000C948E000C9481050C94B6000C94B600EC
S11300100C94B6000C94B6000C94B6000C94CB056A
S11300200C94B6000C94B6000C94B6000C94B60074
S11300300C94B6000C94B6000C94B6000C94B60064
S11300400C94B6000C94B6000C94B6000C94B60054
S11300500C94B600790187019501A301E0010B021C
S113006048027302B002DB02F00210031C032803EF
S11300703403470365039A03C103F6031D045204C2
S1130080F6045A055A055A0501050A0513051C0507
S113009025052E053705400507634236B79BD8A7CB
S11300A01A39685618AEBAAB558C1D3CB7CC576399
S11300B0BD6DEDFD753EF6177231BF000000803F47
S11300C008000000BE922449123EABAAAA2ABECD63
S11300D0CCCC4C3E00000080BEABAAAAAA3E0000D5
S11300E00000BF000000803F0000000000084178CD
S11300F0D3BB4387D1133D190E3CC3BD4282AD2B04
S11301003E68EC8276BED98FE1A93E4C80EFFFBEFB
S113011001C4FF7F3F0000000000830D11241FBEB7
S1130120CFE5D8E0DEBFCDBF15E0A0E6B0E0E2E564
S1130130F9E202C005900D92A43FB107D9F726E079
S1130140A4EFB5E001C01D92AA31B207E1F710E0B7
S1130150CEE8D0E004C02197FE010E948A10CD3879
S1130160D107C9F70E94F6060C94A7140C9400005A
S113017082E480B981B181B9089584EA86BF06B664
S113018007FEFDCF81B1089583B984E886BF06B622
S113019007FEFDCF81B1089584EC86BF06B607FE45
S11301A0FDCF81B183B1089584E886BF06B607FE0A
S11301B0FDCF81B183B10895982F96959695969524
S11301C09E71292F220F220F920F8F70890F08958D
S11301D06AE00E946A10292F30E1839FC001112434
S11301E0822B0895CF93DF93EC010E94B8000E9404
S11301F0BD0080ED0E94C40080E00E94C40088819C
S11302000E94E8000E94C40089810E94E8000E94C4
S1130210C4008A810E94E8000E94C4008B810E946D
S1130220E8000E94C4008C810E94E8000E94C4007F
S11302308D810E94E8000E94C4008E810E94E80023
S11302400E94C40080E10E94C40084E986BFDF915B
S1130250CF910895CF93DF93EC010E94B8000E94E0
S1130260BD0080ED0E94C40080E00E94C4000E9492
S1130270BD0081ED0E94C4000E94CC000E94DC00FD
S113028088830E94CC000E94DC0089830E94CC00F9
S11302900E94DC008A830E94CC000E94DC008B83D5
S11302A00E94CC000E94DC008C830E94CC000E943F
S11302B0DC008D830E94D4000E94DC008E8384E9DC
S11302C086BFDF91CF91089580910C06813009F0AB
S11302D092C110920C06E0910B068E2F90E0FC0167
S11302E03197EB30F10508F0E5C3E65DFF4F0C9460
S11302F08A10809108068F5F8C3318F48093080667
S113030002C01092080681E08093790074C1809144
S113031009068F5F8C3318F48093090602C010928B
S1130320090681E08093780066C180910A068F5F98
S1130330883118F480930A0602C010920A0681E0FC
S11303408093770058C12091600080916200909161
S11303506300422F50E04F5F5F4F3CE3349FB00196
S1130360359F700D112430916100630F711D492F69
S113037050E03CE3839F400D511D11246417750721
S113038024F42F5F2093600010C08093600091508C
S1130390909361009C3330F08150809360008BE334
S11303A08093610081E080937500809160008831C2
S11303B018F087E18093600081E0809376001BC190
S11303C0809160004091610050916200242F30E0E0
S11303D06CE3869F200D311D11242F5F3F4F8091C8
S11303E0630090E06CE3569F800D911D1124281743
S11303F039071CF44F5F40936100809161008C3396
S113040030F08BE38093610081E08093760081E09B
S113041080937500F0C020916200809164009091F7
S11304206500422F50E04F5F5F4F3CE3349FB001C3
S1130430359F700D112430916300630F711D492F96
S113044050E03CE3839F400D511D11246417750750
S113045024F42F5F2093620010C0809362009150B7
S1130460909363009C3330F08150809362008BE35F
S11304708093630081E080937300809162008831EF
S113048018F087E18093620081E080937400B3C028
S1130490809162004091630050916400242F30E009
S11304A06CE3869F200D311D11242F5F3F4F8091F7
S11304B0650090E06CE3569F800D911D1124281770
S11304C039071CF44F5F40936300809163008C33C1
S11304D030F08BE38093630081E08093740081E0CB
S11304E08093730088C0209164008091660090918D
S11304F06700422F50E04F5F5F4F3CE3349FB001F1
S1130500359F700D112430916500630F711D492FC3
S113051050E03CE3839F400D511D1124641775077F
S113052024F42F5F2093640010C0809364009150E2
S1130530909365009C3330F08150809364008BE38A
S11305408093650081E0809371008091640088311C
S113055018F087E18093640081E0809372004BC0BF
S1130560809164004091650050916600242F30E032
S11305706CE3869F200D311D11242F5F3F4F809126
S1130580670090E06CE3569F800D911D112428179D
S113059039071CF44F5F40936500809165008C33EC
S11305A030F08BE38093650081E08093720081E0FA
S11305B08093710020C0809166008F5F883118F4A9
S11305C08093660009C087E1809366008BE3809383
S11305D0670081E080936F0081E0809370000BC01E
S11305E0809167008F5F8C3308F08BE38093670002
S11305F081E080936F0080910C06823009F078C10D
S113060010920C06E0910B068E2F90E0FC013197BE
S1130610EB30F10508F04EC2EB5CFF4F0C948A10EE
S11306208091080681508C3308F08BE38093080690
S113063081E0809379005CC18091090681508C33FC
S113064008F08BE38093090681E08093780050C121
S113065080910A068150883108F087E180930A0668
S113066081E08093770044C180916000815088319B
S113067018F48093600007C010926000109261002B
S113068081E08093750081E08093760031C1809190
S11306906100882319F0815080936100809161008A
S11306A08C3378F08BE38093610080916000882321
S11306B041F01092610081508093600081E080934A
S11306C0760081E08093750013C1209162008091CF
S11306D0600090916100422F50E0415051093CE389
S11306E0349FB001359F700D112430916300630F66
S11306F0711D492F50E03CE3839F400D511D11248F
S11307004617570724F42150209362000FC08093AA
S113071062009F5F909363009C3328F08F5F809307
S113072062001092630081E08093730081E0809303
S11307307400DEC0809162004091630050916000BB
S1130740242F30E06CE3869F200D311D11242150AD
S113075031098091610090E06CE3569F800D911DFA
S11307601124821793071CF4415040936300809135
S113077063008C3310F01092630081E08093730067
S1130780B7C0209164008091620090916300422F71
S113079050E0415051093CE3349FB001359F700D46
S11307A0112430916500630F711D492F50E03CE323
S11307B0839F400D511D11244617570724F42150DF
S11307C0209364000FC0809364009F5F9093650042
S11307D09C3328F08F5F809364001092650081E061
S11307E08093710081E08093720082C080916400E4
S11307F04091650050916200242F30E06CE3869FA5
S1130800200D311D1124215031098091630090E0A5
S11308106CE3569F800D911D1124821793071CF4DD
S1130820415040936500809165008C3310F0109224
S1130830650081E0809371005BC020916600809127
S1130840640090916500422F50E0415051093CE30F
S1130850349FB001359F700D112430916700630FF0
S1130860711D492F50E03CE3839F400D511D11241D
S11308704617570724F42150209366000FC0809335
S113088066009F5F909367009C3328F08F5F80938E
S113089066001092670081E080936F0081E080938E
S11308A0700026C0809166004091670050916400FA
S11308B0242F30E06CE3869F200D311D112421503C
S11308C031098091650090E06CE3569F800D911D85
S11308D01124821793071CF44150409367008091C0
S11308E067008C3310F01092670081E080936F00F2
S11308F090910C06933009F060C080910B062CEFA8
S1130900280F283008F4D8C010920C06813009F45E
S113091047C080F1823009F449C0833009F0CAC06D
S113092010920B0681E080930D06809376008093ED
S1130930740080937200809370008093750080939C
S113094073008093710080936F0080937A0080938A
S11309507B0080910806809368008091090680934B
S1130960690080910A0680936A0088E690E00E94FC
S1130970F20023C081E080930B068093790080937A
S11309800E0680937A008091680080930806809117
S113099069008093090680916A0080930A060DC05D
S11309A092E090930B068093780005C090930B0619
S11309B081E08093770080930E0680910C0684304A
S11309C009F07AC0E0910B068FEF8E0F833008F4A4
S11309D073C010920C068E2F90E08C30910508F0B5
S11309E069C0FC01E05CFF4F0C948A1084E08093A2
S11309F00B0681E080930D068093760080937A0045
S1130A00089585E080930B0681E080930D06809322
S1130A107500089586E080930B0681E080930D06AF
S1130A2080937400089587E080930B0681E080939F
S1130A300D0680937300089588E080930B0681E08F
S1130A4080930D0680937200089589E080930B06CD
S1130A5081E080930D068093710008958AE080936D
S1130A600B0681E080930D068093700008958BE05F
S1130A7080930B0681E080930D0680936F000895A8
S1130A8010920B0681E080930D068093760080938C
S1130A90740080937200809370008093750080933B
S1130AA073008093710080936F0080937A00809329
S1130AB07B00089510920B0608958CB78CBF83B702
S1130AC0896683BFBB9A789408958EE398E39BBDAF
S1130AD08ABD8FB58FBD8EB58D608EBD89B780619F
S1130AE089BF789408958BB780648BBF85B78A607B
S1130AF085BF84B784BF789408958FEF8BBB1ABAEF
S1130B0008951F920F920FB60F9211242F938F9373
S1130B109F93EF93FF93F8942FEF8FE392E021508C
S1130B2080409040E1F700C000008BE099B39E3F05
S1130B3091F099B39D3F79F099B39B3F61F099B3DC
S1130B40973F49F0EFEFF7E43197F1F700C0000069
S1130B50815061F716C089B38B3F49F483E003C029
S1130B608E3F79F481E080930C0678940AC08C3F20
S1130B7020F4873F31F484E0F6CF8D3F89F782E09B
S1130B80F2CFFF91EF919F918F912F910F900FBE14
S1130B900F901F9018951F920F920FB60F92112469
S1130BA02F933F934F935F936F937F938F939F9371
S1130BB0AF93BF93EF93FF93F894809168008F5F96
S1130BC08093680090910B069150933030F091E03F
S1130BD0909379008C3370F425C08C3318F1109203
S1130BE06800809169008F5F809369008C3308F0FE
S1130BF04AC01CC010926800809169008F5F809386
S1130C006900909378008C3368F0109269008091A9
S1130C106A008F5F80936A0090937700883110F0A8
S1130C2010926A008091680081110EC08091690061
S1130C3081110AC080917C00882331F010927C00DD
S1130C4088E690E00E942A0180916800811106C024
S1130C5080916900813011F480937C0081E080935D
S1130C607A007894FF91EF91BF91AF919F918F910A
S1130C707F916F915F914F913F912F910F900FBE94
S1130C800F901F9018951092690080916A008F5FF1
S1130C9080936A00C3CFEF92FF920F931F93CF9379
S1130CA0DF93FB018A01EB012AE0E22EF12C9E0185
S1130CB02E1B3F0B009739F0B7010E947610805D20
S1130CC08993CB01F4CFDF01A20FB31F80E3201778
S1130CD0310724F42F5F3F4F8D93F9CFC90101975A
S1130CE0AF01420F531FEA01DF01BD016E1B7F0BF1
S1130CF06817790734F46C917A917D93688301972E
S1130D00F4CFFA011082C901DF91CF911F910F91A5
S1130D10FF90EF9008952F923F924F925F926F92BF
S1130D207F928F929F92AF92BF92CF92DF92EF9277
S1130D30FF920F931F93CF93DF934B015C01EA0162
S1130D4089010E9488116B017C0140E050E0BE01E2
S1130D50C6010E944B061C010115110599F1FE0103
S1130D60E80FF91F8EE28083B801012E000C880B76
S1130D70990B0E94C0119B01AC0160E070E080E21D
S1130D8091E40E94E2122B013C01B601DD0C880BB8
S1130D90990B0E94C0119B01AC01C501B4010E94D2
S1130DA0A4102FEF221A320A2C0E3D1EA301920129
S1130DB00E9475120E948811DC01CB01A801B101C7
S1130DC00E944B06CE01DF91CF911F910F91FF90AE
S1130DD0EF90DF90CF90BF90AF909F908F907F90D7
S1130DE06F905F904F903F902F9008952FEF8FEF6B
S1130DF098E0215080409040E1F700C000000E943C
S1130E0073050E947D050E945D050E94650588E6C4
S1130E1090E00E942A010E94D20E0E94E00E60918E
S1130E20AE007091AF008091B0000E946E0F60E040
S1130E3080E00E945C0F6090B1007090B2008090DE
S1130E40B3000E94640190910B0680917A0099236B
S1130E5031F0882309F477C110927A0074C1882391
S1130E6009F471C110927A006091690070E080E029
S1130E7090E00E94BE1120E030E040E752E40E947E
S1130E8016116B017C0160916A0070E080E090E0D3
S1130E900E94BE119B01AC01C701B6010E94A510BE
S1130EA06B017C016091680070E080E090E00E943A
S1130EB0BE1120E030E041E655E40E9416119B018A
S1130EC0AC01C701B6010E94A5106093040670939B
S1130ED005068093060690930706C0E6D0E004EF6B
S1130EE015E0698170E080E090E00E94BE1120E08E
S1130EF030E040E752E40E9416116B017C016881E6
S1130F0070E080E090E00E94BE119B01AC01C7013B
S1130F10B6010E94A510F801619371938193919396
S1130F208F01229688E690E08C179D07D1F668E23F
S1130F3080E00E945C0FC0900406D0900506E0900B
S1130F400606F0900706A70196016091F4057091DA
S1130F50F5058091F6059091F7050E947012181618
S1130F6024F425E0682DA301A5C02091F805309153
S1130F70F9054091FA055091FB05C701B6010E949D
S1130F80111187FF30C025E0682DA3018BE890E0A4
S1130F900E9457102090F4053090F5054090F60516
S1130FA05090F705A2019101609104067091050625
S1130FB080910606909107060E94A4106B017C01A3
S1130FC0A20191016091F8057091F9058091FA05EB
S1130FD09091FB050E94A4109B01AC01C701B601CE
S1130FE00E9416115DC02091FC053091FD054091D1
S1130FF0FE055091FF05C701B6010E94111187FF3C
S11310000AC025E0682DA30184E990E00E945710EE
S11310109FEF9CBF54C0209100063091010640917F
S1131020020650910306C701B6010E94111125E082
S1131030682DA30187FF3EC08DE990E00E94571000
S1131040C090FC05D090FD05E090FE05F090FF05F2
S1131050A701960160910406709105068091060629
S1131060909107060E94A4101B012C01A701960170
S1131070609100067091010680910206909103062A
S11310800E94A4109B01AC01C201B1010E9416117F
S11310909B01AC0160E070E080E89FE30E94A41033
S11310A020E030E04FE753E40E9475120E948F1154
S11310B06CBF05C086EA90E00E9457101CBE6AE52A
S11310C080E00E945C0F23E0682DA3018DE790E08F
S11310D00E9457106CB770E080E090E00E94BE114F
S11310E023E333E343E250E40E94161120E030E0AE
S11310F040E251E40E94111187FF07C023E0682DEC
S1131100A30182E890E00E9457106CB770E080E081
S113111090E00E94BE1123E333E343E250E40E94D3
S1131120161122E030E04FE056E00E948B0623E0E7
S1131130682DA3010E94571023E0682DA30184E8C1
S113114090E00E94571090910B0680917B009923A8
S113115031F0882309F4A2C010927B009FC0882339
S113116009F4A0C010927B0060E08CE30E945C0F45
S113117025E0682DA30188E890E00E94571060E004
S113118086E90E945C0F25E0682DA30188E890E0C1
S11311900E9457100BE610E0C0E060E08C2F0E9424
S11311A05C0FF80182918F018A3038F425E0682DB4
S11311B0A30182E890E00E945710F80180814AE080
S11311C050E06FE076E090E00E94671425E0682D1F
S11311D0A3010E945710C65ACE30F9F6C8E86C2F06
S11311E084E20E945C0F23E0682DA30188E890E06C
S11311F00E945710C65EC03F91F780E6E82E80E05B
S1131200F82E98E8992EC0E0D0E08701512C692D82
S1131210852D0E945C0F5801F80180818A3038F4D2
S113122023E0682DA30182E890E00E9457100F5F2D
S11312301F4FF50180814AE050E06FE076E090E0D6
S11312400E94671423E0682DA3010E945710F6E35F
S11312505F0E2CE65212DBCF23E0682DA301C230CF
S1131260D10561F0C330D10561F0C130D10519F069
S11312708AE890E008C083E990E005C08CE990E03A
S113128002C085EA90E00E945710219682E0E80EA1
S1131290F11C9AE1990EE0EF9E12B7CF80910B06F4
S11312A0813029F180917900882309F44AC0109291
S11312B0790060E084EB0E945C0F809168008A30C2
S11312C038F425E0682DA30182E890E00E945710CD
S11312D0809168004AE050E06FE076E090E00E9480
S11312E0671425E0682DA3010E9457102AC080913D
S11312F07900882351F11092790060E084EB0E9418
S11313005C0F809108068A3040F425E04FE150E0FC
S113131060E082E890E00E945710809108064AE05D
S113132050E06FE076E090E00E94671425E04FE122
S113133050E060E00E94571080910E0681111092D7
S11313400E0680910B068230C9F0809178008823C4
S113135009F45DC01092780060E08AE50E945C0F99
S1131360809169008A3038F425E0682DA30182E871
S113137090E00E945710809169003DC080917800F0
S1131380882309F448C01092780060E08AE50E943E
S11313905C0F809109068A3040F425E04FE150E06B
S11313A060E082E890E00E945710809109064AE0CC
S11313B050E06FE076E090E00E94671425E04FE192
S11313C050E060E00E94571080910E068823F9F0E7
S11313D010920E0660E084EB0E945C0F8091080678
S11313E08A3038F425E0682DA30182E890E00E9459
S11313F05710809108064AE050E06FE076E090E0F4
S11314000E94671425E0682DA3010E945710809163
S11314100B068330C9F080917700882309F45DC0FE
S11314201092770060E080E00E945C0F80916A0077
S11314308A3038F425E0682DA30182E890E00E9408
S1131440571080916A003DC080917700882309F489
S113145048C01092770060E080E00E945C0F8091A9
S11314600A068A3040F425E04FE150E060E082E86B
S113147090E00E94571080910A064AE050E06FE025
S113148076E090E00E94671425E04FE150E060E0D0
S11314900E94571080910E068823F9F010920E06D0
S11314A060E08AE50E945C0F809109068A3038F476
S11314B025E0682DA30182E890E00E9457108091F6
S11314C009064AE050E06FE076E090E00E9467147D
S11314D025E0682DA3010E94571080910B068430EB
S11314E019F180917600882309F443C010927600A4
S11314F068E880E00E945C0F809160008A3038F4D4
S113150023E0682DA30182E890E00E9457108091A7
S113151060004AE050E06FE076E090E00E946714DB
S113152023E0682DA30123C080917600882309F16C
S11315301092760068E880E00E945C0F8091600061
S11315408A3040F423E04FE150E060E082E890E02C
S11315500E945710809160004AE050E06FE076E00E
S113156090E00E94671423E04FE150E060E00E94A5
S1131570571090910B06809175009530B9F088232F
S113158009F45BC01092750068E886E30E945C0F62
S1131590809161008A3038F423E0682DA30182E849
S11315A090E00E945710809161003BC0882309F4A9
S11315B048C01092750068E886E30E945C0F809131
S11315C061008A3040F423E04FE150E060E082E8BB
S11315D090E00E945710809161004AE050E06FE073
S11315E076E090E00E94671423E04FE150E060E071
S11315F00E94571080910D068823F9F010920D0671
S113160068E880E00E945C0F809160008A3038F4C2
S113161023E0682DA30182E890E00E945710809196
S113162060004AE050E06FE076E090E00E946714CA
S113163023E0682DA3010E94571080910B06863089
S1131640C9F080917400882309F45DC0109274007D
S113165062EA80E00E945C0F809162008A3038F474
S113166023E0682DA30182E890E00E945710809146
S113167062003DC080917400882309F448C0109230
S1131680740062EA80E00E945C0F809162008A30FC
S113169040F423E04FE150E060E082E890E00E94F3
S11316A05710809162004AE050E06FE076E090E0ED
S11316B00E94671423E04FE150E060E00E9457105D
S11316C080910D068823F9F010920D0668E886E3F0
S11316D00E945C0F809161008A3038F423E0682D09
S11316E0A30182E890E00E945710809161004AE0D3
S11316F050E06FE076E090E00E94671423E0682DEC
S1131700A3010E94571080910B068730C9F0809185
S11317107300882309F45DC01092730062EA86E3C3
S11317200E945C0F809163008A3038F423E0682DB6
S1131730A30182E890E00E945710809163003DC0AD
S113174080917300882309F448C01092730062EA00
S113175086E30E945C0F809163008A3040F423E0AA
S11317604FE150E060E082E890E00E9457108091E1
S113177063004AE050E06FE076E090E00E94671476
S113178023E04FE150E060E00E94571080910D0685
S11317908823F9F010920D0662EA80E00E945C0F43
S11317A0809162008A3038F423E0682DA30182E836
S11317B090E00E945710809162004AE050E06FE090
S11317C076E090E00E94671423E0682DA3010E9454
S11317D0571080910B068830C9F0809172008823DD
S11317E009F45DC0109272006CEB80E00E945C0F03
S11317F0809164008A3038F423E0682DA30182E8E4
S113180090E00E945710809164003DC08091720066
S1131810882309F448C0109272006CEB80E00E94A7
S11318205C0F809164008A3040F423E04FE150E083
S113183060E082E890E00E945710809164004AE0E2
S113184050E06FE076E090E00E94671423E04FE1FF
S113185050E060E00E94571080910D068823F9F053
S113186010920D0662EA86E30E945C0F8091630089
S11318708A3038F423E0682DA30182E890E00E94C6
S11318805710809163004AE050E06FE076E090E00A
S11318900E94671423E0682DA3010E9457108091D1
S11318A00B068930C9F080917100882309F45DC06A
S11318B0109271006CEB86E30E945C0F80916500CE
S11318C08A3038F423E0682DA30182E890E00E9476
S11318D05710809165003DC080917100882309F400
S11318E048C0109271006CEB86E30E945C0F8091FB
S11318F065008A3040F423E04FE150E060E082E884
S113190090E00E945710809165004AE050E06FE03B
S113191076E090E00E94671423E04FE150E060E03D
S11319200E94571080910D068823F9F010920D063D
S11319306CEB80E00E945C0F809164008A3038F484
S113194023E0682DA30182E890E00E945710809163
S113195064004AE050E06FE076E090E00E94671493
S113196023E0682DA3010E94571080910B068A3052
S1131970C9F080917000882309F45DC01092700052
S113198066ED80E00E945C0F809166008A3038F436
S113199023E0682DA30182E890E00E945710809113
S11319A066003DC080917000882309F448C01092FD
S11319B0700066ED80E00E945C0F809166008A30C2
S11319C040F423E04FE150E060E082E890E00E94C0
S11319D05710809166004AE050E06FE076E090E0B6
S11319E00E94671423E04FE150E060E00E9457102A
S11319F080910D068823F9F010920D066CEB86E3B6
S1131A000E945C0F809165008A3038F423E0682DD1
S1131A10A30182E890E00E945710809165004AE09B
S1131A2050E06FE076E090E00E94671423E0682DB8
S1131A30A3010E94571080910B068B30C9F080914E
S1131A406F00882309F4FDC910926F0066ED86E3E8
S1131A500E945C0F809167008A3038F423E0682D7F
S1131A60A30182E890E00E945710809167003EC075
S1131A7080916F00882309F4E4C910926F0066ED29
S1131A8086E30E945C0F809167008A3040F423E073
S1131A904FE150E060E082E890E00E9457108091AE
S1131AA067004AE050E06FE076E090E00E9467143F
S1131AB023E04FE150E060E00E94571080910D0652
S1131AC0882309F4BEC910920D0666ED80E00E94D9
S1131AD05C0F809166008A3038F423E0682DA301FE
S1131AE082E890E00E945710809166004AE050E03E
S1131AF06FE076E090E00E94671423E0682DA30174
S1131B000E9457109EC9CF92DF92EF92FF920F93DB
S1131B101F93CF93DF93A8E6B0E0DC91E8E0F6E012
S1131B20D08311966C91119761831296CC91C283E4
S1131B3070E080E090E00E94BE1120E030E040E7D9
S1131B4052E40E9416116B017C016D2F70E080E05D
S1131B5090E00E94BE119B01AC01C701B6010E9436
S1131B60A5106B017C016C2F70E080E090E00E9476
S1131B70BE1120E030E041E655E40E9416119B01BD
S1131B80AC01C701B6010E94A510609304067093CE
S1131B900506809306069093070604EF15E0C0E659
S1131BA0D0E0698170E080E090E00E94BE1120E006
S1131BB030E040E752E40E9416116B017C01688119
S1131BC070E080E090E00E94BE119B01AC01C7016F
S1131BD0B6010E94A510F801608371838283938308
S1131BE06B8170E080E090E00E94BE1120E030E064
S1131BF040E752E40E9416116B017C016A8170E097
S1131C0080E090E00E94BE119B01AC01C701B601C7
S1131C100E94A510F80164837583868397836D8180
S1131C2070E080E090E00E94BE1120E030E040E7E8
S1131C3052E40E9416116B017C016C8170E080E01B
S1131C4090E00E94BE119B01AC01C701B6010E9445
S1131C50A510F80160877187828793876F8170E090
S1131C6080E090E00E94BE1120E030E040E752E4C2
S1131C700E9416116B017C016E8170E080E090E09F
S1131C800E94BE119B01AC01C701B6010E94A510C0
S1131C90F8016487758786879787DF91CF911F91B5
S1131CA00F91FF90EF90DF90CF9008958FB9779BBD
S1131CB0FECF0895CF92DF92EF92FF920F931F937E
S1131CC0CF93DF93182FD62FC42FF22EAA988AE22F
S1131CD00E94560EAA9A80E00E94560E812F0E94FE
S1131CE0560E8C2F90E0810F911D0197892F0E9431
S1131CF0560E8FEF8C0F810F0E94560EAA988BE21E
S1131D000E94560EAA9A80E00E94560E8D2F0E94C1
S1131D10560E8F2D90E08D0F911D0197892F0E94F3
S1131D20560E8FEF8F0D8D0F0E94560EAA988CE2DF
S1131D300E94560EAA9ACF9DE0011124F12C88E04E
S1131D40089F80011124C70123E0959587952A9562
S1131D50E1F7082B35E0EE0CFF1C3A95E1F7EC288F
S1131D60C12CD12CCC15DD0551F0802F0E94560ECC
S1131D708E2D0E94560E8FEFC81AD80AF3CFDF912A
S1131D80CF911F910F91FF90EF90DF90CF90089526
S1131D90AA9A8FB9779BFECF0895AA988FB9779B9B
S1131DA0FECF089587B3806B87BB88B3806F88BBF1
S1131DB08CE58DB91EB8A39AAB9AA29AAA9A0895F3
S1131DC0AB9A81EE94E00197F1F700C00000AB9864
S1131DD081EE94E00197F1F700C00000AB9A81EE28
S1131DE094E00197F1F700C0000081E00E94CD0E5D
S1131DF083EC99E00197F1F700C0000081E10E94B3
S1131E00CD0E83EC99E00197F1F700C000008AE35E
S1131E100E94CD0E85E00E94C80E83EC99E00197E4
S1131E20F1F700C0000086E30E94CD0E80E00E941E
S1131E30C80E83EC99E00197F1F700C000008AE234
S1131E400E94CD0E80E00E94C80E80E00E94C80E61
S1131E5080E00E94C80E80EF0E94C80E83EC99E0D7
S1131E600197F1F700C000008BE20E94CD0E80E0E4
S1131E700E94C80E80E00E94C80E80E00E94C80E36
S1131E8080EF0E94C80E83EC99E00197F1F700C03F
S1131E90000081E20E94CD0E83EC99E00197F1F7F6
S1131EA000C0000089E20E94CD0E83EC99E0019706
S1131EB0F1F700C000000895809319066093180696
S1131EC00895CF92EF920F93813F20F4613F10F475
S1131ED00E945A0E0F91EF90CF900895CF92EF92F7
S1131EE00F93C82EE72E062F20EF40EF60E080E02E
S1131EF00E945A0E0F91EF90CF9008952F923F9227
S1131F004F925F926F927F928F929F92AF92BF9205
S1131F10CF92DF92EF92FF920F931F93CF93DF93B1
S1131F2000D000D000D0CDB7DEB76B834C83F22E47
S1131F30D02EBE2C3C2C9091190646E0A49E900114
S1131F401124290F311D1A2D110F110F110F213FCB
S1131F5031053CF01092190690911806910F909358
S1131F60180696E0899F300111241E821D824424A4
S1131F704394512C8D819E81860D971DFC01EC505C
S1131F80F040FA83E983212C87E0882E912CE981A3
S1131F90FA818081282F30E0C201082C02C0880F0A
S1131FA0991F0A94E2F78223932360911806620D25
S1131FB0892B21F0CF2CEC800B8103C0C32CEB2C9C
S1131FC00D2D2A2D4A2D809119060E94610FF1E0F2
S1131FD08F1A91082A0C2FEF82169206C1F680916F
S1131FE019068A0D803F18F48093190607C01092D1
S1131FF0190680911806810F80931806809118069F
S1132000803F20F010921906109218068D819E814F
S113201001969E838D83069709F0ACCF26960FB662
S1132020F894DEBF0FBECDBFDF91CF911F910F910A
S1132030FF90EF90DF90CF90BF90AF909F908F90E4
S11320407F906F905F904F903F902F9008957F9274
S11320508F929F92AF92BF92CF92DF92EF92FF92B4
S11320600F931F93CF93DF93162FF42ED22EB02EFF
S11320709E2C8C2C7A2CEC018991882351F0A72C6E
S1132080C82CE92C0B2D2D2D4F2D612F0E947E0F76
S1132090F3CFDF91CF911F910F91FF90EF90DF90DD
S11320A0CF90BF90AF909F908F907F900895AF9204
S11320B0CF92EF920F93342F452FA22EC12CE12CF7
S11320C000E0262F632F0E9427100F91EF90CF90EE
S11320D0AF900895991B79E004C0991F961708F0F2
S11320E0961B881F7A95C9F78095089597FB072E4C
S11320F016F4009407D077FD09D00E94901007FCD5
S113210005D03EF4909581959F4F08957095619503
S11321107F4F0895EE0FFF1F0590F491E02D099471
S1132120AA1BBB1B51E107C0AA1FBB1FA617B707F9
S113213010F0A61BB70B881F991F5A95A9F7809515
S11321409095BC01CD0108955058BB27AA270E9441
S1132150BC100C9436120E94281238F00E942F12E0
S113216020F039F49F3F19F426F40C9425120EF450
S1132170E095E7FB0C941F12E92F0E94471258F3D5
S1132180BA17620773078407950720F079F4A6F558
S11321900C9469120EF4E0950B2EBA2FA02D0B01AE
S11321A0B90190010C01CA01A0011124FF27591B98
S11321B099F0593F50F4503E68F11A16F040A22F9E
S11321C0232F342F4427585FF3CF4695379527950F
S11321D0A795F0405395C9F77EF41F16BA0B620B0E
S11321E0730B840BBAF09150A1F0FF0FBB1F661F55
S11321F0771F881FC2F70EC0BA0F621F731F841F98
S113220048F4879577956795B795F7959E3F08F0BD
S1132210B0CF9395880F08F09927EE0F979587957F
S113222008950E94FB1108F481E008950E942A1188
S11322300C9436120E942F1258F00E94281240F07B
S113224029F45F3F29F00C941F1251110C946A1267
S11322500C9425120E94471268F39923B1F3552375
S113226091F3951B550BBB27AA27621773078407A5
S113227038F09F5F5F4F220F331F441FAA1FA9F33B
S113228035D00E2E3AF0E0E832D091505040E69529
S1132290001CCAF72BD0FE2F29D0660F771F881F8A
S11322A0BB1F261737074807AB07B0E809F0BB0B7D
S11322B0802DBF01FF2793585F4F3AF09E3F510591
S11322C078F00C941F120C946A125F3FE4F3983E6A
S11322D0D4F3869577956795B795F7959F5FC9F77A
S11322E0880F911D9695879597F90895E1E0660FFB
S11322F0771F881FBB1F621773078407BA0720F074
S1132300621B730B840BBA0BEE1F88F7E0950895DC
S11323100E948F116894B1110C946A1208950E945E
S11323204F1288F09F5798F0B92F9927B751B0F002
S1132330E1F0660F771F881F991F1AF0BA95C9F745
S113234014C0B13091F00E946912B1E008950C9468
S11323506912672F782F8827B85F39F0B93FCCF31B
S1132360869577956795B395D9F73EF490958095C2
S1132370709561957F4F8F4F9F4F0895E89409C0E2
S113238097FB3EF490958095709561957F4F8F4FA4
S11323909F4F9923A9F0F92F96E9BB279395F695BA
S11323A0879577956795B795F111F8CFFAF4BB0F38
S11323B011F460FF1BC06F5F7F4F8F4F9F4F16C09C
S11323C0882311F096E911C0772321F09EE8872F26
S11323D0762F05C0662371F096E8862F70E060E0E2
S11323E02AF09A95660F771F881FDAF7880F96955B
S11323F0879597F90895990F0008550FAA0BE0E8FF
S1132400FEEF16161706E807F907C0F012161306B2
S1132410E407F50798F0621B730B840B950B39F4F2
S11324200A2661F0232B242B252B21F408950A2658
S113243009F4A140A6958FEF811D811D089597F998
S11324409F6780E870E060E008959FEF80EC089556
S113245000240A941616170618060906089500247F
S11324600A9412161306140605060895092E0394F9
S1132470000C11F4882352F0BB0F40F4BF2B11F46D
S113248060FF04C06F5F7F4F8F4F9F4F089557FDCC
S11324909058440F551F59F05F3F71F04795880FCE
S11324A097FB991F61F09F3F79F087950895121665
S11324B013061406551FF2CF4695F1DF08C0161611
S11324C017061806991FF1CF8695710561050894C2
S11324D00895E894BB2766277727CB0197F90895D9
S11324E00E94FB1108F48FEF08950E9488120C9447
S11324F036120E94281238F00E942F1220F09523E1
S113250011F00C941F120C94251211240C946A12CD
S11325100E94471270F3959FC1F3950F50E0551F29
S1132520629FF001729FBB27F00DB11D639FAA2724
S1132530F00DB11DAA1F649F6627B00DA11D661F73
S1132540829F2227B00DA11D621F739FB00DA11D94
S1132550621F839FA00D611D221F749F3327A00D4E
S1132560611D231F849F600D211D822F762F6A2FEA
S113257011249F5750409AF0F1F088234AF0EE0F4F
S1132580FF1FBB1F661F771F881F91505040A9F77C
S11325909E3F510580F00C941F120C946A125F3F09
S11325A0E4F3983ED4F3869577956795B795F795B8
S11325B0E7959F5FC1F7FE2B880F911D9695879530
S11325C097F90895FA01EE0FFF1F309621053105A2
S11325D0A1F16115710561F48038BFE39B0749F1EE
S11325E068949038810561F08038BFEF9B0741F013
S11325F099234AF5FF3FE1053105210519F1E894D6
S11326000894E795D901AA2329F4AB2FBE2FF85FCC
S1132610D0F310C0FF5F70F4A695E0F7F73950F0DF
S113262019F0FF3A38F49F779F930DD00F9007FC71
S11326309058089546F00C94251260E070E080E80C
S11326409FE308954FE79F775F934F933F932F93B3
S11326500E94DD132F913F914F915F910E9475125B
S11326600C943A1329F416F00C941F120C9469126A
S11326700C9425120E944F12A8F39638A0F707F87D
S11326800F92E8942BE33AEA48EB5FE70E948B123F
S11326900F920F920F924DB75EB70F920E942514BE
S11326A0E8E9F0E00E946C134F915F91EF91FF9184
S11326B0E595EE1FFF1F49F0FE57E0684427EE0F33
S11326C0441FFA95E1F74195550B0E949F130F9013
S11326D007FE0C9493130895DF93CF931F930F93E6
S11326E0FF92EF92DF927B018C01689406C0DA2E90
S11326F0EF010E948812FE01E894A591259135917D
S113270045915591A6F3EF010E94BC10FE0197017B
S1132710A801DA9469F7DF90EF90FF900F911F9171
S1132720CF91DF9108959B01AC0160E070E080E8F7
S11327309FE30C9416110C941F120C9459140E94CC
S11327404F12D8F39923C9F3940F511DA3F3915059
S1132750504094F059F0882332F0660F771F881F99
S113276091505040C1F79E3F51052CF7880F911DA1
S11327709695879597F908955F3FACF0983E9CF045
S1132780BB27869577956795B79508F4B1609395BF
S1132790C1F7BB0F58F711F460FFE8CF6F5F7F4FAD
S11327A08F4F9F4FE3CF0C946A1216F00C94591478
S11327B00C94251268940C941F120E944F12A8F3D3
S11327C09923C1F3AEF3DF93CF931F930F93FF923B
S11327D0C92FDD2788232AF02197660F771F881FCA
S11327E0DAF720E030E040E85FEB9FE3883920F03F
S11327F0803E38F021968F770E94A510E0ECF0E03F
S113280004C00E94A510EDEEF0E00E946C138B0151
S1132810BE01EC01FB2E6F5771097595771F880B6C
S1132820990B0E94C01128E132E741E35FE30E9463
S11328308812AF2D9801AE01FF900F911F91CF9197
S1132840DF910E94BC100C943612FA01DC01AA0F2D
S1132850BB1F9B01AC01BF5728F422273327442711
S1132860507820C0B75190F4AB2F0024469537958B
S11328702795011CA395D2F3002071F0220F331F7A
S1132880441FB395DAF30ED00C94A4106130710593
S1132890A0E88A07B94630F49B01AC016627772784
S11328A088279078309621F02083318342835383A4
S11328B008959F3F31F0915020F48795779567955F
S11328C0B795880F911D9695879597F90895453288
S11328D0510520F4423010F00C947214FB01108264
S11328E0CB010895BB274A3031F4992322F4BDE289
S11328F0909581959F4F0C947E14BB27FB0155271F
S1132900AA27880F991FAA1FA41710F0A41B839548
S11329105051B9F7A05DAA3308F0A95DA1930097BF
S113292079F7B111B1931192CB010C949714DC0196
S1132930FC01672F71917723E1F7329704C07C91F2
S11329406D9370836291AE17BF07C8F30895F8942E
S1052950FFCFB3
S113295206000A001200140000000001010118011F
S113296201010101010101010101010101EEF1E293
S11329722E003000252020003A0020D0E0F1F1E2C0
S1132982E5F20020C4E5EDFC2020200020C7E0EAA7
S1132992E0F220200020CDEEF7FC202020000000F1
S11329A2001F3D1F00000000000000FA00000000AC
S11329B200600060000028FE28FE28002454D6543B
S11329C24800C20C106086000C52BA4C120000007F
S11329D26000000000384482000000824438000095
S11329E200502050000010107C1010000001020062
S11329F20000001010100000000002000000020C91
S1132A02106080007C8A92A27C000242FE020200D4
S1132A12468A92926600448292926C0018284888F0
S1132A22FE00E4A2A2A29C003C5292920C00C0803E
S1132A328E90E0006C9292926C0060929294780074
S1132A420000240000000002240000001028448238
S1132A520000242424240000824428100000408022
S1132A628A9060003C425A4A3A007E9090907E00DE
S1132A72FE9292926C007C8282824400FE82828266
S1132A827C00FE9292928200FE90909080007C8262
S1132A9282A2BC00FE101010FE000082FE82000022
S1132AA204020202FC00FE2020508E00FE020202FA
S1132AB20000FE402040FE00FE402010FE007C820A
S1132AC282827C00FE90909060007C8282847A00F4
S1132AD2FE9090906E00649292924C008080FE80F0
S1132AE28000FC020202FC00F00C020CF000FE0466
S1132AF20804FE00C6281028C60080403E4080001C
S1132B02868A92A2C20000FE828200008060100CBB
S1132B120200008282FE0000204080402000010169
S1132B2201010100402000000000042A2A2A1E009C
S1132B327E1222221C001C22222214001C22221297
S1132B427E001C2A2A2A1A00207EA0A00000192531
S1132B5225253E00FE1020201E000020BC0200009D
S1132B6204020202BC0000FE081422000080FC02DF
S1132B7202003E2018201E003E2020201E001C229F
S1132B8222221C003F1424241800182424143F0079
S1132B923E1020201000122A2A2A24000020FC229F
S1132BA200003C0202023E003804020438003C02E7
S1132BB20E023E00221408142200390505053E00C7
S1132BC222262A32220000106C8200000000FE003D
S1132BD2000000826C100000182010083000000071
S1132BE200000000000000000000000000000000DF
S1132BF200000000000000000000000000000000CF
S1132C0200000000000000000000000000000000BE
S1132C1200000000000000000000000000000000AE
S1132C22000000000000000000000000000000009E
S1132C32000000000000000000000000000000008E
S1132C42000000000000000000000000000000007E
S1132C52000000000000000000000000000000006E
S1132C62000000000000000000000000000000005E
S1132C72000000000000000000000000000000004E
S1132C82000000000000000000000000000000003E
S1132C92000000000000000000000000000000002E
S1132CA2000000000000000000000000000000001E
S1132CB2000000000000000000000000000000000E
S1132CC200000000000000000000000000000000FE
S1132CD2000000003EAA2AAA220000000000000010
S1132CE200000000000000000000000000000000DE
S1132CF200000000000000000000000000000000CE
S1132D0200000000000000000000000000000000BD
S1132D1200000000000000000000000000000000AD
S1132D22000000000000000000000000000000009D
S1132D32000000000000000000000000000000008D
S1132D42000000000000000000000000000000007D
S1132D52000000000000000000000000000000006D
S1132D62000000007E9090907E00FEA2A2A29C0031
S1132D72FE9292926C00FE8080808000031EE282AA
S1132D82FF00FE9292928200DE20FE20DE00448248
S1132D92A2A25C00FE040830FE0000000000000055
S1132DA2000000000000000000000000000000001D
S1132DB20000FE101010FE000000000000000000E1
S1132DC200000000FE9090906000000000000000EF
S1132DD200000000000000000000000000000000ED
S1132DE200000000000000000000000000000000DD
S1132DF200000000000000000000000000000000CD
S1132E0200000000000000000000000000000000BC
S1132E1200000000000000000000000000000000AC
S1132E2200000000042A2A2A1E00000000000000FC
S1132E323E2A2A2A140000000000000000000000BC
S1132E4200001C2A2A2A1A000000000000000000C8
S1132E52000000003E0408103E003E8448903E00FC
S1132E623E080814220000000000000000000000D8
S1132E7200003E0808083E001C2222221C0000001A
S1132E82000000003F14242418001C2222221400F3
S1132E9220203E202000000000000000000000006E
S1132EA200000000000000000000000000003008E4
S1132EB208083E00000000000000000000000000BE
S1132EC20000000000000000000000003E0A0A0AA0
S1132ED204000000000000000000000000000000E8
S1072EE200000000E8
S9030000FC
