S01600004C45445F636F6E74726F6C6C65722E7372656396
S11300000C942B000C94E7000C9453000C945300B4
S11300100C9453000C9453000C9453000C94B500AE
S11300200C9453000C9453000C9453000C94530000
S11300300C9453000C9453000C9453000C945300F0
S11300400C9453000C9453000C9453000C945300E0
S11300500C945300010211241FBECFE5D8E0DEBF8B
S1130060CDBF15E0A0E6B0E0E4ECF8E002C00590F6
S11300700D92A83BB107D9F725E0A8EBB5E001C084
S11300801D92A43CB207E1F710E0CBE2D0E004C03B
S11300902197FE010E941A04CA32D107C9F70E94AF
S11300A07D010C9460040C940000982F969596950D
S11300B096959E71292F220F220F920F8F70890F10
S11300C0089584EA86BF06B607FEFDCF089583B976
S11300D084E886BF06B607FEFDCF089584EC86BF8C
S11300E006B607FEFDCF83B10895CF93DF93EC01ED
S11300F082E480B981B181B90E94610080ED0E94DF
S1130100670080E00E9467000E94610081ED0E9408
S113011067000E946E000E94550088830E946E0052
S11301200E94550089830E946E000E9455008A83B4
S11301300E946E000E9455008B830E946E000E94F4
S113014055008C830E946E000E9455008D8384E8C4
S113015086BF06B607FEFDCF83B10E9455008E838D
S113016084E986BFDF91CF9108951F920F920FB655
S11301700F9211248F939F93F894809160008F5F66
S11301808093600091E090936A008C33C0F01092E9
S11301906000809161008F5F80936100909369009B
S11301A08C3368F010926100809162008F5F8093BD
S11301B0620090936800883110F010926200789485
S11301C09F918F910F900FBE0F901F9018951F92C3
S11301D00F920FB60F9211242F933F934F935F9377
S11301E06F937F938F939F93AF93BF93CF93EF932B
S11301F0FF93F894C0E089B38E3F91F089B38D3FAB
S113020079F089B38B3F61F089B3873F49F0CF5FC1
S113021086E69EE00197F1F70000C53161F73FC023
S113022089B38B3F11F482E005C08C3F88F18D3F88
S113023021F481E08093670004C08E3F69F5109239
S1130240670060E080E00E940C03809167004AE050
S113025050E069EB75E090E00E9420040E940704DE
S113026060E280E00E940C038BE690E00E940704A9
S113027060E280E00E940C034AE050E069EB75E024
S11302808C2F90E00E9420040E940704789407C0F9
S1130290873F11F483E0CECF84E080936700FF9121
S11302A0EF91CF91BF91AF919F918F917F916F917A
S11302B05F914F913F912F910F900FBE0F901F9020
S11302C018958EE398E39BBD8ABD8FB58FBD8EB51F
S11302D08D608EBD89B7806189BF789408958BB78E
S11302E080648BBF85B78A6085BF84B784BF7894E8
S11302F008958FEF8BBB1ABA08952FEF8FE794E020
S1130300215080409040E1F700C000000E946F013E
S11303100E9479010E94610180E690E00E947500CC
S11303200E9482020E949002609174007091750094
S1130330809176000E941E0360E080E00E940C031E
S1130340809168008823E9F01092680060E080E002
S11303500E940C03809162008A3020F480E790E0D0
S11303600E940704809162004AE050E069EB75E066
S113037090E00E9420040E94070482E790E00E941B
S11303800704809169008823E9F01092690060E015
S113039084E20E940C03809161008A3020F480E79B
S11303A090E00E940704809161004AE050E069EB0C
S11303B075E090E00E9420040E94070482E790E028
S11303C00E94070480916A00882309F4B9CF10922F
S11303D06A0060E088E40E940C03809160008A3027
S11303E020F480E790E00E940704809160004AE0D6
S11303F050E069EB75E090E00E9420040E9407043D
S11304009FCF809160008093B80508958FB9779B42
S1130410FECF0895CF92DF92EF92FF920F931F9336
S1130420CF93DF93182FD62FC42FF22EAA988AE2E7
S11304300E940602AA9A80E00E940602812F0E946E
S113044006028C2F90E0810F911D0197892F0E9445
S113045006028FEF8C0F810F0E940602AA988BE28E
S11304600E940602AA9A80E00E9406028D2F0E9432
S113047006028F2D90E08D0F911D0197892F0E9408
S113048006028FEF8F0D8D0F0E940602AA988CE250
S11304900E940602AA9ACF9DE0011124F12C88E063
S11304A0089F80011124C70123E0959587952A951B
S11304B0E1F7082B35E0EE0CFF1C3A95E1F7EC2848
S11304C0C12CD12CCC15DD0551F0802F0E940602E1
S11304D08E2D0E9406028FEFC81AD80AF3CFDF913F
S11304E0CF911F910F91FF90EF90DF90CF900895DF
S11304F0AA9A8FB9779BFECF0895AA988FB9779B54
S1130500FECF089587B3806B87BB88B3806F88BBA9
S11305108CE58DB91EB8A39AAB9AA29AAA9A0895AB
S1130520AB9A81EE94E00197F1F700C00000AB981C
S113053081EE94E00197F1F700C00000AB9A81EEE0
S113054094E00197F1F700C0000081E00E947D0271
S113055083EC99E00197F1F700C0000081E10E946B
S11305607D0283EC99E00197F1F700C000008AE373
S11305700E947D0285E00E94780283EC99E0019755
S1130580F1F700C0000086E30E947D0280E00E9433
S1130590780283EC99E00197F1F700C000008AE249
S11305A00E947D0280E00E94780280E00E9478022E
S11305B080E00E94780280EF0E94780283EC99E048
S11305C00197F1F700C000008BE20E947D0280E0F9
S11305D00E94780280E00E94780280E00E94780203
S11305E080EF0E94780283EC99E00197F1F700C054
S11305F0000081E20E947D0283EC99E00197F1F70B
S113060000C0000089E20E947D0283EC99E001971A
S1130610F1F700C0000008958093C3056093C205FC
S11306200895CF92EF920F93813F20F4613F10F42D
S11306300E940A020F91EF90CF900895CF92EF920B
S11306400F93C82EE72E062F20EF40EF60E080E0E6
S11306500E940A020F91EF90CF9008952F923F923B
S11306604F925F926F927F928F929F92AF92BF92BE
S1130670CF92DF92EF92FF920F931F93CF93DF936A
S113068000D000D000D0CDB7DEB76B834C83F22E00
S1130690D02EBE2C3C2C9091C30546E0A49E900124
S11306A01124290F311D1A2D110F110F110F213F84
S11306B031053CF01092C3059091C205910F9093BF
S11306C0C20596E0899F300111241E821D824424B4
S11306D04394512C8D819E81860D971DFC01E95414
S11306E0F040FA83E983212C87E0882E912CE9815C
S11306F0FA818081282F30E0C201082C02C0880FC3
S1130700991F0A94E2F7822393236091C205620D34
S1130710892B21F0CF2CEC800B8103C0C32CEB2C54
S11307200D2D2A2D4A2D8091C3050E941103F1E05D
S11307308F1A91082A0C2FEF82169206C1F6809127
S1130740C3058A0D803F18F48093C30507C0109237
S1130750C3058091C205810F8093C2058091C205B3
S1130760803F20F01092C3051092C2058D819E81B6
S113077001969E838D83069709F0ACCF26960FB61B
S1130780F894DEBF0FBECDBFDF91CF911F910F91C3
S1130790FF90EF90DF90CF90BF90AF909F908F909D
S11307A07F906F905F904F903F902F9008957F922D
S11307B08F929F92AF92BF92CF92DF92EF92FF926D
S11307C00F931F93CF93DF93162FF42ED22EB02EB8
S11307D09E2C8C2C7A2CEC018991882351F0A72C27
S11307E0C82CE92C0B2D2D2D4F2D612F0E942E038B
S11307F0F3CFDF91CF911F910F91FF90EF90DF9096
S1130800CF90BF90AF909F908F907F900895AF92BC
S1130810CF92EF920F9322E0A22EC12CE12C00E0A4
S11308202FE14DE36FE10E94D7030F91EF90CF903A
S1130830AF900895EE0FFF1F0590F491E02D0994F9
S11308404532510520F4423010F00C942B04FB0186
S11308501082CB010895BB274A3031F4992322F446
S1130860BDE2909581959F4F0C943704BB27FB0103
S11308705527AA27880F991FAA1FA41710F0A41B95
S113088083955051B9F7A05DAA3308F0A95DA193EF
S1130890009779F7B111B1931192CB010C945004E4
S11308A0DC01FC01672F71917723E1F7329704C0D3
S11308B07C916D9370836291AE17BF07C8F308955E
S10708C0F894FFCFD6
S11308C4000F15060D071804010101202020200043
S11308D430003A0000000000000000000000FA00AC
S11308E400000000600060000028FE28FE280024A8
S11308F454D6544800C20C106086000C52BA4C12F0
S113090400000060000000003844820000008244BB
S113091438000000502050000010107C101000001B
S1130924010200000000101010000000000200008A
S113093400020C106080007C8A92A27C000242FEB9
S1130944020200468A92926600448292926C0018D3
S1130954284888FE00E4A2A2A29C003C5292920C75
S113096400C0808E90E0006C9292926C006092922F
S11309749478000000240000000002240000001009
S113098428448200002424242400008244281000E3
S11309940040808A9060003C425A4A3A007E90901B
S11309A4907E00FE9292926C007C8282824400FECD
S11309B48282827C00FE9292928200FE90909080C9
S11309C4007C8282A2BC00FE101010FE000082FE95
S11309D482000004020202FC00FE2020508E00FE6D
S11309E40202020000FE402040FE00FE402010FEF1
S11309F4007C8282827C00FE90909060007C8282E3
S1130A04847A00FE9090906E00649292924C0080DE
S1130A1480FE808000FC020202FC00F00C020CF058
S1130A2400FE040804FE00C6281028C60080403EC8
S1130A34408000868A92A2C20000FE828200008066
S1130A4460100C0200008282FE00002040804020DE
S1130A5400010101010100402000000000042A2AD1
S1130A642A1E007E1222221C001C22222214001C94
S1130A742222127E001C2A2A2A1A00207EA0A00008
S1130A8400192525253E00FE1020201E000020BC50
S1130A9402000004020202BC0000FE08142200004A
S1130AA480FC0202003E2018201E003E2020201E4E
S1130AB4001C2222221C003F14242418001824247D
S1130AC4143F003E1020201000122A2A2A24000079
S1130AD420FC2200003C0202023E003804020438D6
S1130AE4003C020E023E00221408142200390505BB
S1130AF4053E0022262A32220000106C82000000E7
S1130B0400FE00000000826C100000182010083061
S1130B1400000000000000000000000000000000CD
S1130B2400000000000000000000000000000000BD
S1130B3400000000000000000000000000000000AD
S1130B44000000000000000000000000000000009D
S1130B54000000000000000000000000000000008D
S1130B64000000000000000000000000000000007D
S1130B74000000000000000000000000000000006D
S1130B84000000000000000000000000000000005D
S1130B94000000000000000000000000000000004D
S1130BA4000000000000000000000000000000003D
S1130BB4000000000000000000000000000000002D
S1130BC4000000000000000000000000000000001D
S1130BD4000000000000000000000000000000000D
S1130BE400000000000000000000000000000000FD
S1130BF400000000000000000000000000000000ED
S1130C04000000000000003EAA2AAA2200000000FE
S1130C1400000000000000000000000000000000CC
S1130C2400000000000000000000000000000000BC
S1130C3400000000000000000000000000000000AC
S1130C44000000000000000000000000000000009C
S1130C54000000000000000000000000000000008C
S1130C64000000000000000000000000000000007C
S1130C74000000000000000000000000000000006C
S1130C84000000000000000000000000000000005C
S1130C94000000000000007E9090907E00FEA2A25E
S1130CA4A29C00FE9292926C00FE808080800003DD
S1130CB41EE282FF00FE9292928200DE20FE20DE7B
S1130CC4004482A2A25C00FE040830FE000000007E
S1130CD4000000000000000000000000000000000C
S1130CE40000000000FE101010FE000000000000D0
S1130CF400000000000000FE9090906000000000DE
S1130D0400000000000000000000000000000000DB
S1130D1400000000000000000000000000000000CB
S1130D2400000000000000000000000000000000BB
S1130D3400000000000000000000000000000000AB
S1130D44000000000000000000000000000000009B
S1130D5400000000000000042A2A2A1E00000000EB
S1130D640000003E2A2A2A140000000000000000AB
S1130D7400000000001C2A2A2A1A000000000000B7
S1130D84000000000000003E0408103E003E8448B9
S1130D94903E003E080814220000000000000000F9
S1130DA400000000003E0808083E001C2222221C09
S1130DB4000000000000003F14242418001C222218
S1130DC422140020203E2020000000000000000027
S1130DD4000000000000000000000000000000000B
S1130DE400300808083E0000000000000000000075
S1130DF40000000000000000000000000000003EAD
S1130E040A0A0A04000000000000000000000000B8
S10B0E140000000000000000D2
S9030000FC
