S01600004C45445F636F6E74726F6C6C65722E7372656396
S11300000C946C000C941A020C944C030C9405048C
S11300100C9494000C9494000C9494000C94AA01F5
S11300200C9494000C9494000C9494000C949400FC
S11300300C9494000C9494000C9494000C949400EC
S11300400C9494000C9494000C9494000C949400DC
S11300500C94940007634236B79BD8A71A396856A4
S113006018AEBAAB558C1D3CB7CC5763BD6DEDFDD6
S1130070753EF6177231BF000000803F0800000093
S1130080BE922449123EABAAAA2ABECDCCCC4C3E89
S113009000000080BEABAAAAAA3E00000000BF0078
S11300A00000803F0000000000084178D3BB438774
S11300B0D1133D190E3CC3BD4282AD2B3E68EC8288
S11300C076BED98FE1A93E4C80EFFFBE01C4FF7F0D
S11300D03F0000000000980A11241FBECFE5D8E0BD
S11300E0DEBFCDBF16E0A0E6B0E0E0E0F2E202C081
S11300F005900D92AA30B107D9F726E0AAE0B6E040
S113010001C01D92A233B207E1F710E0CCE6D0E0C3
S113011004C02197FE010E94C310CB36D107C9F752
S11301200E947E050C94FE100C940000982F969566
S1130130969596959E71292F220F220F920F8F70FC
S1130140890F08956AE00E948F10292F30E1839F60
S1130150C0011124822B089584EA86BF06B607FEE7
S1130160FDCF089583B984E886BF06B607FEFDCFA8
S1130170089584EC86BF06B607FEFDCF83B10895CB
S1130180CF93DF93EC0188E280B981B181B90E94F9
S1130190AC0080ED0E94B20080E00E94B200888131
S11301A00E94A2000E94B20089810E94A2000E94C3
S11301B0B2008A810E94A2000E94B2008B810E9438
S11301C0A2000E94B2008C810E94A2000E94B20090
S11301D08D810E94A2000E94B2008E810E94A20022
S11301E00E94B20080E10E94B20084E986BFDF91E0
S11301F0CF910895CF93DF93EC0182E480B981B16C
S113020081B90E94AC0080ED0E94B20080E00E949F
S1130210B2000E94AC0081ED0E94B2000E94B900BD
S11302200E94960088830E94B9000E9496008983E8
S11302300E94B9000E9496008A830E94B9000E941D
S113024096008B830E94B9000E9496008C830E94C2
S1130250B9000E9496008D8384E886BF06B607FE27
S1130260FDCF83B10E9496008E8384E986BFDF911F
S1130270CF910895AA9A8FB9779BFECF0895AA9833
S11302808FB9779BFECF0895BF92CF92DF92EF9202
S1130290FF920F931F93CF93DF93813F08F050C0D9
S11302A0613F08F04DC0D22EC42EF62E182F8AE2DC
S11302B00E943F0180E00E943A01812F0E943A018E
S11302C0CE2DD0E0CE01810F911D0197892F0E9480
S11302D03A01BB24BA94BE0C812F8B0D0E943A01C3
S11302E08BE20E943F0180E00E943A018F2D0E9420
S11302F03A01CF0DD11D21978D2F0E943A018F2DE8
S11303008B0D0E943A018CE20E943F01EE9C700129
S11303101124CC0CCC0C1D2D110F110F000F000F4C
S1130320C0E0D0E0CE15DF0559F08C2D0E943A01D3
S1130330812F0E943A01802F0E943A012196F2CF28
S1130340DF91CF911F910F91FF90EF90DF90CF90AD
S1130350BF9008951F920F920FB60F9211242F93FE
S11303603F934F935F936F937F938F939F93AF9339
S1130370BF93EF93FF93F894809188008F5F8093ED
S113038088008C3338F0809189008F5F80938900D6
S113039010928800809189008C3338F080918A0013
S11303A08F5F80938A001092890080918A0088313F
S11303B030F0109288001092890010928A00809187
S11303C08800811112C08091890081110EC0809132
S11303D08A0081110AC080919600813031F488E846
S11303E090E00E94FA00109296008091880081119A
S11303F00AC080918900813031F490918A00911172
S113040002C08093960081E08093940080939300CF
S11304107894FF91EF91BF91AF919F918F917F91CC
S11304206F915F914F913F912F910F900FBE0F905D
S11304301F9018951F920F920FB60F9211242F93AD
S11304403F934F935F936F938F939F93F89426E614
S113045066EE80E0215060408040E1F7829910C14F
S11304608091950081110BC080911E068F5F8C33A3
S113047018F480931E061CC010921E0619C0813009
S113048059F480911F068F5F8C3318F480931F06F4
S11304900FC010921F060CC0823071F480912006A8
S11304A08F5F883118F48093200602C010922006D2
S11304B081E080939400D8C0833039F52091800086
S11304C030918200822F90E001966CE3689FA00136
S11304D0699F500D112480918100480F511D809116
S11304E0830090E06CE3369F800D911D11248417E6
S11304F095071CF02F5F2093800080918000883145
S113050008F49FC0109280009CC0843029F580912B
S113051080004091810050918200242F30E09CE3C0
S1130520899F200D311D11242F5F3F4F809183003F
S113053090E06CE3569F800D911D11242817390714
S11305401CF44F5F40938100809181008C3308F448
S113055078C01092810075C0853039F520918200F1
S113056030918400822F90E001966CE3689FA00193
S1130570699F500D112480918300480F511D809173
S1130580850090E06CE3369F800D911D1124841743
S113059095071CF02F5F20938200809182008831A0
S11305A008F44FC0109282004CC0863021F580912F
S11305B082004091830050918400242F30E09CE31A
S11305C0899F200D311D11242F5F3F4F809185009D
S11305D090E06CE3569F800D911D11242817390774
S11305E01CF44F5F40938300809183008C3348F167
S11305F01092830026C0873059F4809184008F5F65
S1130600883118F4809384001CC01092840019C0AF
S1130610883059F4809185008F5F8C3318F480936F
S113062085000FC0109285000CC0893071F4809150
S113063086008F5F883118F48093860002C0109280
S1130640860081E0809392000FC08A3059F4809133
S113065087008F5F8C3318F480938700F2CF109259
S11306608700EFCF8B3061F081E08BBB89E999E59E
S113067021E0815090402040E1F700001BBA7894BB
S11306809F918F916F915F914F913F912F910F9017
S11306900FBE0F901F9018951F920F920FB60F92D6
S11306A011242F938F939F93F89426E686EE90E07F
S11306B0215080409040E1F783999FC0809195003C
S11306C0811109C080911E0681508C3308F08BE3A0
S11306D080931E0615C0813049F480911F06815015
S11306E08C3308F08BE380931F060AC0823061F4D8
S11306F0809120068150883108F087E1809320069C
S113070081E0809394006DC0833059F4809180001F
S11307108150883118F48093800050C0109280007A
S11307204DC0843059F4809181008150883118F48F
S11307308093810043C01092810040C0853059F4F9
S1130740809182008150883118F48093820036C0F1
S11307501092820033C0863059F480918300815016
S1130760883118F48093830029C01092830026C036
S1130770873059F4809184008150883118F4809333
S113078084001CC01092840019C0883059F48091F0
S113079085008150883118F4809385000FC0109231
S11307A085000CC0893071F48091860081508831B5
S11307B018F48093860002C01092860081E0809332
S11307C092000FC08A3059F480918700815088319B
S11307D018F480938700F2CF10928700EFCF8B300C
S11307E061F081E08BBB29E989E591E021508040EB
S11307F09040E1F700001BBA78949F918F912F915C
S11308000F900FBE0F901F9018951F920F920FB666
S11308100F9211242F933F934F935F936F937F9382
S11308208F939F93AF93BF93EF93FF93F89426E630
S113083086EE90E0215080409040E1F7B29943C0A9
S1130840809195008F5F8C3018F48093950002C0DE
S11308501092950080919500843020F092E090935E
S1130860920014C091E0909394008330B9F3811105
S11308700DC090939300E8E8F0E0AEE1B6E081911A
S11308808D9320E0EF38F207D1F711C0833079F46B
S1130890EEE1F6E0A8E8B0E085E296E021912D9340
S11308A08E179F07D9F788E890E00E94C00081E086
S11308B08BBB89E999E521E0815090402040E1F724
S11308C000001BBA7894FF91EF91BF91AF919F9173
S11308D08F917F916F915F914F913F912F910F90E5
S11308E00FBE0F901F90189578948BB7806E8BBFB6
S11308F085B78A6085BF84B784BF8FEF8ABB1BBA74
S11309008EE398E39BBD8ABD8FB58FBD8EB58D6098
S11309108EBD89B7806189BF8CB78CBF83B7896668
S113092083BFBB9A0C94610B6F927F928F929F92BC
S1130930AF92BF92CF92DF92EF92FF920F931F93E9
S1130940CF93DF93B82E3B01EA014901102FFE2C0F
S1130950DC2C89E08B1550F0CA2CED2C0F2D212FA7
S1130960A401BE0187E990E00E942F0C4AE0B30184
S11309708B2D90E00E94C910CA2CED2C0F2D212F35
S1130980A401BE010E942F0CDF91CF911F910F9102
S1130990FF90EF90DF90CF90BF90AF909F908F909B
S11309A07F906F900895EF92FF920F931F93CF93D0
S11309B0DF93FB018A01EB012AE0E22EF12C9E0178
S11309C02E1B3F0B009739F0B7010E949B10805DEE
S11309D08993CB01F4CFDF01A20FB31F80E320176B
S11309E0310724F42F5F3F4F8D93F9CFC90101974D
S11309F0AF01420F531FEA01DF01BD016E1B7F0BE4
S1130A006817790734F46C917A917D936883019720
S1130A10F4CFFA011082C901DF91CF911F910F9198
S1130A20FF90EF9008952F923F924F925F926F92B2
S1130A307F928F929F92AF92BF92CF92DF92EF926A
S1130A40FF920F931F93CF93DF934B015C01EA0155
S1130A5089010E94B50D6B017C0140E050E0BE01AC
S1130A60C6010E94D3041C010115110599F1FE0170
S1130A70E80FF91F8EE28083B801012E000C880B69
S1130A80990B0E94ED0D9B01AC0160E070E080E2E7
S1130A9091E40E940A0F2B013C01B601DD0C880B86
S1130AA0990B0E94ED0D9B01AC01C501B4010E949C
S1130AB0D10C2FEF221A320A2C0E3D1EA3019201F3
S1130AC00E949D0E0E94B50DDC01CB01A801B1016D
S1130AD00E94D304CE01DF91CF911F910F91FF901B
S1130AE0EF90DF90CF90BF90AF909F908F907F90CA
S1130AF06F905F904F903F902F9008952FEF8FE766
S1130B0094E0215080409040E1F700C000000E9432
S1130B10740440E060E080E00E94EA0B88E890E022
S1130B200E94FA00E8E88E2EE0E09E2EF4EB2F2ED1
S1130B301AE53324339480919400882309F4ACC0DB
S1130B4081508093940010922F0610922E0680916B
S1130B50950075E0A72E833008F44FC0C0908F0035
S1130B60E0909000009191002EE236E04FE256E0D2
S1130B7065E276E080918A000E94940455E0C52ED7
S1130B80E0908F0000919000209191004EE256E099
S1130B906FE276E089E990E00E942F0CC0908F000C
S1130BA0E0909000009191002EE236E04FE256E092
S1130BB065E276E0809189000E94940465E0C62E87
S1130BC0E0908F0000919000209191004EE256E059
S1130BD06FE276E089E990E00E942F0CC0908F00CC
S1130BE0E0909000009191002EE236E04FE256E052
S1130BF065E276E0809188004DC0823019F4C12C02
S1130C00E12C04C0C0908F00E0909000009191000E
S1130C102EE236E04FE256E065E276E0809120066F
S1130C200E9494048091950010932F0610922E0632
S1130C3045E0A42E813019F4C12CE12C04C0C090ED
S1130C408F00E0909000009191002EE236E04FE298
S1130C5056E065E276E080911F060E94940480913C
S1130C60950020922F0610922E0635E0A32E8111B6
S1130C7003C0C12CE12C04C0C0908F00E090900010
S1130C80009191002EE236E04FE256E065E276E014
S1130C9080911E060E94940480919300882309F495
S1130CA008C281508093930010922F06EDE2E093E6
S1130CB02E06809195008B3009F0C7C13092310621
S1130CC0809130068823C1F081508093300620E55E
S1130CD0E22E00E020E040E068E280E00E9444016F
S1130CE020E040E068E280E50E94440120E040E02A
S1130CF068E280EA0E9444016091890070E080E02B
S1130D0090E00E94EB0D20E030E040E752E40E94C6
S1130D10430D6B017C0160918A0070E080E090E0FB
S1130D200E94EB0D9B01AC01C701B6010E94D20CDD
S1130D306B017C016091880070E080E090E00E948B
S1130D40EB0D20E030E041E655E40E94430D9B01A9
S1130D50AC01C701B6010E94D20C6B017C01609307
S1130D601A0670931B0680931C0690931D06C0E818
S1130D70D0E09AE0A92E96E0B92E698170E080E077
S1130D8090E00E94EB0D20E030E040E752E40E9446
S1130D90430D2B013C01688170E080E090E00E94EB
S1130DA0EB0D9B01AC01C301B2010E94D20CF50111
S1130DB061937193819391935F0122968C169D06A2
S1130DC0E1F620910A0630910B0640910C065091F1
S1130DD00D06C701B6010E943E0D87FF0DC085E0D8
S1130DE0C82EE0908F0000919000209191004EE277
S1130DF056E06FE276E0C0C020910E0630910F06F7
S1130E004091100650911106C701B6010E943E0D93
S1130E1087FF39C005E0C02EE0908F00009190005C
S1130E20209191004EE256E06FE276E080E690E099
S1130E300E942F0CC0900A06D0900B06E0900C067E
S1130E40F0900D06A701960160911A0670911B0699
S1130E5080911C0690911D060E94D10C2B013C012F
S1130E60A701960160910E0670910F0680911006FD
S1130E70909111060E94D10C9B01AC01C301B201F7
S1130E800E94430D6FC020911206309113064091C9
S1130E90140650911506C701B6010E943E0D87FF46
S1130EA013C0D5E0CD2EE0908F00009190002091EA
S1130EB091004EE256E06FE276E088E690E00E9410
S1130EC02F0CFFEFFCBF5DC0209116063091170672
S1130ED04091180650911906C701B6010E943E0DB3
S1130EE0C5E0CC2EE0908F000091900020919100FD
S1130EF04EE256E06FE276E087FF3EC080E790E086
S1130F000E942F0CC0901206D0901306E090140695
S1130F10F0901506A701960160911A0670911B06C0
S1130F2080911C0690911D060E94D10C2B013C015E
S1130F30A701960160911606709117068091180614
S1130F40909119060E94D10C9B01AC01C301B2011E
S1130F500E94430D9B01AC0160E070E080E89FE3D8
S1130F600E94D10C20E030E04FE753E40E949D0E34
S1130F700E94BC0D6CBF05C088E790E00E942F0C56
S1130F801CBE10922F0610932E06B3E0CB2EE090D9
S1130F908F0000919000209191004EE256E06FE2A4
S1130FA076E08BE990E00E942F0C6CB770E080E053
S1130FB090E00E94EB0D23E333E343E250E40E940C
S1130FC0430D20E030E040E251E40E943E0D87FFF3
S1130FD00EC0E0908F0000919000209191004EE2AD
S1130FE056E06FE276E087E990E00E942F0CE090F3
S1130FF08F0000919000C09191006CB770E080E088
S113100090E00E94EB0D23E333E343E250E40E94BB
S1131010430D22E030E045E256E00E941305A3E0D0
S1131020CA2E2C2F4EE256E06FE276E00E942F0C7F
S1131030E0908F0000919000209191004EE256E0E4
S11310406FE276E080EA90E032C080913106882336
S113105081F181508093310630923006E0E5EE2E26
S113106000E020E040E068E280E00E94440120E0EB
S113107040E068E280E50E94440120E040E068E24C
S113108080EA0E94440129E020932F0686E480939D
S11310902E06F4E0CF2EE0908F0000919000209176
S11310A091004EE256E06FE276E084EA90E00E941E
S11310B02F0C80919200882309F43DCD81508093B8
S11310C0920010922F0687E880932E068091950057
S11310D073E0A72E8B3009F010C1C0908F00E09010
S11310E09000009191002EE236E04FE256E065E276
S11310F076E0809180000E94940403E0C02EE0908A
S11311008F0000919000209191004EE256E06FE232
S113111076E089E990E00E942F0CC0908F00E09067
S11311209000009191002EE236E04FE256E065E235
S113113076E0809181000E94940483E0C82EE090C0
S11311408F0000919000209191004EE256E06FE2F2
S113115076E08EEA90E00E942F0C10922F0680EA2F
S113116080932E06C0908F00E09090000091910033
S11311702EE236E04FE256E065E276E080918200AE
S11311800E94940493E0C92EE0908F000091900097
S1131190209191004EE256E06FE276E089E990E01A
S11311A00E942F0CC0908F00E0909000009191005D
S11311B02EE236E04FE256E065E276E0809183006D
S11311C00E94940423E0C22EE0908F0000919000CE
S11311D0209191004EE256E06FE276E087EB90E0DA
S11311E00E942F0C10922F0689EB80932E06C0903C
S11311F08F00E0909000009191002EE236E04FE2E3
S113120056E065E276E0809184000E94940433E025
S1131210C32EE0908F0000919000209191004EE247
S113122056E06FE276E089E990E00E942F0CC090CE
S11312308F00E0909000009191002EE236E04FE2A2
S113124056E065E276E0809185000E94940443E0D4
S1131250C42EE0908F0000919000209191004EE206
S113126056E06FE276E08DEB90E00E942F0C109236
S11312702F0682ED80932E06C0908F00E0909000A0
S1131280009191002EE236E04FE256E065E276E00E
S1131290809186000E94940453E0C52EE0908F0054
S11312A000919000209191004EE256E06FE276E0CA
S11312B089E990E00E942F0CC0908F00E09090008C
S11312C0009191002EE236E04FE256E065E276E0CE
S11312D0809187000E94940463E0C62EE0908F0002
S11312E000919000209191004EE256E06FE276E08A
S11312F084EC90E00E942F0C1ECC833019F4C12C96
S1131300E12C04C0C0908F00E09090000091910007
S11313102EE236E04FE256E065E276E0809180000E
S11313200E94940480919500843059F486E380935C
S11313302F0687E880932E06D3E0AD2EC12CE12C36
S11313400CC086E380932F0687E880932E06C3E0C3
S1131350AC2EC0908F00E0909000009191002EE29E
S113136036E04FE256E065E276E0809181000E942B
S113137094048091950010922F06853041F480EA00
S113138080932E06B3E0AB2EC12CE12C09C080EA79
S113139080932E06A3E0AA2EC0908F00E0909000C8
S11313A0009191002EE236E04FE256E065E276E0ED
S11313B0809182000E94940480919500863059F4B3
S11313C086E380932F0680EA80932E06F3E0AF2E07
S11313D0C12CE12C0CC086E380932F0680EA809315
S11313E02E06E3E0AE2EC0908F00E09090000091B6
S11313F091002EE236E04FE256E065E276E080911D
S113140083000E9494048091950010922F068730E7
S113141041F489EB80932E0673E0A72EC12CE12CB6
S113142009C089EB80932E0663E0A62EC0908F003E
S1131430E0909000009191002EE236E04FE256E0F9
S113144065E276E0809184000E9494048091950086
S1131450883059F486E380932F0689EB80932E0617
S113146053E0A52EC12CE12C0CC086E380932F06FB
S113147089EB80932E0643E0A42EC0908F00E09069
S11314809000009191002EE236E04FE256E065E2D2
S113149076E0809185000E949404809195001092DA
S11314A02F06893041F482ED80932E0633E0A32E7B
S11314B0C12CE12C09C082ED80932E0623E0A22EDC
S11314C0C0908F00E0909000009191002EE236E0F1
S11314D04FE256E065E276E0809186000E94940433
S11314E0809195008A3059F486E380932F0682ED2B
S11314F080932E0693E0A92EC12CE12C0CC086E328
S113150080932F0682ED80932E0683E0A82EC09050
S11315108F00E0909000009191002EE236E04FE2BF
S113152056E065E276E0809187000E94940403CB44
S1131530CF92DF92EF92FF920F931F93CF93DF939B
S1131540C8E8D0E0698170E080E090E00E94EB0D93
S113155020E030E040E752E40E94430D6B017C013F
S1131560688170E080E090E00E94EB0D9B01AC018B
S1131570C701B6010E94D20C6B017C016A8170E044
S113158080E090E00E94EB0D20E030E041E655E47D
S11315900E94430D9B01AC01C701B6010E94D20C0D
S11315A060931A0670931B0680931C0690931D0685
S11315B00AE016E0C0E8D0E0698170E080E090E0E5
S11315C00E94EB0D20E030E040E752E40E94430D1E
S11315D06B017C01688170E080E090E00E94EB0D7B
S11315E09B01AC01C701B6010E94D20CF8016083D3
S11315F07183828393836B8170E080E090E00E942A
S1131600EB0D20E030E040E752E40E94430D6B0113
S11316107C016A8170E080E090E00E94EB0D9B0108
S1131620AC01C701B6010E94D20CF8016483758332
S1131630868397836D8170E080E090E00E94EB0DDB
S113164020E030E040E752E40E94430D6B017C014E
S11316506C8170E080E090E00E94EB0D9B01AC0196
S1131660C701B6010E94D20CF80160877187828796
S113167093876F8170E080E090E00E94EB0D20E0A2
S113168030E040E752E40E94430D6B017C016E811F
S113169070E080E090E00E94EB0D9B01AC01C7017B
S11316A0B6010E94D20CF8016487758786879787F4
S11316B0DF91CF911F910F91FF90EF90DF90CF902A
S11316C0089587B3806B87BB88B3806F88BB8CE534
S11316D08DB91EB8A39AAB9AA29AAA9AAB9A87E834
S11316E093E10197F1F700C00000AB9881EE94E01C
S11316F00197F1F700C00000AB9A87E893E10197E6
S1131700F1F700C0000081E00E943F0183EC99E002
S11317100197F1F700C0000081E10E943F0183ECD2
S113172099E00197F1F700C000008AE30E943F01AD
S113173086E00E943A0183EC99E00197F1F700C03A
S1131740000086E30E943F0180E00E943A0183EC9E
S113175099E00197F1F700C000008AE20E943F017E
S113176080E00E943A0180E00E943A0180E00E94F9
S11317703A0180EF0E943A0183EC99E00197F1F776
S113178000C000008BE20E943F0180E00E943A0109
S113179080E00E943A0180E00E943A0180EF0E94BA
S11317A03A0183EC99E00197F1F700C0000081E26F
S11317B00E943F0183EC99E00197F1F700C000001B
S11317C089E20E943F0183EC99E00197F1F700C0A0
S11317D000000895FF920F931F93CF93DF93F82E89
S11317E0062F142F8AE20E943F0180E00E943A01F2
S11317F080E00E943A0180E00E943A0180EF0E945A
S11318003A018BE20E943F0180E00E943A0180E0AD
S11318100E943A0180E00E943A0180EF0E943A015E
S11318208CE20E943F01FF0CFF0C000F000F110F10
S1131830110FC0E0D0E08F2D0E943A01802F0E944A
S11318403A01812F0E943A012196C11581EED807F1
S113185091F7DF91CF911F910F91FF9008952F92EF
S11318603F924F925F926F927F928F929F92AF922C
S1131870BF92CF92DF92EF92FF920F931F93CF9379
S1131880DF93CDB7DEB727970FB6F894DEBF0FBE50
S1131890CDBF2C017F836E835A012B830C83ED8291
S11318A01C2D2C2C220C220C220C312CF201E30DC9
S11318B0F11DC080CC2009F45BC026E0C29E60010B
S11318C01124812C912CC601880D991DFC01E65F21
S11318D0FF4FFA83E983F12C87E0682E712CE981AC
S11318E0FA818081282F30E081E090E0062C02C04C
S11318F0880F991F0A94E2F782239323F5016081EC
S11319006F0DE12E892B21F00D812C814B8103C0B9
S113191000E020E040E0EE81FF8180810E944401EC
S1131920F1E06F1A7108F10E2FEF62167206B9F624
S1131930EE81FF818081810F803F30F0EE81FF8155
S11319401082F5018081820D8083F5018081803FC2
S113195028F0EE81FF811082F5011082FFEF8F1ACB
S11319609F0A26E08216910409F0ADCF33949ECFEE
S113197027960FB6F894DEBF0FBECDBFDF91CF918F
S11319801F910F91FF90EF90DF90CF90BF90AF9099
S11319909F908F907F906F905F904F903F902F908B
S11319A008955058BB27AA270E94E90C0C94630E93
S11319B00E94550E38F00E945C0E20F039F49F3FCF
S11319C019F426F40C94520E0EF4E095E7FB0C94F3
S11319D04C0EE92F0E94740E58F3BA17620773076E
S11319E08407950720F079F4A6F50C94960E0EF46E
S11319F0E0950B2EBA2FA02D0B01B90190010C011B
S1131A00CA01A0011124FF27591B99F0593F50F432
S1131A10503E68F11A16F040A22F232F342F44278A
S1131A20585FF3CF469537952795A795F040539582
S1131A30C9F77EF41F16BA0B620B730B840BBAF052
S1131A409150A1F0FF0FBB1F661F771F881FC2F7BD
S1131A500EC0BA0F621F731F841F48F487957795D1
S1131A606795B795F7959E3F08F0B0CF9395880F8B
S1131A7008F09927EE0F9795879508950E94280EF0
S1131A8008F481E008950E94570D0C94630E0E949F
S1131A905C0E58F00E94550E40F029F45F3F29F087
S1131AA00C944C0E51110C94970E0C94520E0E94EF
S1131AB0740E68F39923B1F3552391F3951B550BD9
S1131AC0BB27AA2762177307840738F09F5F5F4F0D
S1131AD0220F331F441FAA1FA9F335D00E2E3AF04C
S1131AE0E0E832D091505040E695001CCAF72BD064
S1131AF0FE2F29D0660F771F881FBB1F26173707B5
S1131B004807AB07B0E809F0BB0B802DBF01FF27E6
S1131B1093585F4F3AF09E3F510578F00C944C0E69
S1131B200C94970E5F3FE4F3983ED4F38695779533
S1131B306795B795F7959F5FC9F7880F911D96959F
S1131B40879597F90895E1E0660F771F881FBB1FFB
S1131B50621773078407BA0720F0621B730B840BA8
S1131B60BA0BEE1F88F7E09508950E94BC0D6894A7
S1131B70B1110C94970E08950E947C0E88F09F5723
S1131B8098F0B92F9927B751B0F0E1F0660F771F9D
S1131B90881F991F1AF0BA95C9F714C0B13091F093
S1131BA00E94960EB1E008950C94960E672F782F3C
S1131BB08827B85F39F0B93FCCF386957795679558
S1131BC0B395D9F73EF490958095709561957F4FC4
S1131BD08F4F9F4F0895E89409C097FB3EF490956A
S1131BE08095709561957F4F8F4F9F4F9923A9F0F2
S1131BF0F92F96E9BB279395F69587957795679581
S1131C00B795F111F8CFFAF4BB0F11F460FF1BC0C4
S1131C106F5F7F4F8F4F9F4F16C0882311F096E957
S1131C2011C0772321F09EE8872F762F05C0662305
S1131C3071F096E8862F70E060E02AF09A95660FBE
S1131C40771F881FDAF7880F9695879597F9089577
S1131C50990F0008550FAA0BE0E8FEEF16161706B9
S1131C60E807F907C0F012161306E407F50798F021
S1131C70621B730B840B950B39F40A2661F0232B3A
S1131C80242B252B21F408950A2609F4A140A695B6
S1131C908FEF811D811D089597F99F6780E870E09B
S1131CA060E008959FEF80EC089500240A941616CE
S1131CB0170618060906089500240A941216130636
S1131CC0140605060895092E0394000C11F48823C4
S1131CD052F0BB0F40F4BF2B11F460FF04C06F5FE0
S1131CE07F4F8F4F9F4F089557FD9058440F551FB6
S1131CF059F05F3F71F04795880F97FB991F61F08A
S1131D009F3F79F087950895121613061406551F00
S1131D10F2CF4695F1DF08C0161617061806991F6C
S1131D20F1CF86957105610508940895E894BB2761
S1131D3066277727CB0197F908950E94B00E0C947B
S1131D40630E0E94550E38F00E945C0E20F095231D
S1131D5011F00C944C0E0C94520E11240C94970E0A
S1131D600E94740E70F3959FC1F3950F50E0551FB8
S1131D70629FF001729FBB27F00DB11D639FAA27DC
S1131D80F00DB11DAA1F649F6627B00DA11D661F2B
S1131D90829F2227B00DA11D621F739FB00DA11D4C
S1131DA0621F839FA00D611D221F749F3327A00D06
S1131DB0611D231F849F600D211D822F762F6A2FA2
S1131DC011249F5750409AF0F1F088234AF0EE0F07
S1131DD0FF1FBB1F661F771F881F91505040A9F734
S1131DE09E3F510580F00C944C0E0C94970E5F3F6F
S1131DF0E4F3983ED4F3869577956795B795F79570
S1131E00E7959F5FC1F7FE2B880F911D96958795E7
S1131E1097F90895FA01EE0FFF1F30962105310559
S1131E20A1F16115710561F48038BFE39B0749F1A5
S1131E3068949038810561F08038BFEF9B0741F0CA
S1131E4099234AF5FF3FE1053105210519F1E8948D
S1131E500894E795D901AA2329F4AB2FBE2FF85F84
S1131E60D0F310C0FF5F70F4A695E0F7F73950F097
S1131E7019F0FF3A38F49F779F930DD00F9007FC29
S1131E809058089546F00C94520E60E070E080E89B
S1131E909FE308954FE79F775F934F933F932F936B
S1131EA00E9405102F913F914F915F910E949D0ECA
S1131EB00C94620F29F416F00C944C0E0C94960EAC
S1131EC00C94520E0E947C0EA8F39638A0F707F8E3
S1131ED00F92E8942BE33AEA48EB5FE70E94B30ED3
S1131EE00F920F920F924DB75EB70F920E944D1052
S1131EF0E4E5F0E00E94940F4F915F91EF91FF9120
S1131F00E595EE1FFF1F49F0FE57E0684427EE0FEA
S1131F10441FFA95E1F74195550B0E94C70F0F90A6
S1131F2007FE0C94BB0F0895DF93CF931F930F9379
S1131F30FF92EF92DF927B018C01689406C0DA2E47
S1131F40EF010E94B00EFE01E894A5912591359110
S1131F5045915591A6F3EF010E94E90CFE0197010A
S1131F60A801DA9469F7DF90EF90FF900F911F9129
S1131F70CF91DF9108959B01AC0160E070E080E8AF
S1131F809FE30C94430D0C944C0E0C9481100E940E
S1131F907C0ED8F39923C9F3940F511DA3F39150E8
S1131FA0504094F059F0882332F0660F771F881F51
S1131FB091505040C1F79E3F51052CF7880F911D59
S1131FC09695879597F908955F3FACF0983E9CF0FD
S1131FD0BB27869577956795B79508F4B160939577
S1131FE0C1F7BB0F58F711F460FFE8CF6F5F7F4F65
S1131FF08F4F9F4FE3CF0C94970E16F00C948110E3
S11320000C94520E68940C944C0E0E947C0EA8F30F
S11320109923C1F3AEF3DF93CF931F930F93FF92F2
S1132020C92FDD2788232AF02197660F771F881F81
S1132030DAF720E030E040E85FEB9FE3883920F0F6
S1132040803E38F021968F770E94D20CECE7F0E0C6
S113205004C00E94D20CE9EAF0E00E94940F8B01C4
S1132060BE01EC01FB2E6F5771097595771F880B24
S1132070990B0E94ED0D28E132E741E35FE30E94F2
S1132080B00EAF2D9801AE01FF900F911F91CF912B
S1132090DF910E94E90C0C94630EFA01DC01AA0F93
S11320A0BB1F9B01AC01BF5728F4222733274427C9
S11320B0507820C0B75190F4AB2F00244695379543
S11320C02795011CA395D2F3002071F0220F331F32
S11320D0441FB395DAF30ED00C94D10C6130710522
S11320E0A0E88A07B94630F49B01AC01662777273C
S11320F088279078309621F020833183428353835C
S113210008959F3F31F0915020F487957795679516
S1132110B795880F911D9695879597F90895991B02
S113212079E004C0991F961708F0961B881F7A95CA
S1132130C9F78095089597FB072E16F4009407D0ED
S113214077FD09D00E94AF1007FC05D03EF49095AE
S113215081959F4F0895709561957F4F0895AA1BAF
S1132160BB1B51E107C0AA1FBB1FA617B70710F07E
S1132170A61BB70B881F991F5A95A9F780959095B0
S1132180BC01CD010895EE0FFF1F0590F491E02DE1
S11321900994BB274A3031F4992322F4BDE2909587
S11321A081959F4F0C94D510BB27FB015527AA2777
S11321B0880F991FAA1FA41710F0A41B83955051D0
S11321C0B9F7A05DAA3308F0A95DA193009779F748
S11321D0B111B1931192CB010C94EE10DC01FC010E
S11321E0672F71917723E1F7329704C07C916D9347
S11321F070836291AE17BF07C8F30895F894FFCFB8
S1132200D0E0F1F1E2E5F200C4E5EDFC202020008D
S1132210C7E0EAE0F2202000CDEEF7FC2020200009
S113222008000A0012001400000008041705182D05
S1132230373C0101010B0130003A00EEF1E22E00BF
S113224025202000CDE0F1F2F0EEE9EAE00020D014
S1132250E0F1F1E2E5F20020C4E5EDFC0020C7E086
S1132260EAE0F20020CDEEF7FC00000000000000E0
S113227000FA0000000000600060000028FE28FE54
S113228028002454D6544800C20C106086000C5216
S1132290BA4C1200000060000000003844820000C4
S11322A000824438000000502050000010107C10C0
S11322B010000001020000000010101000000000D7
S11322C002000000020C106080007C8A92A27C0054
S11322D00242FE020200468A929266004482929270
S11322E06C0018284888FE00E4A2A2A29C003C527C
S11322F092920C00C0808E90E0006C9292926C00DE
S113230060929294780000002400000000022400EF
S11323100000102844820000242424240000824465
S11323202810000040808A9060003C425A4A3A00DB
S11323307E9090907E00FE9292926C007C828282CB
S11323404400FE8282827C00FE9292928200FE9081
S1132350909080007C8282A2BC00FE101010FE00CF
S11323600082FE82000004020202FC00FE202050D3
S11323708E00FE0202020000FE402040FE00FE40ED
S11323802010FE007C8282827C00FE90909060008F
S11323907C8282847A00FE9090906E006492929285
S11323A04C008080FE808000FC020202FC00F00CE5
S11323B0020CF000FE040804FE00C6281028C60023
S11323C080403E408000868A92A2C20000FE828243
S11323D000008060100C0200008282FE0000204099
S11323E080402000010101010100402000000000A4
S11323F0042A2A2A1E007E1222221C001C222222C7
S113240014001C2222127E001C2A2A2A1A00207E72
S1132410A0A00000192525253E00FE1020201E0046
S11324200020BC02000004020202BC0000FE0814EA
S113243022000080FC0202003E2018201E003E20E4
S113244020201E001C2222221C003F1424241800D9
S1132450182424143F003E1020201000122A2A2A97
S113246024000020FC2200003C0202023E0038044A
S1132470020438003C020E023E002214081422001A
S1132480390505053E0022262A32220000106C82FE
S113249000000000FE00000000826C100000182004
S11324A010083000000000000000000000000000E0
S11324B00000000000000000000000000000000018
S11324C00000000000000000000000000000000008
S11324D000000000000000000000000000000000F8
S11324E000000000000000000000000000000000E8
S11324F000000000000000000000000000000000D8
S113250000000000000000000000000000000000C7
S113251000000000000000000000000000000000B7
S113252000000000000000000000000000000000A7
S11325300000000000000000000000000000000097
S11325400000000000000000000000000000000087
S11325500000000000000000000000000000000077
S11325600000000000000000000000000000000067
S11325700000000000000000000000000000000057
S11325800000000000000000000000000000000047
S1132590000000000000000000003EAA2AAA220059
S11325A00000000000000000000000000000000027
S11325B00000000000000000000000000000000017
S11325C00000000000000000000000000000000007
S11325D000000000000000000000000000000000F7
S11325E000000000000000000000000000000000E7
S11325F000000000000000000000000000000000D7
S113260000000000000000000000000000000000C6
S113261000000000000000000000000000000000B6
S1132620000000000000000000007E9090907E00FA
S1132630FEA2A2A29C00FE9292926C00FE80808078
S11326408000031EE282FF00FE9292928200DE204E
S1132650FE20DE004482A2A25C00FE040830FE00DC
S11326600000000000000000000000000000000066
S11326700000000000000000FE101010FE0000002A
S113268000000000000000000000FE909090600038
S11326900000000000000000000000000000000036
S11326A00000000000000000000000000000000026
S11326B00000000000000000000000000000000016
S11326C00000000000000000000000000000000006
S11326D000000000000000000000000000000000F6
S11326E000000000000000000000042A2A2A1E0046
S11326F00000000000003E2A2A2A14000000000006
S113270000000000000000001C2A2A2A1A00000011
S1132710000000000000000000003E0408103E001D
S11327203E8448903E003E08081422000000000049
S113273000000000000000003E0808083E001C22C3
S113274022221C000000000000003F142424180072
S11327501C222222140020203E2020000000000021
S11327600000000000000000000000000000000065
S113277000000000300808083E00000000000000CF
S11327800000000000000000000000000000000045
S113279000003E0A0A0A04000000000000000000D5
S10D27A0000000000000000000002B
S9030000FC
