:100000000C9436000C949D040C945E000C945E00DD
:100010000C945E000C945E000C945E000C94ED0455
:100020000C945E000C945E000C945E000C945E00D8
:100030000C945E000C945E000C945E000C945E00C8
:100040000C945E000C945E000C945E000C945E00B8
:100050000C945E0002022102210221020502080224
:100060000B020E021102140217026E0511241FBEAC
:10007000CFE5D8E0DEBFCDBF15E0A0E6B0E0E8ED0B
:10008000F1E102C005900D92A43CB107D9F725E03B
:10009000A4ECB5E001C01D92A83DB207E1F710E065
:1000A000C6E3D0E004C02197FE010E94D107C5330A
:1000B000D107C9F70E9442020C94EA080C94000090
:1000C000982F9695969596959E71292F220F220F1F
:1000D000920F8F70890F08956AE00E94B107292F4F
:1000E00030E1839FC0011124822B089584EA86BFEA
:1000F00006B607FEFDCF089583B984E886BF06B62D
:1001000007FEFDCF089584EC86BF06B607FEFDCF3F
:1001100083B10895CF93DF93EC0188E280B981B178
:1001200081B90E94760080ED0E947C0080E00E94F0
:100130007C0088810E946C000E947C0089810E9462
:100140006C000E947C008A810E946C000E947C00EE
:100150008B810E946C000E947C008C810E946C004C
:100160000E947C008D810E946C000E947C008E8128
:100170000E946C000E947C0080E10E947C0084E967
:1001800086BFDF91CF910895CF93DF93EC0182E496
:1001900080B981B181B90E94760080ED0E947C0017
:1001A00080E00E947C000E94760081ED0E947C002D
:1001B0000E9483000E94600088830E9483000E9446
:1001C000600089830E9483000E9460008A830E94ED
:1001D00083000E9460008B830E9483000E94600065
:1001E0008C830E9483000E9460008D8384E886BF18
:1001F00006B607FEFDCF83B10E9460008E8384E9BE
:1002000086BFDF91CF9108958091C9059091CA056D
:100210000197C9F51092CA051092C9058091C705CA
:100220009091C8058230910599F083309105F1F0E5
:10023000019749F58091C4058F5F8C3318F4809342
:10024000C40502C01092C40581E0809376001BC0F3
:100250008091C5058F5F8C3318F48093C50502C06B
:100260001092C50581E0809375000DC08091C60590
:100270008F5F883118F48093C60502C01092C605BE
:1002800081E0809374008091C9059091CA0502971E
:1002900099F51092CA051092C9058091C7059091F1
:1002A000C8058230910589F083309105D1F001971E
:1002B00019F58091C40581508C3308F08BE380934D
:1002C000C40581E08093760017C08091C5058150F8
:1002D0008C3308F08BE38093C50581E08093750033
:1002E0000BC08091C6058150883108F087E180936A
:1002F000C60581E0809374002091C9053091CA053C
:100300002330310509F065C08091C7059091C8057B
:10031000AC01445051094830510508F496C0109280
:10032000CA051092C9058130910509F43FC0D4F483
:10033000892B09F086C081E090E09093C8058093F6
:10034000C705809376008093CC0580916C008093E4
:10035000C40580916D008093C50580916E008093E7
:10036000C60537C08230910559F1039709F069C07D
:100370001092C8051092C70581E0809376008093A3
:100380007500809374008093CC058091C4058093A0
:100390006C008091C50580936D008091C6058093A7
:1003A0006E008CE690E00E948A0013C082E090E02C
:1003B0009093C8058093C70581E08093750007C0BE
:1003C0003093C8052093C70581E080937400809323
:1003D000CC058091C9059091CA050497B1F5E091CB
:1003E000C705F091C805CF010197039770F11092EE
:1003F000CA051092C905EB30F10518F5E65DFF4F0F
:100400000C94D10784E090E014C085E090E011C026
:1004100086E090E00EC087E090E00BC088E090E0BE
:1004200008C089E090E005C08AE090E002C08BE05F
:1004300090E09093C8058093C70581E08093CB0539
:1004400008951092C8051092C70508958EE398E3A9
:100450009BBD8ABD8FB58FBD8EB58D608EBD89B7B2
:10046000806189BF789408958BB780648BBF85B70E
:100470008A6085BF84B784BF789408958FEF8BBB63
:100480001ABA0895CF93DF9300D000D01F92CDB752
:10049000DEB72FEF8FE794E0215080409040E1F7E6
:1004A00000C000000E9434020E943E020E94260208
:1004B0008CE690E00E94C4000E94F8050E940606A7
:1004C00060917E0070917F00809180000E94940670
:1004D00060E080E00E9482068CE3E82EF12C6090C0
:1004E0008100709082001091830069827A821B8360
:1004F0006C827D82212E362C472C512E0E9437088B
:100500006EE170E00E94BD07B82E0E943708B70167
:100510000E94BD07C82E0E9437086EE170E00E945D
:10052000BD07D82E0E9404012091C7053091C8054F
:10053000809176002130310529F1882309F44AC0E1
:100540001092760060E084EB0E94820680916C003D
:100550008A3040F425E04B2D5C2D6D2D88E790E02E
:100560000E948C0780916C004AE050E06DEC75E0D1
:1005700090E00E94470825E04B2D5C2D6D2D0E94D8
:100580008C0728C0882361F11092760060E084EB2C
:100590000E9482068091C4058A3040F425E0432DF4
:1005A000542D652D88E790E00E948C078091C4054A
:1005B0004AE050E06DEC75E090E00E94470825E0CD
:1005C000432D542D652D0E948C078091CC058111FF
:1005D0001092CC058091C7059091C805029769F1EA
:1005E00080917500882309F473C01092750060E053
:1005F0008AE50E94820680916D008A3040F425E0F1
:100600004B2D5C2D6D2D88E790E00E948C0780912A
:100610006D004AE050E06DEC75E090E00E94470804
:1006200025E04B2D5C2D6D2D0E948C0725E04B2D78
:100630005C2D6D2D8AE790E049C08091750088237C
:1006400009F44CC01092750060E08AE50E948206B1
:100650008091C5058A3040F425E04C815D81622D92
:1006600088E790E00E948C078091C5054AE050E041
:100670006DEC75E090E00E94470825E04C815D81BB
:10068000622D0E948C078091CC05882309F110927D
:10069000CC0560E084EB0E9482068091C4058A301C
:1006A00040F425E04B2D5C2D6D2D88E790E00E94F5
:1006B0008C078091C4054AE050E06DEC75E090E055
:1006C0000E94470825E04B2D5C2D6D2D0E948C0764
:1006D0008091C7059091C805039769F180917400D6
:1006E000882309F473C01092740060E080E00E94D7
:1006F000820680916E008A3040F425E04B2D5C2DFF
:100700006D2D88E790E00E948C0780916E004AE092
:1007100050E06DEC75E090E00E94470825E04B2D1D
:100720005C2D6D2D0E948C0725E04B2D5C2D6D2DD1
:100730008AE790E049C080917400882309F44CC096
:100740001092740060E080E00E9482068091C605ED
:100750008A3040F425E049815A816B8188E790E036
:100760000E948C078091C6054AE050E06DEC75E070
:1007700090E00E94470825E049815A816B810E94E0
:100780008C078091CC05882309F11092CC0560E09C
:100790008AE50E9482068091C5058A3040F425E0F2
:1007A0004B2D5C2D6D2D88E790E00E948C07809189
:1007B000C5054AE050E06DEC75E090E00E94470806
:1007C00025E04B2D5C2D6D2D0E948C078091C70577
:1007D0009091C8050497B1F080917300882309F4C3
:1007E0004EC01092730068E880E00E9482068091FB
:1007F00064004AE050E06DEC75E090E00E9447082C
:1008000023E038C0809173008823C9F110927300EF
:1008100068E880E00E948206809164004AE050E02F
:100820006DEC75E090E00E94470823E0A301612F82
:100830000E948C078091CB05882309F11092CB058B
:1008400060E080E00E9482068091C6058A3040F414
:1008500025E04B2D5C2D6D2D88E790E00E948C07E4
:100860008091C6054AE050E06DEC75E090E00E9492
:10087000470825E04B2D5C2D6D2D0E948C0762ED05
:1008800084EB0E9482060E9437084C010E943708C0
:100890005C010E9437086C014AE050E06DEC75E0A5
:1008A0008091C7059091C8050E944708FC01C401CA
:1008B0006EE170E00E94BD07282FC501B7010E94BC
:1008C000BD07482FC6016EE170E00E94BD0703E03E
:1008D000682FCF010E947D0763E08CE790E00E94C3
:1008E0009F0762ED82ED0E9482060E9437084C014C
:1008F0000E9437085C010E9437086C0180917700E4
:100900004AE050E06DEC75E090E00E944708FC0181
:10091000C4016EE170E00E94BD07282FC501B70138
:100920000E94BD07482FC6016EE170E00E94BD071E
:10093000682FCF010E947D07E1CD1F920F920FB665
:100940000F9211242F938F939F93EF93FF93F8941B
:100950002FEF8FE392E0215080409040E1F700C0FC
:1009600000008BE099B39E3F91F099B39D3F79F0E1
:1009700099B39B3F61F099B3973F49F0EFEFF7E4EC
:100980003197F1F700C00000815061F71CC089B3B6
:100990008B3F69F483E090E004C08E3FA1F481E0D6
:1009A00090E09093CA058093C90578940CC08C3F61
:1009B00028F4873F41F484E090E0F3CF8D3F69F75E
:1009C00082E090E0EECFFF91EF919F918F912F9178
:1009D0000F900FBE0F901F9018951F920F920FB699
:1009E0000F9211242F933F934F935F936F937F93B5
:1009F0008F939F93AF93BF93EF93FF93F89480915E
:100A00006C008F5F80936C002091C7053091C80502
:100A1000215031092330310530F091E09093760078
:100A20008C3370F425C08C3318F110926C008091D7
:100A30006D008F5F80936D008C3308F047C01CC041
:100A400010926C0080916D008F5F80936D00909389
:100A500075008C3368F010926D0080916E008F5F8E
:100A600080936E0090937400883110F010926E00A5
:100A700080916C0081110EC080916D0081110AC0BF
:100A800080917700882331F0109277008CE690E017
:100A90000E94C40080916C00811106C080916D009D
:100AA000813011F4809377007894FF91EF91BF919A
:100AB000AF919F918F917F916F915F914F913F91F6
:100AC0002F910F900FBE0F901F90189510926D00F0
:100AD00080916E008F5F80936E00C6CFE4ECF5E0EE
:100AE000ACE6B0E08C91808311968C911197818354
:100AF00012968C91828308958FB9779BFECF0895CB
:100B0000CF92DF92EF92FF920F931F93CF93DF93D9
:100B1000182FD62FC42FF22EAA988AE20E947C05A5
:100B2000AA9A80E00E947C05812F0E947C058C2F70
:100B300090E0810F911D0197892F0E947C058FEF16
:100B40008C0F810F0E947C05AA988BE20E947C0585
:100B5000AA9A80E00E947C058D2F0E947C058F2D33
:100B600090E08D0F911D0197892F0E947C058FEFDA
:100B70008F0D8D0F0E947C05AA988CE20E947C0547
:100B8000AA9ACF9DE0011124F12C88E0089F8001F2
:100B90001124C70123E0959587952A95E1F7082B45
:100BA00035E0EE0CFF1C3A95E1F7EC28C12CD12C76
:100BB000CC15DD0551F0802F0E947C058E2D0E9402
:100BC0007C058FEFC81AD80AF3CFDF91CF911F9120
:100BD0000F91FF90EF90DF90CF900895AA9A8FB970
:100BE000779BFECF0895AA988FB9779BFECF089583
:100BF00087B3806B87BB88B3806F88BB8CE58DB96A
:100C00001EB8A39AAB9AA29AAA9A0895AB9A81EEBB
:100C100094E00197F1F700C00000AB9881EE94E0FA
:100C20000197F1F700C00000AB9A81EE94E00197C4
:100C3000F1F700C0000081E00E94F30583EC99E029
:100C40000197F1F700C0000081E10E94F30583ECF9
:100C500099E00197F1F700C000008AE30E94F305D4
:100C600085E00E94EE0583EC99E00197F1F700C062
:100C7000000086E30E94F30580E00E94EE0583EC0D
:100C800099E00197F1F700C000008AE20E94F305A5
:100C900080E00E94EE0580E00E94EE0580E00E9468
:100CA000EE0580EF0E94EE0583EC99E00197F1F7E5
:100CB00000C000008BE20E94F30580E00E94EE0578
:100CC00080E00E94EE0580E00E94EE0580EF0E9429
:100CD000EE0583EC99E00197F1F700C0000081E296
:100CE0000E94F30583EC99E00197F1F700C0000042
:100CF00089E20E94F30583EC99E00197F1F700C0C7
:100D0000000008958093D7056093D6050895CF928B
:100D1000EF920F93813F20F4613F10F40E94800511
:100D20000F91EF90CF900895CF92EF920F93C82E2E
:100D3000E72E062F20EF40EF60E080E00E94800564
:100D40000F91EF90CF9008952F923F924F925F9224
:100D50006F927F928F929F92AF92BF92CF92DF92CB
:100D6000EF92FF920F931F93CF93DF9300D000D0A9
:100D700000D0CDB7DEB76B834C83F22ED02EBE2CC5
:100D80003C2C9091D70546E0A49E90011124290F98
:100D9000311D1A2D110F110F110F213F31053CF09C
:100DA0001092D7059091D605910F9093D60596E0B5
:100DB000899F300111241E821D8244244394512CAA
:100DC0008D819E81860D971DFC01EC53F040FA83C6
:100DD000E983212C87E0882E912CE981FA8180819A
:100DE000282F30E0C201082C02C0880F991F0A94F6
:100DF000E2F7822393236091D605620D892B21F0BF
:100E0000CF2CEC800B8103C0C32CEB2C0D2D2A2D95
:100E10004A2D8091D7050E948706F1E08F1A91082C
:100E20002A0C2FEF82169206C1F68091D7058A0D03
:100E3000803F18F48093D70507C01092D7058091A2
:100E4000D605810F8093D6058091D605803F20F08E
:100E50001092D7051092D6058D819E8101969E83B2
:100E60008D83069709F0ACCF26960FB6F894DEBFB7
:100E70000FBECDBFDF91CF911F910F91FF90EF90EB
:100E8000DF90CF90BF90AF909F908F907F906F90AA
:100E90005F904F903F902F9008957F928F929F92F6
:100EA000AF92BF92CF92DF92EF92FF920F931F9378
:100EB000CF93DF93162FF42ED22EB02E9E2C8C2C97
:100EC0007A2CEC018991882351F0A72CC82CE92CAD
:100ED0000B2D2D2D4F2D612F0E94A406F3CFDF91F6
:100EE000CF911F910F91FF90EF90DF90CF90BF9027
:100EF000AF909F908F907F900895AF92CF92EF9296
:100F00000F93A02EC12CE12C00E00E944D070F9101
:100F1000EF90CF90AF900895AF92CF92EF920F9352
:100F2000342F452FA22EC12CE12C00E0262F632F59
:100F30000E944D070F91EF90CF90AF900895AF9220
:100F4000CF92EF920F93A62EC12CE12C00E02FE15F
:100F50004DE36FE10E944D070F91EF90CF90AF905E
:100F60000895991B79E004C0991F961708F0961B05
:100F7000881F7A95C9F78095089597FB072E16F478
:100F8000009407D077FD09D00E94D70707FC05D051
:100F90003EF4909581959F4F0895709561957F4F90
:100FA0000895EE0FFF1F0590F491E02D0994AA1B00
:100FB000BB1B51E107C0AA1FBB1FA617B70710F044
:100FC000A61BB70B881F991F5A95A9F78095909576
:100FD000BC01CD0108958F929F92AF92BF92CF92A4
:100FE000DF92EF92FF92CF93DF93EC0168817981DA
:100FF0008A819B81611571058105910521F464E267
:1010000079ED8BE597E02DE133EF41E050E00E9470
:10101000870849015A019B01AC01A7EAB1E40E948B
:10102000A6086B017C01ACEEB4EFA50194010E940F
:10103000B408DC01CB018C0D9D1DAE1DBF1DB7FF9B
:1010400003C00197A109B04888839983AA83BB8311
:101050009F77DF91CF91FF90EF90DF90CF90BF907F
:10106000AF909F908F9008950E94EB07089580E6BF
:1010700090E00E94EB070895A0E0B0E0809360004C
:1010800090936100A0936200B0936300089545328D
:10109000510520F4423010F00C945208FB011082EC
:1010A000CB010895BB274A3031F4992322F4BDE2E5
:1010B000909581959F4F0C945E08BB27FB015527A7
:1010C000AA27880F991FAA1FA41710F0A41B8395A5
:1010D0005051B9F7A05DAA3308F0A95DA19300971C
:1010E00079F7B111B1931192CB010C947708DC011F
:1010F000FC01672F71917723E1F7329704C07C914F
:101100006D9370836291AE17BF07C8F30895052EE3
:1011100097FB1EF400940E949E0857FD07D00E9482
:10112000B90807FC03D04EF40C949E0850954095E6
:10113000309521953F4F4F4F5F4F08959095809583
:10114000709561957F4F8F4F9F4F08950E94DB08E8
:10115000A59F900DB49F900DA49F800D911D11240B
:101160000895B7FF0C94A6080E94A608821B930B53
:101170000895A1E21A2EAA1BBB1BFD010DC0AA1FD8
:10118000BB1FEE1FFF1FA217B307E407F50720F0F0
:10119000A21BB30BE40BF50B661F771F881F991F6B
:1011A0001A9469F760957095809590959B01AC01B4
:1011B000BD01CF010895A29FB001B39FC001A39FBD
:1011C000700D811D1124911DB29F700D811D112480
:0811D000911D0895F894FFCF72
:1011D800010000000A000C001200140000000001C9
:1011E800010118010101010130003A00200000004E
:1011F800001F000000000000000000FA00000000CE
:1012080000600060000028FE28FE28002454D65400
:101218004800C20C106086000C52BA4C1200000044
:10122800600000000038448200000082443800005A
:1012380000502050000010107C1010000001020027
:101248000000001010100000000002000000020C56
:10125800106080007C8A92A27C000242FE0202009A
:10126800468A92926600448292926C0018284888B6
:10127800FE00E4A2A2A29C003C5292920C00C08004
:101288008E90E0006C9292926C006092929478003A
:1012980000002400000000022400000010284482FE
:1012A80000002424242400008244281000004080E8
:1012B8008A9060003C425A4A3A007E9090907E00A4
:1012C800FE9292926C007C8282824400FE8282822C
:1012D8007C00FE9292928200FE90909080007C8228
:1012E80082A2BC00FE101010FE000082FE820000E8
:1012F80004020202FC00FE2020508E00FE020202C0
:101308000000FE402040FE00FE402010FE007C82CF
:1013180082827C00FE90909060007C8282847A00B9
:10132800FE9090906E00649292924C008080FE80B5
:101338008000FC020202FC00F00C020CF000FE042B
:101348000804FE00C6281028C60080403E408000E1
:10135800868A92A2C20000FE828200008060100C81
:101368000200008282FE000020408040200001012F
:1013780001010100402000000000042A2A2A1E0062
:101388007E1222221C001C22222214001C2222125D
:101398007E001C2A2A2A1A00207EA0A000001925F7
:1013A80025253E00FE1020201E000020BC02000063
:1013B80004020202BC0000FE081422000080FC02A5
:1013C80002003E2018201E003E2020201E001C2265
:1013D80022221C003F1424241800182424143F003F
:1013E8003E1020201000122A2A2A24000020FC2265
:1013F80000003C0202023E003804020438003C02AD
:101408000E023E00221408142200390505053E008C
:1014180022262A32220000106C8200000000FE0002
:10142800000000826C100000182010083000000036
:1014380000000000000000000000000000000000A4
:101448000000000000000000000000000000000094
:101458000000000000000000000000000000000084
:101468000000000000000000000000000000000074
:101478000000000000000000000000000000000064
:101488000000000000000000000000000000000054
:101498000000000000000000000000000000000044
:1014A8000000000000000000000000000000000034
:1014B8000000000000000000000000000000000024
:1014C8000000000000000000000000000000000014
:1014D8000000000000000000000000000000000004
:1014E80000000000000000000000000000000000F4
:1014F80000000000000000000000000000000000E4
:1015080000000000000000000000000000000000D3
:1015180000000000000000000000000000000000C3
:10152800000000003EAA2AAA2200000000000000D5
:1015380000000000000000000000000000000000A3
:101548000000000000000000000000000000000093
:101558000000000000000000000000000000000083
:101568000000000000000000000000000000000073
:101578000000000000000000000000000000000063
:101588000000000000000000000000000000000053
:101598000000000000000000000000000000000043
:1015A8000000000000000000000000000000000033
:1015B800000000007E9090907E00FEA2A2A29C00F7
:1015C800FE9292926C00FE8080808000031EE28270
:1015D800FF00FE9292928200DE20FE20DE0044820E
:1015E800A2A25C00FE040830FE000000000000001B
:1015F80000000000000000000000000000000000E3
:101608000000FE101010FE000000000000000000A6
:1016180000000000FE9090906000000000000000B4
:1016280000000000000000000000000000000000B2
:1016380000000000000000000000000000000000A2
:101648000000000000000000000000000000000092
:101658000000000000000000000000000000000082
:101668000000000000000000000000000000000072
:1016780000000000042A2A2A1E00000000000000C2
:101688003E2A2A2A14000000000000000000000082
:1016980000001C2A2A2A1A0000000000000000008E
:1016A800000000003E0408103E003E8448903E00C2
:1016B8003E0808142200000000000000000000009E
:1016C80000003E0808083E001C2222221C000000E0
:1016D800000000003F14242418001C2222221400B9
:1016E80020203E2020000000000000000000000034
:1016F80000000000000000000000000000003008AA
:1017080008083E0000000000000000000000000083
:101718000000000000000000000000003E0A0A0A65
:1017280004000000000000000000000000000000AD
:0417380000000000AD
:00000001FF
