:100000000C942A000C9447000C9447000C94470071
:100010000C9447000C9447000C9447000C94470044
:100020000C9447000C9447000C9447000C94470034
:100030000C9447000C9447000C9447000C94470024
:100040000C9447000C9447000C9447000C94470014
:100050000C94470011241FBECFE5D8E0DEBFCDBF12
:1000600010E0A0E6B0E0ECE0F4E002C005900D92F4
:10007000A636B107D9F720E0A6E6B0E001C01D9290
:10008000A636B207E1F70E9449000C9404020C94D2
:1000900000002FEF8FEF98E0215080409040E1F773
:1000A00000C000000E94E9000E94F700609160001B
:1000B00070916100809162000E94F601E0906300FF
:1000C000F09064000091650022E342E364E684E678
:1000D0000E94E701FFCF8FB9779BFECF0895CF92A3
:1000E000DF92EF92FF920F931F93CF93DF93182F1E
:1000F000F62ED42FC22FAA988AE20E946B00AA9AE9
:1001000080E00E946B00812F0E946B00CE2CD12CCE
:10011000C601810F911D0197892F0E946B008FEFFF
:100120008E0D810F0E946B00AA988BE20E946B00DB
:10013000AA9A80E00E946B008F2D0E946B00CF0C6A
:10014000D11C81E0C81AD1088D2D0E946B008FEF61
:100150008F0D8E0D0E946B00AA988CE20E946B009E
:10016000AA9AEE9C700111242C2F30E088E0D89FD1
:10017000E0011124C90143E0959587954A95E1F77F
:10018000C82B55E0220F331F5A95E1F7022BC12CE3
:10019000D12CEC14FD0451F08C2F0E946B00802FA9
:1001A0000E946B008FEFC81AD80AF3CFDF91CF916E
:1001B0001F910F91FF90EF90DF90CF900895AA9A32
:1001C0008FB9779BFECF0895AA988FB9779BFECF02
:1001D000089587B3806B87BB88B3806F88BB8CE53D
:1001E0008DB91EB8A39AAB9AA29AAA9A0895AB9A0F
:1001F00081EE94E00197F1F700C00000AB9881EE2A
:1002000094E00197F1F700C00000AB9A81EE94E012
:100210000197F1F700C0000081E00E94E40083EC48
:1002200099E00197F1F700C0000081E10E94E4002D
:1002300083EC99E00197F1F700C000008AE30E9487
:10024000E40085E00E94DF0083EC99E00197F1F77C
:1002500000C0000086E30E94E40080E00E94DF000E
:1002600083EC99E00197F1F700C000008AE20E9458
:10027000E40080E00E94DF0080E00E94DF0080E078
:100280000E94DF0080EF0E94DF0083EC99E001977D
:10029000F1F700C000008BE20E94E40080E00E94C1
:1002A000DF0080E00E94DF0080E00E94DF0080EF3E
:1002B0000E94DF0083EC99E00197F1F700C0000095
:1002C00081E20E94E40083EC99E00197F1F700C01D
:1002D000000089E20E94E40083EC99E00197F1F7C5
:1002E00000C000000895CF92DF92EF92FF920F932B
:1002F0001F93CF93DF93813F08F060C0613F08F008
:100300005DC0D22EC42FD62F182FAA988AE20E9441
:100310006B00AA9A80E00E946B00812F0E946B0004
:100320008D2D90E0810F911D0197892F0E946B0008
:100330008FEF8D0D810F0E946B00AA988BE20E94B7
:100340006B00AA9A80E00E946B008D2F0E946B00C8
:100350008C2F90E08D0F911D0197892F0E946B00CB
:100360008FEF8C0F8D0F0E946B00AA988CE20E9479
:100370006B00AA9ADC9EE0011124F12C88E0089F12
:1003800080011124C70123E0959587952A95E1F70F
:10039000082B35E0EE0CFF1C3A95E1F7EC28C12C58
:1003A000D12CCC15DD0551F0802F0E946B008E2DD5
:1003B0000E946B008FEFC81AD80AF3CFDF91CF915C
:1003C0001F910F91FF90EF90DF90CF900895CF9203
:1003D000EF92FF920F939E2DC02EEF2C092F0E94BB
:1003E00073010F91FF90EF90CF900895EF920F93CC
:1003F000462F272F90EFE92E082F60E080E00E9423
:0C0400006F000F91EF900895F894FFCF6B
:06040C001F3D1F1F000050
:00000001FF
