:100000000C948E000C94CF050C94B6000C94B600A2
:100010000C94B6000C94B6000C94B6000C9419061F
:100020000C94B6000C94B6000C94B6000C94B60078
:100030000C94B6000C94B6000C94B6000C94B60068
:100040000C94B6000C94B6000C94B6000C94B60058
:100050000C94B600EA01F8010602140251027C0277
:10006000B902E40221034C03610381038D03990368
:10007000A503B803D6030B04320467048E04C3043B
:100080006705CC05CC05CC0572057B0584058D057F
:1000900096059F05A805B10507634236B79BD8A70B
:1000A0001A39685618AEBAAB558C1D3CB7CC57639D
:1000B000BD6DEDFD753EF6177231BF000000803F4B
:1000C00008000000BE922449123EABAAAA2ABECD67
:1000D000CCCC4C3E00000080BEABAAAAAA3E0000D9
:1000E0000000BF000000803F0000000000084178D1
:1000F000D3BB4387D1133D190E3CC3BD4282AD2B08
:100100003E68EC8276BED98FE1A93E4C80EFFFBEFF
:1001100001C4FF7F3F0000000000EC0D11241FBE52
:10012000CFE5D8E0DEBFCDBF16E0A0E6B0E0E4E268
:10013000FAE202C005900D92A430B107D9F726E08B
:10014000A4E0B6E001C01D92AA32B207E1F710E0C8
:10015000CEE8D0E004C02197FE010E94F310CD3814
:10016000D107C9F70E9444070C9410150C940000A5
:1001700082E480B981B181B9089584EA86BF06B668
:1001800007FEFDCF81B1089583B984E886BF06B626
:1001900007FEFDCF81B1089584EC86BF06B607FE49
:1001A000FDCF81B183B1089584E886BF06B607FE0E
:1001B000FDCF81B183B10895982F96959695969528
:1001C0009E71292F220F220F920F8F70890F089591
:1001D0006AE00E94D310292F30E1839FC0011124CF
:1001E000822B0895CF93DF93EC010E94B8000E9408
:1001F000BD0080ED0E94C40080E00E94C4008881A0
:100200000E94E8000E94C40089810E94E8000E94C8
:10021000C4008A810E94E8000E94C4008B810E9471
:10022000E8000E94C4008C810E94E8000E94C40083
:100230008D810E94E8000E94C4008E810E94E80027
:100240000E94C40080E10E94C40084E986BFDF915F
:10025000CF910895CF93DF93EC010E94B8000E94E4
:10026000BD0080ED0E94C40080E00E94C4000E9496
:10027000BD0081ED0E94C4000E94CC000E94DC0001
:1002800088830E94CC000E94DC0089830E94CC00FD
:100290000E94DC008A830E94CC000E94DC008B83D9
:1002A0000E94CC000E94DC008C830E94CC000E9443
:1002B000DC008D830E94D4000E94DC008E8384E9E0
:1002C00086BFDF91CF910895E199FECF90E09FBB6B
:1002D0008EBB6DBBE29AE19A0895E199FECF90E062
:1002E0009FBB8EBBE09A8DB308958CB78CBF83B74C
:1002F000896683BFBB9A789408958EE398E39BBD8B
:100300008ABD8FB58FBD8EB58D608EBD89B780617A
:1003100089BF789408958BB780648BBF85B78A6056
:1003200085BF84B784BF789408958FEF8BBB1ABACA
:1003300008950F931F93CF93DF93C8E6D0E000E7B3
:1003400010E088810E946D01F801808389810E94FC
:100350006D01F801818322960E5F1F4FF0E0C037D8
:10036000DF0779F7DF91CF911F910F9108950F93D8
:100370001F93CF93DF93C0E7D0E008E610E06881D9
:10038000F80180810E9464016981F80181810E94E5
:10039000640122960E5F1F4FF0E0C837DF0779F740
:1003A000DF91CF911F910F91089580911C068130AC
:1003B00009F092C110921C06E0911B068E2F90E06E
:1003C000FC013197EB30F10508F0E6C3E65DFF4F25
:1003D0000C94F310809118068F5F8C3318F480937F
:1003E000180602C01092180681E08093890074C13B
:1003F000809119068F5F8C3318F48093190602C020
:100400001092190681E08093880066C180911A06D7
:100410008F5F883118F480931A0602C010921A0672
:1004200081E08093870058C1209170008091720014
:1004300090917300422F50E04F5F5F4F3CE3349F39
:10044000B001359F700D112430917100630F711D43
:10045000492F50E03CE3839F400D511D1124641748
:10046000750724F42F5F2093700010C080937000F4
:100470009150909371009C3330F0815080937000C4
:100480008BE38093710081E0809385008091700000
:10049000883118F087E18093700081E080938600B6
:1004A0001BC1809170004091710050917200242F07
:1004B00030E06CE3869F200D311D11242F5F3F4FEC
:1004C0008091730090E06CE3569F800D911D112484
:1004D000281739071CF44F5F409371008091710019
:1004E0008C3330F08BE38093710081E08093860041
:1004F00081E080938500F0C02091720080917400AB
:1005000090917500422F50E04F5F5F4F3CE3349F66
:10051000B001359F700D112430917300630F711D70
:10052000492F50E03CE3839F400D511D1124641777
:10053000750724F42F5F2093720010C0809372001F
:100540009150909373009C3330F0815080937200EF
:100550008BE38093730081E080938300809172002D
:10056000883118F087E18093720081E080938400E5
:10057000B3C0809172004091730050917400242F99
:1005800030E06CE3869F200D311D11242F5F3F4F1B
:100590008091750090E06CE3569F800D911D1124B1
:1005A000281739071CF44F5F409373008091730044
:1005B0008C3330F08BE38093730081E08093840070
:1005C00081E08093830088C0209174008091760040
:1005D00090917700422F50E04F5F5F4F3CE3349F94
:1005E000B001359F700D112430917500630F711D9E
:1005F000492F50E03CE3839F400D511D11246417A7
:10060000750724F42F5F2093740010C0809374004A
:100610009150909375009C3330F08150809374001A
:100620008BE38093750081E080938100809174005A
:10063000883118F087E18093740081E08093820014
:100640004BC0809174004091750050917600242F2A
:1006500030E06CE3869F200D311D11242F5F3F4F4A
:100660008091770090E06CE3569F800D911D1124DE
:10067000281739071CF44F5F40937500809175006F
:100680008C3330F08BE38093750081E0809382009F
:1006900081E08093810020C0809176008F5F883157
:1006A00018F48093760009C087E1809376008BE38D
:1006B0008093770081E080937F0081E080938000C9
:1006C0000BC0809177008F5F8C3308F08BE38093B1
:1006D000770081E080937F0080911C06823009F0D2
:1006E00078C110921C06E0911B068E2F90E0FC0151
:1006F0003197EB30F10508F04FC2EB5CFF4F0C94E3
:10070000F3108091180681508C3308F08BE38093AE
:10071000180681E0809389005CC1809119068150A0
:100720008C3308F08BE38093190681E08093880076
:1007300050C180911A068150883108F087E180937A
:100740001A0681E08093870044C180917000815037
:10075000883118F48093700007C0109270001092D6
:10076000710081E08093850081E08093860031C133
:1007700080917100882319F08150809371008091DD
:1007800071008C3378F08BE380937100809170005E
:10079000882341F01092710081508093700081E0B5
:1007A0008093860081E08093850013C120917200C0
:1007B0008091700090917100422F50E0415051099A
:1007C0003CE3349FB001359F700D112430917300CC
:1007D000630F711D492F50E03CE3839F400D511D75
:1007E00011244617570724F42150209372000FC09C
:1007F000809372009F5F909373009C3328F08F5F0B
:10080000809372001092730081E08093830081E0F6
:1008100080938400DEC080917200409173005091FB
:100820007000242F30E06CE3869F200D311D1124D1
:10083000215031098091710090E06CE3569F800D4A
:10084000911D1124821793071CF4415040937300AB
:10085000809173008C3310F01092730081E08093CC
:100860008300B7C020917400809172009091730052
:10087000422F50E0415051093CE3349FB001359F75
:10088000700D112430917500630F711D492F50E0D8
:100890003CE3839F400D511D11244617570724F454
:1008A0002150209374000FC0809374009F5F909339
:1008B00075009C3328F08F5F809374001092750050
:1008C00081E08093810081E08093820082C08091EA
:1008D00074004091750050917200242F30E06CE359
:1008E000869F200D311D1124215031098091730004
:1008F00090E06CE3569F800D911D112482179307A1
:100900001CF4415040937500809175008C3310F0B9
:100910001092750081E0809381005BC02091760089
:100920008091740090917500422F50E04150510920
:100930003CE3349FB001359F700D11243091770056
:10094000630F711D492F50E03CE3839F400D511D03
:1009500011244617570724F42150209376000FC026
:10096000809376009F5F909377009C3328F08F5F91
:10097000809376001092770081E080937F0081E081
:100980008093800026C0809176004091770050913E
:100990007400242F30E06CE3869F200D311D11245C
:1009A000215031098091750090E06CE3569F800DD5
:1009B000911D1124821793071CF441504093770036
:1009C000809177008C3310F01092770081E0809353
:1009D0007F0090911C06933009F060C080911B0647
:1009E0002CEF280F283008F4D9C010921C06813053
:1009F00009F447C080F1823009F449C0833009F01E
:100A0000CBC010921B0681E080931D068093860068
:100A1000809384008093820080938000809385007F
:100A2000809383008093810080937F0080938A006D
:100A300080938B008091180680937800809119062E
:100A40008093790080911A0680937A0088E790E07D
:100A50000E94F20023C081E080931B0680938900EE
:100A600080931E0680938A008091780080931806F8
:100A7000809179008093190680917A0080931A06FC
:100A80000DC092E090931B068093880005C0909360
:100A90001B0681E08093870080931E0680911C06D0
:100AA000843009F07BC0E0911B068FEF8E0F8330FE
:100AB00008F474C010921C068E2F90E08C309105C3
:100AC00008F06AC0FC01E05CFF4F0C94F31084E076
:100AD00080931B0681E080931D068093860080939F
:100AE0008A00089585E080931B0681E080931D06AF
:100AF00080938500089586E080931B0681E08093B3
:100B00001D0680938400089587E080931B0681E092
:100B100080931D0680938300089588E080931B06D0
:100B200081E080931D0680938200089589E0809380
:100B30001B0681E080931D068093810008958AE062
:100B400080931B0681E080931D06809380000895AA
:100B50008BE080931B0681E080931D0680937F00CD
:100B6000089510921B0681E080931D0680938600F5
:100B7000809384008093820080938000809385001E
:100B8000809383008093810080937F0080938A000C
:100B900080938B000C94B70110921B0608951F924E
:100BA0000F920FB60F9211242F938F939F93EF9371
:100BB000FF93F8942FEF8FE392E021508040904014
:100BC000E1F700C000008BE099B39E3F91F099B32C
:100BD0009D3F79F099B39B3F61F099B3973F49F0FE
:100BE000EFEFF7E43197F1F700C00000815061F7B3
:100BF00016C089B38B3F49F483E003C08E3F79F47C
:100C000081E080931C0678940AC08C3F20F4873FD3
:100C100031F484E0F6CF8D3F89F782E0F2CFFF9187
:100C2000EF919F918F912F910F900FBE0F901F907A
:100C300018951F920F920FB60F9211242F933F9386
:100C40004F935F936F937F938F939F93AF93BF93D4
:100C5000EF93FF93F894809178008F5F80937800F2
:100C600090911B069150933030F091E09093890061
:100C70008C3370F425C08C3318F110927800809179
:100C800079008F5F809379008C3308F04AC01CC0D4
:100C900010927800809179008F5F80937900909313
:100CA00088008C3368F01092790080917A008F5F11
:100CB00080937A0090938700883110F010927A0028
:100CC0008091780081110EC08091790081110AC055
:100CD00080918C00882331F010928C0088E790E09E
:100CE0000E942A0180917800811106C080917900CC
:100CF000813011F480938C0081E080938A00789495
:100D0000FF91EF91BF91AF919F918F917F916F91E3
:100D10005F914F913F912F910F900FBE0F901F90B9
:100D200018951092790080917A008F5F80937A00F5
:100D3000C3CFEF92FF920F931F93CF93DF93FB01EB
:100D40008A01EB012AE0E22EF12C9E012E1B3F0BC3
:100D5000009739F0B7010E94DF10805D8993CB01C5
:100D6000F4CFDF01A20FB31F80E32017310724F473
:100D70002F5F3F4F8D93F9CFC9010197AF01420F0C
:100D8000531FEA01DF01BD016E1B7F0B6817790756
:100D900034F46C917A917D9368830197F4CFFA01D2
:100DA0001082C901DF91CF911F910F91FF90EF90B9
:100DB00008952F923F924F925F926F927F928F92FF
:100DC0009F92AF92BF92CF92DF92EF92FF920F93DA
:100DD0001F93CF93DF934B015C01EA0189010E94CD
:100DE000F1116B017C0140E050E0BE01C6010E94A0
:100DF00099061C010115110599F1FE01E80FF91F73
:100E00008EE28083B801012E000C880B990B0E94A2
:100E100029129B01AC0160E070E080E291E40E9445
:100E20004B132B013C01B601DD0C880B990B0E9482
:100E300029129B01AC01C501B4010E940D112FEFD5
:100E4000221A320A2C0E3D1EA30192010E94DE12CC
:100E50000E94F111DC01CB01A801B1010E949906A9
:100E6000CE01DF91CF911F910F91FF90EF90DF9016
:100E7000CF90BF90AF909F908F907F906F905F903A
:100E80004F903F902F9008952FEF8FEF91E12150D9
:100E900080409040E1F700C000000E948B010E945A
:100EA00095010E9475010E947D0188E790E00E94F3
:100EB0002A010E943B0F0E94490F6091BE00709171
:100EC000BF008091C0000E94D70F60E080E00E94C8
:100ED000C50F0E949901A0E6B0E0E0E7F0E0808154
:100EE000883110F08C91808381818C3320F01196B1
:100EF0008C91119781833296129688E790E08E1735
:100F00009F0769F70E94B7016090C1007090C2000E
:100F10008090C3000E94D50190911B0680918A00A9
:100F2000992331F0882309F477C110928A0074C1A3
:100F3000882309F471C110928A006091790070E0F1
:100F400080E090E00E94271220E030E040E752E489
:100F50000E947F116B017C0160917A0070E080E05B
:100F600090E00E9427129B01AC01C701B6010E94CC
:100F70000E116B017C016091780070E080E090E0E0
:100F80000E94271220E030E041E655E40E947F11E4
:100F90009B01AC01C701B6010E940E1160931406BB
:100FA00070931506809316069093170604E016E0DA
:100FB000C0E7D0E0698170E080E090E00E942712F5
:100FC00020E030E040E752E40E947F116B017C0199
:100FD000688170E080E090E00E9427129B01AC01E4
:100FE000C701B6010E940E11F801619371938193BC
:100FF00091938F01229688E790E08C179D07D1F698
:1010000068E280E00E94C50FC0901406D0901506DB
:10101000E0901606F0901706A7019601609104066D
:101020007091050680910606909107060E94D912DC
:10103000181624F425E0682DA301A5C02091080608
:101040003091090640910A0650910B06C701B6017E
:101050000E947A1187FF30C025E0682DA3018BE93B
:1010600090E00E94C0102090040630900506409049
:10107000060650900706A201910160911406709136
:10108000150680911606909117060E940D116B01AE
:101090007C01A2019101609108067091090680917E
:1010A0000A0690910B060E940D119B01AC01C7012D
:1010B000B6010E947F115DC020910C0630910D0693
:1010C00040910E0650910F06C701B6010E947A1199
:1010D00087FF0AC025E0682DA30184EA90E00E9402
:1010E000C0109FEF9CBF54C0209110063091110694
:1010F0004091120650911306C701B6010E947A1161
:1011000025E0682DA30187FF3EC08DEA90E00E9494
:10111000C010C0900C06D0900D06E0900E06F09026
:101120000F06A70196016091140670911506809133
:101130001606909117060E940D111B012C01A701A4
:10114000960160911006709111068091120690919F
:1011500013060E940D119B01AC01C201B1010E9456
:101160007F119B01AC0160E070E080E89FE30E948A
:101170000D1120E030E04FE753E40E94DE120E94A0
:10118000F8116CBF05C086EB90E00E94C0101CBE39
:101190006AE580E00E94C50F23E0682DA3018DE879
:1011A00090E00E94C0106CB770E080E090E00E9478
:1011B000271223E333E343E250E40E947F1120E04F
:1011C00030E040E251E40E947A1187FF07C023E03B
:1011D000682DA30182E990E00E94C0106CB770E016
:1011E00080E090E00E94271223E333E343E250E4DF
:1011F0000E947F1122E030E04FE156E00E94D906C4
:1012000023E0682DA3010E94C01023E0682DA301F4
:1012100084E990E00E94C01090911B0680918B00A1
:10122000992331F0882309F4A2C010928B009FC04B
:10123000882309F4A0C010928B0060E08CE30E9428
:10124000C50F25E0682DA30188E990E00E94C01039
:1012500060E086E90E94C50F25E0682DA30188E9BA
:1012600090E00E94C0100BE710E0C0E060E08C2F1F
:101270000E94C50FF80182918F018A3038F425E071
:10128000682DA30182E990E00E94C010F8018081DE
:101290004AE050E06FE176E090E00E94D01425E053
:1012A000682DA3010E94C010C65ACE30F9F6C8E8D6
:1012B0006C2F84E20E94C50F23E0682DA30188E90A
:1012C00090E00E94C010C65EC03F91F780E7E82E14
:1012D00080E0F82E98E8992EC0E0D0E08701512CEC
:1012E000692D852D0E94C50F5801F80180818A3033
:1012F00038F423E0682DA30182E990E00E94C01039
:101300000F5F1F4FF50180814AE050E06FE176E00A
:1013100090E00E94D01423E0682DA3010E94C01029
:10132000F6E35F0E2CE65212DBCF23E0682DA3011B
:10133000C230D10561F0C330D10561F0C130D105B3
:1013400019F08AE990E008C083EA90E005C08CEAD1
:1013500090E002C085EB90E00E94C010219682E0F0
:10136000E80EF11C9AE1990EE0EF9E12B7CF809142
:101370001B06813029F180918900882309F44AC035
:101380001092890060E084EB0E94C50F8091780084
:101390008A3038F425E0682DA30182E990E00E94AC
:1013A000C010809178004AE050E06FE176E090E074
:1013B0000E94D01425E0682DA3010E94C0102AC00D
:1013C00080918900882351F11092890060E084EBBC
:1013D0000E94C50F809118068A3040F425E04FE145
:1013E00050E060E082E990E00E94C0108091180611
:1013F0004AE050E06FE176E090E00E94D01425E0F2
:101400004FE150E060E00E94C01080911E06811103
:1014100010921E0680911B068230C9F080918800D0
:10142000882309F45DC01092880060E08AE50E947C
:10143000C50F809179008A3038F425E0682DA3012A
:1014400082E990E00E94C010809179003DC08091B7
:101450008800882309F448C01092880060E08AE57B
:101460000E94C50F809119068A3040F425E04FE1B3
:1014700050E060E082E990E00E94C010809119067F
:101480004AE050E06FE176E090E00E94D01425E061
:101490004FE150E060E00E94C01080911E0688235A
:1014A000F9F010921E0660E084EB0E94C50F809157
:1014B00018068A3038F425E0682DA30182E990E00F
:1014C0000E94C010809118064AE050E06FE176E07B
:1014D00090E00E94D01425E0682DA3010E94C01066
:1014E00080911B068330C9F080918700882309F41E
:1014F0005DC01092870060E080E00E94C50F80917F
:101500007A008A3038F425E0682DA30182E990E062
:101510000E94C01080917A003DC08091870088238E
:1015200009F448C01092870060E080E00E94C50F77
:1015300080911A068A3040F425E04FE150E060E0E7
:1015400082E990E00E94C01080911A064AE050E0C3
:101550006FE176E090E00E94D01425E04FE150E08A
:1015600060E00E94C01080911E068823F9F010925E
:101570001E0660E08AE50E94C50F809119068A3038
:1015800038F425E0682DA30182E990E00E94C010A4
:10159000809119064AE050E06FE176E090E00E9409
:1015A000D01425E0682DA3010E94C01080911B0675
:1015B000843019F180918600882309F443C0109289
:1015C000860068E880E00E94C50F809170008A3034
:1015D00038F423E0682DA30182E990E00E94C01056
:1015E000809170004AE050E06FE176E090E00E9468
:1015F000D01423E0682DA30123C0809186008823A6
:1016000009F11092860068E880E00E94C50F809181
:1016100070008A3040F423E04FE150E060E082E95E
:1016200090E00E94C010809170004AE050E06FE1AD
:1016300076E090E00E94D01423E04FE150E060E0BB
:101640000E94C01090911B06809185009530B9F0E2
:10165000882309F45BC01092850068E886E30E9445
:10166000C50F809171008A3038F423E0682DA30102
:1016700082E990E00E94C010809171003BC08823F5
:1016800009F448C01092850068E886E30E94C50FFF
:10169000809171008A3040F423E04FE150E060E037
:1016A00082E990E00E94C010809171004AE050E011
:1016B0006FE176E090E00E94D01423E04FE150E02B
:1016C00060E00E94C01080911D068823F9F01092FE
:1016D0001D0668E880E00E94C50F809170008A3086
:1016E00038F423E0682DA30182E990E00E94C01045
:1016F000809170004AE050E06FE176E090E00E9457
:10170000D01423E0682DA3010E94C01080911B0615
:101710008630C9F080918400882309F45DC010925E
:10172000840062EA80E00E94C50F809172008A30D6
:1017300038F423E0682DA30182E990E00E94C010F4
:10174000809172003DC080918400882309F448C0D4
:101750001092840062EA80E00E94C50F80917200BE
:101760008A3040F423E04FE150E060E082E990E00D
:101770000E94C010809172004AE050E06FE176E074
:1017800090E00E94D01423E04FE150E060E00E941E
:10179000C01080911D068823F9F010921D0668E89C
:1017A00086E30E94C50F809171008A3038F423E0EF
:1017B000682DA30182E990E00E94C0108091710021
:1017C0004AE050E06FE176E090E00E94D01423E020
:1017D000682DA3010E94C01080911B068730C9F0BC
:1017E00080918300882309F45DC01092830062EA2F
:1017F00086E30E94C50F809173008A3038F423E09D
:10180000682DA30182E990E00E94C01080917300CE
:101810003DC080918300882309F448C01092830062
:1018200062EA86E30E94C50F809173008A3040F41B
:1018300023E04FE150E060E082E990E00E94C010B8
:10184000809173004AE050E06FE176E090E00E9402
:10185000D01423E04FE150E060E00E94C01080917E
:101860001D068823F9F010921D0662EA80E00E94AE
:10187000C50F809172008A3038F423E0682DA301EF
:1018800082E990E00E94C010809172004AE050E02E
:101890006FE176E090E00E94D01423E0682DA30170
:1018A0000E94C01080911B068830C9F08091820090
:1018B000882309F45DC0109282006CEB80E00E94E6
:1018C000C50F809174008A3038F423E0682DA3019D
:1018D00082E990E00E94C010809174003DC0809128
:1018E0008200882309F448C0109282006CEB80E0EB
:1018F0000E94C50F809174008A3040F423E04FE1CC
:1019000050E060E082E990E00E94C0108091740095
:101910004AE050E06FE176E090E00E94D01423E0CE
:101920004FE150E060E00E94C01080911D068823C6
:10193000F9F010921D0662EA86E30E94C50F8091BD
:1019400073008A3038F423E0682DA30182E990E027
:101950000E94C010809173004AE050E06FE176E091
:1019600090E00E94D01423E0682DA3010E94C010D3
:1019700080911B068930C9F080918100882309F489
:101980005DC0109281006CEB86E30E94C50F8091D0
:1019900075008A3038F423E0682DA30182E990E0D5
:1019A0000E94C010809175003DC080918100882305
:1019B00009F448C0109281006CEB86E30E94C50FC9
:1019C000809175008A3040F423E04FE150E060E000
:1019D00082E990E00E94C010809175004AE050E0DA
:1019E0006FE176E090E00E94D01423E04FE150E0F8
:1019F00060E00E94C01080911D068823F9F01092CB
:101A00001D066CEB80E00E94C50F809174008A3047
:101A100038F423E0682DA30182E990E00E94C01011
:101A2000809174004AE050E06FE176E090E00E941F
:101A3000D01423E0682DA3010E94C01080911B06E2
:101A40008A30C9F080918000882309F45DC010922B
:101A5000800066ED80E00E94C50F809176008A309C
:101A600038F423E0682DA30182E990E00E94C010C1
:101A7000809176003DC080918000882309F448C0A1
:101A80001092800066ED80E00E94C50F8091760084
:101A90008A3040F423E04FE150E060E082E990E0DA
:101AA0000E94C010809176004AE050E06FE176E03D
:101AB00090E00E94D01423E04FE150E060E00E94EB
:101AC000C01080911D068823F9F010921D066CEB62
:101AD00086E30E94C50F809175008A3038F423E0B8
:101AE000682DA30182E990E00E94C01080917500EA
:101AF0004AE050E06FE176E090E00E94D01423E0ED
:101B0000682DA3010E94C01080911B068B30C9F084
:101B100080917F00882309F4FDC910927F0066ED53
:101B200086E30E94C50F809177008A3038F423E065
:101B3000682DA30182E990E00E94C0108091770097
:101B40003EC080917F00882309F4E4C910927F0091
:101B500066ED86E30E94C50F809177008A3040F4DD
:101B600023E04FE150E060E082E990E00E94C01085
:101B7000809177004AE050E06FE176E090E00E94CB
:101B8000D01423E04FE150E060E00E94C01080914B
:101B90001D06882309F4BEC910921D0666ED80E07B
:101BA0000E94C50F809176008A3038F423E0682DBA
:101BB000A30182E990E00E94C010809176004AE083
:101BC00050E06FE176E090E00E94D01423E0682DB1
:101BD000A3010E94C0109EC9CF92DF92EF92FF92A4
:101BE0000F931F93CF93DF93A8E7B0E0DC91E8E178
:101BF000F6E0D08311966C91119761831296CC9187
:101C0000C28370E080E090E00E94271220E030E084
:101C100040E752E40E947F116B017C016D2F70E060
:101C200080E090E00E9427129B01AC01C701B60141
:101C30000E940E116B017C016C2F70E080E090E03F
:101C40000E94271220E030E041E655E40E947F1117
:101C50009B01AC01C701B6010E940E1160931406EE
:101C600070931506809316069093170604E016E00D
:101C7000C0E7D0E0698170E080E090E00E94271228
:101C800020E030E040E752E40E947F116B017C01CC
:101C9000688170E080E090E00E9427129B01AC0117
:101CA000C701B6010E940E11F8016083718382831F
:101CB00093836B8170E080E090E00E94271220E027
:101CC00030E040E752E40E947F116B017C016A81A1
:101CD00070E080E090E00E9427129B01AC01C701F8
:101CE000B6010E940E11F801648375838683978381
:101CF0006D8170E080E090E00E94271220E030E0EB
:101D000040E752E40E947F116B017C016C8170E01E
:101D100080E090E00E9427129B01AC01C701B60150
:101D20000E940E11F80160877187828793876F8107
:101D300070E080E090E00E94271220E030E040E771
:101D400052E40E947F116B017C016E8170E080E0A3
:101D500090E00E9427129B01AC01C701B6010E94CE
:101D60000E11F8016487758786879787DF91CF9179
:101D70001F910F91FF90EF90DF90CF9008958FB952
:101D8000779BFECF0895CF92DF92EF92FF920F9351
:101D90001F93CF93DF93182FD62FC42FF22EAA981C
:101DA0008AE20E94BF0EAA9A80E00E94BF0E812F95
:101DB0000E94BF0E8C2F90E0810F911D0197892FFB
:101DC0000E94BF0E8FEF8C0F810F0E94BF0EAA984A
:101DD0008BE20E94BF0EAA9A80E00E94BF0E8D2F58
:101DE0000E94BF0E8F2D90E08D0F911D0197892FBE
:101DF0000E94BF0E8FEF8F0D8D0F0E94BF0EAA980D
:101E00008CE20E94BF0EAA9ACF9DE0011124F12C12
:101E100088E0089F80011124C70123E095958795EC
:101E20002A95E1F7082B35E0EE0CFF1C3A95E1F717
:101E3000EC28C12CD12CCC15DD0551F0802F0E944F
:101E4000BF0E8E2D0E94BF0E8FEFC81AD80AF3CF97
:101E5000DF91CF911F910F91FF90EF90DF90CF9086
:101E60000895AA9A8FB9779BFECF0895AA988FB943
:101E7000779BFECF089587B3806B87BB88B3806F55
:101E800088BB8CE58DB91EB8A39AAB9AA29AAA9A80
:101E90000895AB9A81EE94E00197F1F700C000003D
:101EA000AB9881EE94E00197F1F700C00000AB9A87
:101EB00081EE94E00197F1F700C0000081E00E94FC
:101EC000360F83EC99E00197F1F700C0000081E143
:101ED0000E94360F83EC99E00197F1F700C00000F3
:101EE0008AE30E94360F85E00E94310F83EC99E06F
:101EF0000197F1F700C0000086E30E94360F80E0F2
:101F00000E94310F83EC99E00197F1F700C00000C7
:101F10008AE20E94360F80E00E94310F80E00E942A
:101F2000310F80E00E94310F80EF0E94310F83EC6F
:101F300099E00197F1F700C000008BE20E94360F94
:101F400080E00E94310F80E00E94310F80E00E940B
:101F5000310F80EF0E94310F83EC99E00197F1F788
:101F600000C0000081E20E94360F83EC99E00197E7
:101F7000F1F700C0000089E20E94360F83EC99E07F
:101F80000197F1F700C0000008958093290660933F
:101F900028060895CF92EF920F93813F20F4613F7E
:101FA00010F40E94C30E0F91EF90CF900895CF923E
:101FB000EF920F93C82EE72E062F20EF40EF60E040
:101FC00080E00E94C30E0F91EF90CF9008952F9262
:101FD0003F924F925F926F927F928F929F92AF92B9
:101FE000BF92CF92DF92EF92FF920F931F93CF9306
:101FF000DF9300D000D000D0CDB7DEB76B834C8329
:10200000F22ED02EBE2C3C2C9091290646E0A49EA8
:1020100090011124290F311D1A2D110F110F110FCD
:10202000213F31053CF01092290690912806910F2E
:102030009093280696E0899F300111241E821D820C
:1020400044244394512C8D819E81860D971DFC0163
:10205000EC5FFF4FFA83E983212C87E0882E912CD7
:10206000E981FA818081282F30E0C201082C02C06A
:10207000880F991F0A94E2F7822393236091280620
:10208000620D892B21F0CF2CEC800B8103C0C32C77
:10209000EB2C0D2D2A2D4A2D809129060E94CA0F66
:1020A000F1E08F1A91082A0C2FEF82169206C1F6E2
:1020B000809129068A0D803F18F48093290607C075
:1020C0001092290680912806810F8093280680911E
:1020D0002806803F20F010922906109228068D8154
:1020E0009E8101969E838D83069709F0ACCF26963C
:1020F0000FB6F894DEBF0FBECDBFDF91CF911F9119
:102100000F91FF90EF90DF90CF90BF90AF909F9096
:102110008F907F906F905F904F903F902F90089599
:102120007F928F929F92AF92BF92CF92DF92EF9267
:10213000FF920F931F93CF93DF93162FF42ED22E7F
:10214000B02E9E2C8C2C7A2CEC018991882351F096
:10215000A72CC82CE92C0B2D2D2D4F2D612F0E9463
:10216000E70FF3CFDF91CF911F910F91FF90EF9089
:10217000DF90CF90BF90AF909F908F907F90089509
:10218000AF92CF92EF920F93342F452FA22EC12CF6
:10219000E12C00E0262F632F0E9490100F91EF900A
:1021A000CF90AF900895991B79E004C0991F9617BE
:1021B00008F0961B881F7A95C9F78095089597FBBC
:1021C000072E16F4009407D077FD09D00E94F9106D
:1021D00007FC05D03EF4909581959F4F089570952A
:1021E00061957F4F0895EE0FFF1F0590F491E02D4C
:1021F0000994AA1BBB1B51E107C0AA1FBB1FA6174E
:10220000B70710F0A61BB70B881F991F5A95A9F79F
:1022100080959095BC01CD0108955058BB27AA2701
:102220000E9425110C949F120E94911238F00E9476
:10223000981220F039F49F3F19F426F40C948E1272
:102240000EF4E095E7FB0C948812E92F0E94B0127F
:1022500058F3BA17620773078407950720F079F4DB
:10226000A6F50C94D2120EF4E0950B2EBA2FA02DE9
:102270000B01B90190010C01CA01A0011124FF2733
:10228000591B99F0593F50F4503E68F11A16F0402E
:10229000A22F232F342F4427585FF3CF469537952D
:1022A0002795A795F0405395C9F77EF41F16BA0BF2
:1022B000620B730B840BBAF09150A1F0FF0FBB1FA0
:1022C000661F771F881FC2F70EC0BA0F621F731FE9
:1022D000841F48F4879577956795B795F7959E3F46
:1022E00008F0B0CF9395880F08F09927EE0F9795D7
:1022F000879508950E94641208F481E008950E9471
:1023000093110C949F120E94981258F00E949112FF
:1023100040F029F45F3F29F00C94881251110C947D
:10232000D3120C948E120E94B01268F39923B1F369
:10233000552391F3951B550BBB27AA2762177307EB
:10234000840738F09F5F5F4F220F331F441FAA1F7F
:10235000A9F335D00E2E3AF0E0E832D0915050403B
:10236000E695001CCAF72BD0FE2F29D0660F771FE9
:10237000881FBB1F261737074807AB07B0E809F0CF
:10238000BB0B802DBF01FF2793585F4F3AF09E3F54
:10239000510578F00C9488120C94D3125F3FE4F34B
:1023A000983ED4F3869577956795B795F7959F5F97
:1023B000C9F7880F911D9695879597F90895E1E0E3
:1023C000660F771F881FBB1F621773078407BA0742
:1023D00020F0621B730B840BBA0BEE1F88F7E0959D
:1023E00008950E94F8116894B1110C94D3120895C5
:1023F0000E94B81288F09F5798F0B92F9927B751CB
:10240000B0F0E1F0660F771F881F991F1AF0BA9598
:10241000C9F714C0B13091F00E94D212B1E0089512
:102420000C94D212672F782F8827B85F39F0B93F04
:10243000CCF3869577956795B395D9F73EF490954B
:102440008095709561957F4F8F4F9F4F0895E894C9
:1024500009C097FB3EF490958095709561957F4FEC
:102460008F4F9F4F9923A9F0F92F96E9BB2793959A
:10247000F695879577956795B795F111F8CFFAF4AA
:10248000BB0F11F460FF1BC06F5F7F4F8F4F9F4FDB
:1024900016C0882311F096E911C0772321F09EE839
:1024A000872F762F05C0662371F096E8862F70E09F
:1024B00060E02AF09A95660F771F881FDAF7880F79
:1024C0009695879597F90895990F0008550FAA0BCF
:1024D000E0E8FEEF16161706E807F907C0F0121637
:1024E0001306E407F50798F0621B730B840B950B3A
:1024F00039F40A2661F0232B242B252B21F408958F
:102500000A2609F4A140A6958FEF811D811D08952B
:1025100097F99F6780E870E060E008959FEF80EC96
:10252000089500240A941616170618060906089539
:1025300000240A9412161306140605060895092E9F
:102540000394000C11F4882352F0BB0F40F4BF2B0E
:1025500011F460FF04C06F5F7F4F8F4F9F4F08954E
:1025600057FD9058440F551F59F05F3F71F0479544
:10257000880F97FB991F61F09F3F79F08795089529
:10258000121613061406551FF2CF4695F1DF08C048
:10259000161617061806991FF1CF86957105610565
:1025A00008940895E894BB2766277727CB0197F90D
:1025B00008950E94641208F48FEF08950E94F112AA
:1025C0000C949F120E94911238F00E94981220F0F1
:1025D000952311F00C9488120C948E1211240C94F3
:1025E000D3120E94B01270F3959FC1F3950F50E083
:1025F000551F629FF001729FBB27F00DB11D639FB5
:10260000AA27F00DB11DAA1F649F6627B00DA11D5A
:10261000661F829F2227B00DA11D621F739FB00D00
:10262000A11D621F839FA00D611D221F749F332770
:10263000A00D611D231F849F600D211D822F762F09
:102640006A2F11249F5750409AF0F1F088234AF0E6
:10265000EE0FFF1FBB1F661F771F881F9150504052
:10266000A9F79E3F510580F00C9488120C94D31268
:102670005F3FE4F3983ED4F3869577956795B795D9
:10268000F795E7959F5FC1F7FE2B880F911D9695F3
:10269000879597F90895FA01EE0FFF1F30962105EF
:1026A0003105A1F16115710561F48038BFE39B0725
:1026B00049F168949038810561F08038BFEF9B073D
:1026C00041F099234AF5FF3FE1053105210519F154
:1026D000E8940894E795D901AA2329F4AB2FBE2FDB
:1026E000F85FD0F310C0FF5F70F4A695E0F7F739FC
:1026F00050F019F0FF3A38F49F779F930DD00F9068
:1027000007FC9058089546F00C948E1260E070E03B
:1027100080E89FE308954FE79F775F934F933F9340
:102720002F930E9446142F913F914F915F910E94E9
:10273000DE120C94A31329F416F00C9488120C9456
:10274000D2120C948E120E94B812A8F39638A0F7F9
:1027500007F80F92E8942BE33AEA48EB5FE70E9410
:10276000F4120F920F920F924DB75EB70F920E9424
:102770008E14E8E9F0E00E94D5134F915F91EF913C
:10278000FF91E595EE1FFF1F49F0FE57E0684427D3
:10279000EE0F441FFA95E1F74195550B0E9408147E
:1027A0000F9007FE0C94FC130895DF93CF931F93B3
:1027B0000F93FF92EF92DF927B018C01689406C029
:1027C000DA2EEF010E94F112FE01E894A591259105
:1027D000359145915591A6F3EF010E942511FE0117
:1027E0009701A801DA9469F7DF90EF90FF900F91BD
:1027F0001F91CF91DF9108959B01AC0160E070E0E3
:1028000080E89FE30C947F110C9488120C94C214FE
:102810000E94B812D8F39923C9F3940F511DA3F362
:102820009150504094F059F0882332F0660F771F92
:10283000881F91505040C1F79E3F51052CF7880FDB
:10284000911D9695879597F908955F3FACF0983E56
:102850009CF0BB27869577956795B79508F4B1608E
:102860009395C1F7BB0F58F711F460FFE8CF6F5F86
:102870007F4F8F4F9F4FE3CF0C94D31216F00C94E1
:10288000C2140C948E1268940C9488120E94B81290
:10289000A8F39923C1F3AEF3DF93CF931F930F9364
:1028A000FF92C92FDD2788232AF02197660F771F13
:1028B000881FDAF720E030E040E85FEB9FE38839DB
:1028C00020F0803E38F021968F770E940E11E0ECC8
:1028D000F0E004C00E940E11EDEEF0E00E94D5136E
:1028E0008B01BE01EC01FB2E6F5771097595771FA7
:1028F000880B990B0E94291228E132E741E35FE33C
:102900000E94F112AF2D9801AE01FF900F911F911F
:10291000CF91DF910E9425110C949F12FA01DC01E6
:10292000AA0FBB1F9B01AC01BF5728F422273327F6
:102930004427507820C0B75190F4AB2F002446951F
:1029400037952795011CA395D2F3002071F0220F33
:10295000331F441FB395DAF30ED00C940D11613080
:102960007105A0E88A07B94630F49B01AC016627DF
:10297000772788279078309621F02083318342830F
:10298000538308959F3F31F0915020F487957795B8
:102990006795B795880F911D9695879597F9089536
:1029A0004532510520F4423010F00C94DB14FB0149
:1029B0001082CB010895BB274A3031F4992322F4C9
:1029C000BDE2909581959F4F0C94E714BB27FB01C6
:1029D0005527AA27880F991FAA1FA41710F0A41B18
:1029E00083955051B9F7A05DAA3308F0A95DA19372
:1029F000009779F7B111B1931192CB010C940015A6
:102A0000DC01FC01672F71917723E1F7329704C055
:102A10007C916D9370836291AE17BF07C8F30895E0
:042A2000F894FFCF58
:102A240006000A001200160000010203040506074E
:102A340006000A001200160000000C010101180132
:102A440001010101010101010101010101EEF1E2B4
:102A54002E003000252020003A0020D0E0F1F1E2E1
:102A6400E5F20020C4E5EDFC2020200020C7E0EAC8
:102A7400E0F220200020CDEEF7FC20202000000012
:102A8400001F3D1F00000000000000FA00000000CD
:102A940000600060000028FE28FE28002454D6545C
:102AA4004800C20C106086000C52BA4C12000000A0
:102AB40060000000003844820000008244380000B6
:102AC40000502050000010107C1010000001020083
:102AD4000000001010100000000002000000020CB2
:102AE400106080007C8A92A27C000242FE020200F6
:102AF400468A92926600448292926C001828488812
:102B0400FE00E4A2A2A29C003C5292920C00C0805F
:102B14008E90E0006C9292926C0060929294780095
:102B24000000240000000002240000001028448259
:102B34000000242424240000824428100000408043
:102B44008A9060003C425A4A3A007E9090907E00FF
:102B5400FE9292926C007C8282824400FE82828287
:102B64007C00FE9292928200FE90909080007C8283
:102B740082A2BC00FE101010FE000082FE82000043
:102B840004020202FC00FE2020508E00FE0202021B
:102B94000000FE402040FE00FE402010FE007C822B
:102BA40082827C00FE90909060007C8282847A0015
:102BB400FE9090906E00649292924C008080FE8011
:102BC4008000FC020202FC00F00C020CF000FE0487
:102BD4000804FE00C6281028C60080403E4080003D
:102BE400868A92A2C20000FE828200008060100CDD
:102BF4000200008282FE000020408040200001018B
:102C040001010100402000000000042A2A2A1E00BD
:102C14007E1222221C001C22222214001C222212B8
:102C24007E001C2A2A2A1A00207EA0A00000192552
:102C340025253E00FE1020201E000020BC020000BE
:102C440004020202BC0000FE081422000080FC0200
:102C540002003E2018201E003E2020201E001C22C0
:102C640022221C003F1424241800182424143F009A
:102C74003E1020201000122A2A2A24000020FC22C0
:102C840000003C0202023E003804020438003C0208
:102C94000E023E00221408142200390505053E00E8
:102CA40022262A32220000106C8200000000FE005E
:102CB400000000826C100000182010083000000092
:102CC4000000000000000000000000000000000000
:102CD40000000000000000000000000000000000F0
:102CE40000000000000000000000000000000000E0
:102CF40000000000000000000000000000000000D0
:102D040000000000000000000000000000000000BF
:102D140000000000000000000000000000000000AF
:102D2400000000000000000000000000000000009F
:102D3400000000000000000000000000000000008F
:102D4400000000000000000000000000000000007F
:102D5400000000000000000000000000000000006F
:102D6400000000000000000000000000000000005F
:102D7400000000000000000000000000000000004F
:102D8400000000000000000000000000000000003F
:102D9400000000000000000000000000000000002F
:102DA400000000000000000000000000000000001F
:102DB400000000003EAA2AAA220000000000000031
:102DC40000000000000000000000000000000000FF
:102DD40000000000000000000000000000000000EF
:102DE40000000000000000000000000000000000DF
:102DF40000000000000000000000000000000000CF
:102E040000000000000000000000000000000000BE
:102E140000000000000000000000000000000000AE
:102E2400000000000000000000000000000000009E
:102E3400000000000000000000000000000000008E
:102E4400000000007E9090907E00FEA2A2A29C0052
:102E5400FE9292926C00FE8080808000031EE282CB
:102E6400FF00FE9292928200DE20FE20DE00448269
:102E7400A2A25C00FE040830FE0000000000000076
:102E8400000000000000000000000000000000003E
:102E94000000FE101010FE00000000000000000002
:102EA40000000000FE909090600000000000000010
:102EB400000000000000000000000000000000000E
:102EC40000000000000000000000000000000000FE
:102ED40000000000000000000000000000000000EE
:102EE40000000000000000000000000000000000DE
:102EF40000000000000000000000000000000000CE
:102F040000000000042A2A2A1E000000000000001D
:102F14003E2A2A2A140000000000000000000000DD
:102F240000001C2A2A2A1A000000000000000000E9
:102F3400000000003E0408103E003E8448903E001D
:102F44003E080814220000000000000000000000F9
:102F540000003E0808083E001C2222221C0000003B
:102F6400000000003F14242418001C222222140014
:102F740020203E202000000000000000000000008F
:102F84000000000000000000000000000000300805
:102F940008083E00000000000000000000000000DF
:102FA4000000000000000000000000003E0A0A0AC1
:102FB4000400000000000000000000000000000009
:042FC4000000000009
:00000001FF
