:100000000C948E000C94DD040C94B6000C94B60095
:100010000C94B6000C94B6000C94B6000C94270512
:100020000C94B6000C94B6000C94B6000C94B60078
:100030000C94B6000C94B6000C94B6000C94B60068
:100040000C94B6000C94B6000C94B6000C94B60058
:100050000C94B60071017F018D019B01C501ED017A
:1000600017023F02690291029D02BD02C902D50238
:10007000E102EF02FD0226034D0376039D03C60352
:100080005A04B604B604B60463046C0475047E0412
:10009000870490049904A00407634236B79BD8A74D
:1000A0001A39685618AEBAAB558C1D3CB7CC57639D
:1000B000BD6DEDFD753EF6177231BF000000803F4B
:1000C00008000000BE922449123EABAAAA2ABECD67
:1000D000CCCC4C3E00000080BEABAAAAAA3E0000D9
:1000E0000000BF000000803F0000000000084178D1
:1000F000D3BB4387D1133D190E3CC3BD4282AD2B08
:100100003E68EC8276BED98FE1A93E4C80EFFFBEFF
:1001100001C4FF7F3F0000000000160D11241FBE28
:10012000CFE5D8E0DEBFCDBF15E0A0E6B0E0E6EF5A
:10013000F9E202C005900D92A63FB107D9F726E07B
:10014000A6EFB5E001C01D92AC31B207E1F710E0B7
:10015000CEE8D0E004C02197FE010E941D10CD38EA
:10016000D107C9F70E944F060C94F9140C940000B3
:10017000982F9695969596959E71292F220F220F6E
:10018000920F8F70890F08956AE00E94FD0F292F4A
:1001900030E1839FC0011124822B089584EA86BF39
:1001A00006B607FEFDCF089583B984E886BF06B67C
:1001B00007FEFDCF089584EC86BF06B607FEFDCF8F
:1001C00083B10895CF93DF93EC0188E280B981B1C8
:1001D00081B90E94CE0080ED0E94D40080E00E9490
:1001E000D40088810E94C4000E94D40089810E94AA
:1001F000C4000E94D4008A810E94C4000E94D400DE
:100200008B810E94C4000E94D4008C810E94C40093
:100210000E94D4008D810E94C4000E94D4008E816F
:100220000E94C4000E94D40080E10E94D40084E9AE
:1002300086BFDF91CF910895CF93DF93EC0182E4E5
:1002400080B981B181B90E94CE0080ED0E94D400B6
:1002500080E00E94D4000E94CE0081ED0E94D40074
:100260000E94DB000E94B80088830E94DB000E948D
:10027000B80089830E94DB000E94B8008A830E9434
:10028000DB000E94B8008B830E94DB000E94B80054
:100290008C830E94DB000E94B8008D8384E886BFB7
:1002A00006B607FEFDCF83B10E94B8008E8384E9B5
:1002B00086BFDF91CF91089580910E06813009F0BD
:1002C00047C110920E06E0910D068E2F90E0FC01C2
:1002D0003197EB30F10508F049C3E65DFF4F0C9410
:1002E0001D1080910A068F5F8C3318F480930A06E4
:1002F00002C010920A0681E080937D0029C180919E
:100300000B068F5F8C3318F480930B0602C010929B
:100310000B0681E080937C001BC180910C068F5FEF
:10032000883118F480930C0602C010920C0681E00C
:1003300080937B000DC12091640030916600822F74
:1003400090E001966CE3689FA001699F500D112415
:1003500080916500480F511D8091670090E06CE32B
:10036000369F800D911D1124841795071CF02F5F77
:100370002093640080916400883118F087E18093B5
:10038000640081E080937A00E3C080916400409132
:10039000650050916600242F30E09CE3899F200D7A
:1003A000311D11242F5F3F4F8091670090E06CE377
:1003B000569F800D911D1124281739071CF44F5F9B
:1003C00040936500809165008C3318F08BE3809337
:1003D000650081E080937900BBC020916600309178
:1003E0006800822F90E001966CE3689FA001699FEE
:1003F000500D112480916700480F511D80916900B4
:1004000090E06CE3369F800D911D112484179507B1
:100410001CF02F5F2093660080916600883118F0F1
:1004200087E18093660081E08093780091C080919D
:1004300066004091670050916800242F30E09CE3F3
:10044000899F200D311D11242F5F3F4F809169003E
:1004500090E06CE3569F800D911D112428173907F9
:100460001CF44F5F40936700809167008C3318F055
:100470008BE38093670081E08093770069C02091CF
:10048000680030916A00822F90E001966CE3689FCB
:10049000A001699F500D112480916900480F511DE2
:1004A00080916B0090E06CE3369F800D911D1124CC
:1004B000841795071CF02F5F2093680080916800D7
:1004C000883118F087E18093680081E0809376009E
:1004D0003FC0809168004091690050916A00242FCC
:1004E00030E09CE3899F200D311D11242F5F3F4F89
:1004F00080916B0090E06CE3569F800D911D11245C
:10050000281739071CF44F5F4093690080916900F8
:100510008C3318F08BE38093690081E08093750041
:1005200017C080916A008F5F883108F087E180935F
:100530006A0081E0809374000BC080916B008F5F34
:100540008C3308F08BE380936B0081E08093730021
:1005500080910E06823009F03FC110920E06E091A4
:100560000D068E2F90E0FC013197EB30F10508F07D
:10057000FDC1EB5CFF4F0C941D1080910A06815069
:100580008C3308F08BE380930A0681E080937D0032
:1005900023C180910B0681508C3308F08BE380934C
:1005A0000B0681E080937C0017C180910C0681507E
:1005B000883108F087E180930C0681E080937B000E
:1005C0000BC1809164008150883118F480936400DD
:1005D00002C01092640081E080937A00FDC0809197
:1005E000650081508C3318F48093650002C010922E
:1005F000650081E080937900EFC020916600309122
:100600006400822F90E001976CE3689FA001699FCE
:10061000500D112480916700480F511D8091650095
:1006200090E06CE3369F800D911D1124841795078F
:100630001CF421502093660080916600883110F0F0
:100640001092660081E080937800C6C080916600B9
:100650004091670050916400242F30E09CE3899F13
:10066000200D311D1124215031098091650090E049
:100670006CE3569F800D911D1124821793071CF483
:10068000415040936700809167008C3310F01092C6
:10069000670081E0809377009FC0209168003091CF
:1006A0006600822F90E001976CE3689FA001699F2C
:1006B000500D112480916900480F511D80916700F1
:1006C00090E06CE3369F800D911D112484179507EF
:1006D0001CF421502093680080916800883110F04C
:1006E0001092680081E08093760076C08091680067
:1006F0004091690050916600242F30E09CE3899F6F
:10070000200D311D1124215031098091670090E0A6
:100710006CE3569F800D911D1124821793071CF4E2
:10072000415040936900809169008C3310F0109221
:10073000690081E0809375004FC020916A0030917C
:100740006800822F90E001976CE3689FA001699F89
:10075000500D112480916B00480F511D809169004C
:1007600090E06CE3369F800D911D1124841795074E
:100770001CF4215020936A0080916A00883110F0A7
:1007800010926A0081E08093740026C080916A0014
:1007900040916B0050916800242F30E09CE3899FCA
:1007A000200D311D1124215031098091690090E004
:1007B0006CE3569F800D911D1124821793071CF442
:1007C000415040936B0080916B008C3310F010927D
:1007D0006B0081E08093730090910E06933009F0D6
:1007E00050C080910D062CEF280F283008F4C0C0AF
:1007F00010920E068130C1F118F18230D9F18330A8
:1008000009F0B4C010920D0681E080937D008093C2
:100810007C0080937B008093100680937E00809103
:100820000A0680936C0080910B0680936D00809186
:100830000C0680936E008CE690E00E94E20021C0DE
:1008400081E080930D0680937D0080931006809157
:100850006C0080930A0680916D0080930B06809156
:100860006E0080930C060DC092E090930D0680936D
:100870007C0005C090930D0681E080937B008093FF
:10088000100680910E06843009F072C0E0910D06CA
:100890008FEF8E0F833008F46BC010920E068E2FF0
:1008A00090E08C30910508F061C0FC01E05CFF4FE6
:1008B0000C941D1084E080930D0681E080930F0658
:1008C00080937A00089585E080930D0681E08093FF
:1008D0000F0680937900089586E080930D0681E0ED
:1008E00080930F0680937800089587E080930D062B
:1008F00081E080930F0680937700089588E08093CD
:100900000D0681E080930F0680937600089589E0BC
:1009100080930D0681E080930F0680937500089503
:100920008AE080930D0681E080930F068093740027
:1009300008958BE080930D0681E080930F0613C02D
:1009400010920D0681E080930F0680937A008093C9
:100950007800809376008093740080937900809370
:1009600077008093750080937300089510920D06B0
:1009700008958CB78CBF83B7896683BFBB9A789480
:1009800008958EE398E39BBD8ABD8FB58FBD8EB56C
:100990008D608EBD89B7806189BF789408958BB7CB
:1009A00080648BBF85B78A6085BF84B784BF789425
:1009B00008958FEF8BBB1ABA08951F920F920FB64E
:1009C0000F9211242F938F939F93EF93FF93F8949B
:1009D0002FEF8FE392E0215080409040E1F700C07C
:1009E00000008BE099B39E3F91F099B39D3F79F061
:1009F00099B39B3F61F099B3973F49F0EFEFF7E46C
:100A00003197F1F700C00000815061F716C089B33B
:100A10008B3F49F483E003C08E3F79F481E08093FB
:100A20000E0678940AC08C3F20F4873F31F484E0AE
:100A3000F6CF8D3F89F782E0F2CFFF91EF919F9142
:100A40008F912F910F900FBE0F901F9018951F92AE
:100A50000F920FB60F9211242F933F934F935F93F2
:100A60006F937F938F939F93AF93BF93EF93FF9376
:100A7000F89480916C008F5F80936C0090910D06CC
:100A80009150933030F091E090937D008C3370F46E
:100A900025C08C3318F110926C0080916D008F5F2F
:100AA00080936D008C3308F047C01CC010926C001E
:100AB00080916D008F5F80936D0090937C008C33EC
:100AC00068F010926D0080916E008F5F80936E00D1
:100AD00090937B00883110F010926E0080916C0032
:100AE00081110EC080916D0081110AC0809180003B
:100AF000882331F0109280008CE690E00E941C0167
:100B000080916C00811106C080916D00813011F4DC
:100B1000809380007894FF91EF91BF91AF919F9166
:100B20008F917F916F915F914F913F912F910F9096
:100B30000FBE0F901F90189510926D0080916E005F
:100B40008F5F80936E00C6CFEF92FF920F931F933B
:100B5000CF93DF93FB018A01EB012AE0E22EF12C17
:100B60009E012E1B3F0B009739F0B7010E94091020
:100B7000805D8993CB01F4CFDF01A20FB31F80E327
:100B80002017310724F42F5F3F4F8D93F9CFC90110
:100B90000197AF01420F531FEA01DF01BD016E1B38
:100BA0007F0B6817790734F46C917A917D93688391
:100BB0000197F4CFFA011082C901DF91CF911F9103
:100BC0000F91FF90EF9008952F923F924F925F9276
:100BD0006F927F928F929F92AF92BF92CF92DF924D
:100BE000EF92FF920F931F93CF93DF934B015C0122
:100BF000EA0189010E941B116B017C0140E050E079
:100C0000BE01C6010E94A4051C010115110599F140
:100C1000FE01E80FF91F8EE28083B801012E000C5F
:100C2000880B990B0E9453119B01AC0160E070E0AE
:100C300080E291E40E9475122B013C01B601DD0CAB
:100C4000880B990B0E9453119B01AC01C501B401A3
:100C50000E9437102FEF221A320A2C0E3D1EA301DC
:100C600092010E9408120E941B11DC01CB01A80115
:100C7000B1010E94A405CE01DF91CF911F910F9188
:100C8000FF90EF90DF90CF90BF90AF909F908F90AC
:100C90007F906F905F904F903F902F9008952FEF2F
:100CA0008FEF98E0215080409040E1F700C00000B5
:100CB0000E94CF040E94D9040E94B9040E94C1047A
:100CC0008CE690E00E941C010E94650E0E94730E4B
:100CD0006091B2007091B3008091B4000E94010F46
:100CE00060E080E00E94EF0E6EE1462E512C0E94E3
:100CF0004614B2010E940910C82F082F0E94461402
:100D00006CE370E00E940910D82F782E0E944614E0
:100D1000B2010E940910182F682E0E945C01809178
:100D20000D0681117BC680917D00882309F46EC079
:100D300060916D0070E080E090E00E94511120E031
:100D400030E040E752E40E94A9106B017C01609101
:100D50006E0070E080E090E00E9451119B01AC01B8
:100D6000C701B6010E9438106B017C0160916C00D4
:100D700070E080E090E00E94511120E030E041E618
:100D800055E40E94A9109B01AC01C701B6010E9465
:100D900038106093060670930706809308069093B8
:100DA000090644E6E42E40E0F42E56EFC52E55E049
:100DB000D52EF701618170E080E090E00E94511132
:100DC00020E030E040E752E40E94A9104B015C01B2
:100DD000F701608170E080E090E00E9451119B017A
:100DE000AC01C501B4010E943810F6016193719302
:100DF000819391936F01F2E0EF0EF11C8CE690E08D
:100E00008E159F05B1F691E090937E0080917E0053
:100E1000882309F41AC110927E0068E280E00E94E3
:100E2000EF0EC0900606D0900706E0900806F090FE
:100E30000906A70196016091F6057091F70580916A
:100E4000F8059091F9050E940312181624F425E084
:100E5000AE01612FA5C02091FA053091FB054091AC
:100E6000FC055091FD05C701B6010E94A41087FF43
:100E700030C025E0AE01612F8FE890E00E94EA0FBC
:100E8000C090F605D090F705E090F805F090F905D0
:100E9000A7019601609106067091070680910806E9
:100EA000909109060E9437104B015C01A701960141
:100EB0006091FA057091FB058091FC059091FD050C
:100EC0000E9437109B01AC01C501B4010E94A9101A
:100ED0005DC02091FE053091FF05409100065091C4
:100EE0000106C701B6010E94A41087FF0AC025E0D1
:100EF000AE01612F88E990E00E94EA0FEFEFECBFAE
:100F000054C020910206309103064091040650918E
:100F10000506C701B6010E94A41025E0AE01612FAD
:100F200087FF3EC081EA90E00E94EA0FC090FE0574
:100F3000D090FF05E0900006F0900106A701960111
:100F40006091060670910706809108069091090647
:100F50000E9437104B015C01A701960160910206C7
:100F60007091030680910406909105060E94371047
:100F70009B01AC01C501B4010E94A9109B01AC0109
:100F800060E070E080E89FE30E94371020E030E0EE
:100F90004FE753E40E9408120E9422116CBF05C063
:100FA0008AEA90E00E94EA0F1CBE6AE580E00E9497
:100FB000EF0E23E0AE01612F81E890E00E94EA0F7E
:100FC0006CB770E080E090E00E94511123E333E3BE
:100FD00043E250E40E94A91020E030E040E251E4F6
:100FE0000E94A41087FF07C023E0AE01612F86E8AE
:100FF00090E00E94EA0F6CB770E080E090E00E9401
:10100000511123E333E343E250E40E94A91022E0AC
:1010100030E041E156E00E94E40523E0AE01612F9B
:101020000E94EA0F23E0AE01612F88E890E00E9461
:10103000EA0F80910D06882341F080917F0088237C
:1010400009F4B7C010927F00B4C080917F0088235C
:1010500009F4B3C010927F0060E08CE30E94EF0EB1
:1010600025E0AE01612F8CE890E00E94EA0F60E07D
:1010700086E90E94EF0E25E0AE01612F8CE890E03A
:101080000E94EA0F3FE6E32E30E0F32ED12C60E021
:101090008D2D0E94EF0EF70182917F018A3040F47E
:1010A00025E0402F572D662D86E890E00E94EA0F3C
:1010B000F70180814AE050E061E176E090E00E9433
:1010C000561425E0402F572D662D0E94EA0FFAE5B1
:1010D000DF0E2EE0D212DBCF28E8F22E6F2D84E255
:1010E0000E94EF0E23E0402F572D662D8CE890E0F4
:1010F0000E94EA0F8AE1F80E90EFF912EFCF84E632
:10110000A82E80E0B82E98E8392EE12CF12C65014C
:10111000212C632D822D0E94EF0E4601F601808165
:101120008A3040F423E0402F572D662D86E890E06A
:101130000E94EA0FFFEFCF1ADF0AF40180814AE034
:1011400050E061E176E090E00E94561423E0402FE9
:10115000572D662D0E94EA0FF6E32F0E2CE6221281
:10116000D8CF23E0402F572D662D82E0E816F104FA
:1011700071F093E0E916F10469F0E1E0EE16F10494
:1011800019F08EE890E008C087E990E005C080EA99
:1011900090E002C089EA90E00E94EA0FFFEFEF1AA8
:1011A000FF0A22E0A20EB11C8AE1380E90EF39123C
:1011B000AECF80910D06813029F180917D0088238A
:1011C00009F44AC010927D0060E084EB0E94EF0EAB
:1011D00080916C008A3038F425E0AE01612F86E8FA
:1011E00090E00E94EA0F80916C004AE050E061E1DB
:1011F00076E090E00E94561425E0AE01612F0E9437
:10120000EA0F2AC080917D00882351F110927D0061
:1012100060E084EB0E94EF0E80910A068A3040F471
:1012200025E04FE150E060E086E890E00E94EA0FA0
:1012300080910A064AE050E061E176E090E00E9489
:10124000561425E04FE150E060E00E94EA0F8091E3
:10125000100681111092100680910D068230C9F09F
:1012600080917C00882309F45DC010927C0060E0CE
:101270008AE50E94EF0E80916D008A3038F425E0F7
:10128000AE01612F86E890E00E94EA0F80916D0028
:101290003DC080917C00882309F448C010927C00F6
:1012A00060E08AE50E94EF0E80910B068A3040F4E0
:1012B00025E04FE150E060E086E890E00E94EA0F10
:1012C00080910B064AE050E061E176E090E00E94F8
:1012D000561425E04FE150E060E00E94EA0F809153
:1012E00010068823F9F01092100660E084EB0E944B
:1012F000EF0E80910A068A3038F425E0AE01612FA6
:1013000086E890E00E94EA0F80910A064AE050E0E9
:1013100061E176E090E00E94561425E0AE01612F75
:101320000E94EA0F80910D068330C9F080917B0006
:10133000882309F45DC010927B0060E080E00E9489
:10134000EF0E80916E008A3038F425E0AE01612FF7
:1013500086E890E00E94EA0F80916E003DC0809187
:101360007B00882309F448C010927B0060E080E095
:101370000E94EF0E80910C068A3040F425E04FE188
:1013800050E060E086E890E00E94EA0F80910C0651
:101390004AE050E061E176E090E00E94561425E0DA
:1013A0004FE150E060E00E94EA0F80911006882330
:1013B000F9F01092100660E08AE50E94EF0E80912D
:1013C0000B068A3038F425E0AE01612F86E890E004
:1013D0000E94EA0F80910B064AE050E061E176E05E
:1013E00090E00E94561425E0AE01612F0E94EA0FA2
:1013F00080910D06843019F180917A00882309F4D8
:1014000043C010927A0068E880E00E94EF0E80915D
:1014100064008A3038F423E0AE01612F86E890E062
:101420000E94EA0F809164004AE050E061E176E0BA
:1014300090E00E94561423E0AE01612F23C08091FA
:101440007A00882309F110927A0068E880E00E940F
:10145000EF0E809164008A3040F423E04FE150E0C9
:1014600060E086E890E00E94EA0F809164004AE024
:1014700050E061E176E090E00E94561423E04FE1F5
:1014800050E060E00E94EA0F90910D068091790093
:101490009530B9F0882309F45BC01092790068E8B0
:1014A00086E30E94EF0E809165008A3038F423E0D5
:1014B000AE01612F86E890E00E94EA0F80916500FE
:1014C0003BC0882309F448C01092790068E886E39D
:1014D0000E94EF0E809165008A3040F423E04FE1D6
:1014E00050E060E086E890E00E94EA0F809165009D
:1014F0004AE050E061E176E090E00E94561423E07B
:101500004FE150E060E00E94EA0F80910F068823CF
:10151000F9F010920F0668E880E00E94EF0E8091CB
:1015200064008A3038F423E0AE01612F86E890E051
:101530000E94EA0F809164004AE050E061E176E0A9
:1015400090E00E94561423E0AE01612F0E94EA0F42
:1015500080910D068630C9F080917800882309F4C7
:101560005DC01092780062EA80E00E94EF0E8091E8
:1015700066008A3038F423E0AE01612F86E890E0FF
:101580000E94EA0F809166003DC080917800882318
:1015900009F448C01092780062EA80E00E94EF0EE1
:1015A000809166008A3040F423E04FE150E060E033
:1015B00086E890E00E94EA0F809166004AE050E0E1
:1015C00061E176E090E00E94561423E04FE150E0A4
:1015D00060E00E94EA0F80910F068823F9F01092D4
:1015E0000F0668E886E30E94EF0E809165008A305E
:1015F00038F423E0AE01612F86E890E00E94EA0F04
:10160000809165004AE050E061E176E090E00E9460
:10161000561423E0AE01612F0E94EA0F80910D065F
:101620008730C9F080917700882309F45DC010925B
:10163000770062EA86E30E94EF0E809167008A30AD
:1016400038F423E0AE01612F86E890E00E94EA0FB3
:10165000809167003DC080917700882309F448C0DD
:101660001092770062EA86E30E94EF0E8091670095
:101670008A3040F423E04FE150E060E086E890E0FB
:101680000E94EA0F809167004AE050E061E176E055
:1016900090E00E94561423E04FE150E060E00E9489
:1016A000EA0F80910F068823F9F010920F0662EA84
:1016B00080E00E94EF0E809166008A3038F423E0CB
:1016C000AE01612F86E890E00E94EA0F80916600EB
:1016D0004AE050E061E176E090E00E94561423E099
:1016E000AE01612F0E94EA0F80910D068830C9F08B
:1016F00080917600882309F45DC0109276006CEB2F
:1017000080E00E94EF0E809168008A3038F423E078
:10171000AE01612F86E890E00E94EA0F8091680098
:101720003DC080917600882309F448C0109276006D
:101730006CEB80E00E94EF0E809168008A3040F4EC
:1017400023E04FE150E060E086E890E00E94EA0F7D
:10175000809168004AE050E061E176E090E00E940C
:10176000561423E04FE150E060E00E94EA0F8091C0
:101770000F068823F9F010920F0662EA86E30E94B2
:10178000EF0E809167008A3038F423E0AE01612FBC
:1017900086E890E00E94EA0F809167004AE050E0FE
:1017A00061E176E090E00E94561423E0AE01612FE3
:1017B0000E94EA0F80910D068930C9F08091750072
:1017C000882309F45DC0109275006CEB86E30E94DB
:1017D000EF0E809169008A3038F423E0AE01612F6A
:1017E00086E890E00E94EA0F809169003DC08091F8
:1017F0007500882309F448C0109275006CEB86E3ED
:101800000E94EF0E809169008A3040F423E04FE19E
:1018100050E060E086E890E00E94EA0F8091690065
:101820004AE050E061E176E090E00E94561423E047
:101830004FE150E060E00E94EA0F80910F0688239C
:10184000F9F010920F066CEB80E00E94EF0E809191
:1018500068008A3038F423E0AE01612F86E890E01A
:101860000E94EA0F809168004AE050E061E176E072
:1018700090E00E94561423E0AE01612F0E94EA0F0F
:1018800080910D068A30C9F080917400882309F494
:101890005DC01092740066ED80E00E94EF0E8091B2
:1018A0006A008A3038F423E0AE01612F86E890E0C8
:1018B0000E94EA0F80916A003DC0809174008823E5
:1018C00009F448C01092740066ED80E00E94EF0EAB
:1018D00080916A008A3040F423E04FE150E060E0FC
:1018E00086E890E00E94EA0F80916A004AE050E0AA
:1018F00061E176E090E00E94561423E04FE150E071
:1019000060E00E94EA0F80910F068823F9F01092A0
:101910000F066CEB86E30E94EF0E809169008A301F
:1019200038F423E0AE01612F86E890E00E94EA0FD0
:10193000809169004AE050E061E176E090E00E9429
:10194000561423E0AE01612F0E94EA0F80910D062C
:101950008B30C9F080917300882309F4C8C91092B4
:10196000730066ED86E30E94EF0E80916B008A3073
:1019700038F423E0AE01612F86E890E00E94EA0F80
:1019800080916B003EC080917300882309F4AFC939
:101990001092730066ED86E30E94EF0E80916B005B
:1019A0008A3040F423E04FE150E060E086E890E0C8
:1019B0000E94EA0F80916B004AE050E061E176E01E
:1019C00090E00E94561423E04FE150E060E00E9456
:1019D000EA0F80910F06882309F489C910920F0637
:1019E00066ED80E00E94EF0E80916A008A3038F444
:1019F00023E0AE01612F86E890E00E94EA0F80911B
:101A00006A004AE050E061E176E090E00E945614FE
:101A100023E0AE01612F0E94EA0F69C980917E0028
:101A2000882309F40ACB10927E0003CBCF92DF9279
:101A3000EF92FF920F931F93CF93DF93ACE6B0E04A
:101A4000DC91EAE0F6E0D08311966C911197618306
:101A50001296CC91C28370E080E090E00E94511118
:101A600020E030E040E752E40E94A9106B017C01C5
:101A70006D2F70E080E090E00E9451119B01AC015D
:101A8000C701B6010E9438106B017C016C2F70E019
:101A900080E090E00E94511120E030E041E655E402
:101AA0000E94A9109B01AC01C701B6010E94381029
:101AB00060930606709307068093080690930906C4
:101AC00006EF15E0C4E6D0E0698170E080E090E0C8
:101AD0000E94511120E030E040E752E40E94A9103A
:101AE0006B017C01688170E080E090E00E94511100
:101AF0009B01AC01C701B6010E943810F801608358
:101B00007183828393836B8170E080E090E00E9418
:101B1000511120E030E040E752E40E94A9106B012F
:101B20007C016A8170E080E090E00E9451119B018D
:101B3000AC01C701B6010E943810F80164837583B7
:101B4000868397836D8170E080E090E00E94511160
:101B500020E030E040E752E40E94A9106B017C01D4
:101B60006C8170E080E090E00E9451119B01AC011B
:101B7000C701B6010E943810F8016087718782871B
:101B800093876F8170E080E090E00E94511120E027
:101B900030E040E752E40E94A9106B017C016E81A5
:101BA00070E080E090E00E9451119B01AC01C70100
:101BB000B6010E943810F801648775878687978779
:101BC000DF91CF911F910F91FF90EF90DF90CF9019
:101BD00008958FB9779BFECF0895CF92DF92EF9251
:101BE000FF920F931F93CF93DF93182FD62FC42FFD
:101BF000F22EAA988AE20E94E90DAA9A80E00E9439
:101C0000E90D812F0E94E90D8C2F90E0810F911D2D
:101C10000197892F0E94E90D8FEF8C0F810F0E9491
:101C2000E90DAA988BE20E94E90DAA9A80E00E9431
:101C3000E90D8D2F0E94E90D8F2D90E08D0F911DE4
:101C40000197892F0E94E90D8FEF8F0D8D0F0E9454
:101C5000E90DAA988CE20E94E90DAA9ACF9DE001B5
:101C60001124F12C88E0089F80011124C70123E092
:101C7000959587952A95E1F7082B35E0EE0CFF1C2A
:101C80003A95E1F7EC28C12CD12CCC15DD0551F0AB
:101C9000802F0E94E90D8E2D0E94E90D8FEFC81A4A
:101CA000D80AF3CFDF91CF911F910F91FF90EF9062
:101CB000DF90CF900895AA9A8FB9779BFECF0895B1
:101CC000AA988FB9779BFECF089587B3806B87BBA7
:101CD00088B3806F88BB8CE58DB91EB8A39AAB9A88
:101CE000A29AAA9A0895AB9A81EE94E00197F1F72F
:101CF00000C00000AB9881EE94E00197F1F700C0BE
:101D00000000AB9A81EE94E00197F1F700C000006B
:101D100081E00E94600E83EC99E00197F1F700C02A
:101D2000000081E10E94600E83EC99E00197F1F7D9
:101D300000C000008AE30E94600E85E00E945B0EF6
:101D400083EC99E00197F1F700C0000086E30E9460
:101D5000600E80E00E945B0E83EC99E00197F1F742
:101D600000C000008AE20E94600E80E00E945B0ECC
:101D700080E00E945B0E80E00E945B0E80EF0E947C
:101D80005B0E83EC99E00197F1F700C000008BE255
:101D90000E94600E80E00E945B0E80E00E945B0E5D
:101DA00080E00E945B0E80EF0E945B0E83EC99E066
:101DB0000197F1F700C0000081E20E94600E83EC01
:101DC00099E00197F1F700C0000089E20E94600EDF
:101DD00083EC99E00197F1F700C00000089580932B
:101DE0001B0660931A060895CF92EF920F93813FDE
:101DF00020F4613F10F40E94ED0D0F91EF90CF9011
:101E00000895CF92EF920F93C82EE72E062F20EF62
:101E100040EF60E080E00E94ED0D0F91EF90CF90D9
:101E200008952F923F924F925F926F927F928F927E
:101E30009F92AF92BF92CF92DF92EF92FF920F9359
:101E40001F93CF93DF9300D000D000D0CDB7DEB783
:101E50006B834C83F22ED02EBE2C3C2C90911B0613
:101E600046E0A49E90011124290F311D1A2D110F57
:101E7000110F110F213F31053CF010921B0690917C
:101E80001A06910F90931A0696E0899F300111244B
:101E90001E821D8244244394512C8D819E81860D87
:101EA000971DFC01EB50F040FA83E983212C87E079
:101EB000882E912CE981FA818081282F30E0C2019F
:101EC000082C02C0880F991F0A94E2F782239323FB
:101ED00060911A06620D892B21F0CF2CEC800B81CA
:101EE00003C0C32CEB2C0D2D2A2D4A2D80911B06EF
:101EF0000E94F40EF1E08F1A91082A0C2FEF82163F
:101F00009206C1F680911B068A0D803F18F48093DB
:101F10001B0607C010921B0680911A06810F809342
:101F20001A0680911A06803F20F010921B0610922C
:101F30001A068D819E8101969E838D83069709F0F6
:101F4000ACCF26960FB6F894DEBF0FBECDBFDF91A3
:101F5000CF911F910F91FF90EF90DF90CF90BF90A6
:101F6000AF909F908F907F906F905F904F903F9039
:101F70002F9008957F928F929F92AF92BF92CF92AF
:101F8000DF92EF92FF920F931F93CF93DF93162F61
:101F9000F42ED22EB02E9E2C8C2C7A2CEC01899112
:101FA000882351F0A72CC82CE92C0B2D2D2D4F2D5B
:101FB000612F0E94110FF3CFDF91CF911F910F91ED
:101FC000FF90EF90DF90CF90BF90AF909F908F9059
:101FD0007F900895AF92CF92EF920F93342F452FB9
:101FE000A22EC12CE12C00E0262F632F0E94BA0FF5
:101FF0000F91EF90CF90AF900895991B79E004C0B6
:10200000991F961708F0961B881F7A95C9F7809537
:10201000089597FB072E16F4009407D077FD09D09A
:102020000E94231007FC05D03EF4909581959F4FA8
:102030000895709561957F4F0895EE0FFF1F0590ED
:10204000F491E02D0994AA1BBB1B51E107C0AA1F04
:10205000BB1FA617B70710F0A61BB70B881F991F49
:102060005A95A9F780959095BC01CD0108955058D7
:10207000BB27AA270E944F100C94C9110E94BB11C4
:1020800038F00E94C21120F039F49F3F19F426F471
:102090000C94B8110EF4E095E7FB0C94B211E92F03
:1020A0000E94DA1158F3BA1762077307840795077D
:1020B00020F079F4A6F50C94FC110EF4E0950B2EAB
:1020C000BA2FA02D0B01B90190010C01CA01A0018A
:1020D0001124FF27591B99F0593F50F4503E68F1E5
:1020E0001A16F040A22F232F342F4427585FF3CF26
:1020F000469537952795A795F0405395C9F77EF4F7
:102100001F16BA0B620B730B840BBAF09150A1F03F
:10211000FF0FBB1F661F771F881FC2F70EC0BA0FC5
:10212000621F731F841F48F4879577956795B7954D
:10213000F7959E3F08F0B0CF9395880F08F0992748
:10214000EE0F9795879508950E948E1108F481E00F
:1021500008950E94BD100C94C9110E94C21158F03C
:102160000E94BB1140F029F45F3F29F00C94B2119A
:1021700051110C94FD110C94B8110E94DA1168F3FE
:102180009923B1F3552391F3951B550BBB27AA2730
:1021900062177307840738F09F5F5F4F220F331F6A
:1021A000441FAA1FA9F335D00E2E3AF0E0E832D032
:1021B00091505040E695001CCAF72BD0FE2F29D035
:1021C000660F771F881FBB1F261737074807AB0707
:1021D000B0E809F0BB0B802DBF01FF2793585F4F7C
:1021E0003AF09E3F510578F00C94B2110C94FD1119
:1021F0005F3FE4F3983ED4F3869577956795B7955E
:10220000F7959F5FC9F7880F911D9695879597F968
:102210000895E1E0660F771F881FBB1F62177307E1
:102220008407BA0720F0621B730B840BBA0BEE1FF6
:1022300088F7E09508950E9422116894B1110C94DA
:10224000FD1108950E94E21188F09F5798F0B92F70
:102250009927B751B0F0E1F0660F771F881F991FDB
:102260001AF0BA95C9F714C0B13091F00E94FC1170
:10227000B1E008950C94FC11672F782F8827B85F80
:1022800039F0B93FCCF3869577956795B395D9F733
:102290003EF490958095709561957F4F8F4F9F4F3D
:1022A0000895E89409C097FB3EF490958095709549
:1022B00061957F4F8F4F9F4F9923A9F0F92F96E992
:1022C000BB279395F695879577956795B795F11107
:1022D000F8CFFAF4BB0F11F460FF1BC06F5F7F4FA4
:1022E0008F4F9F4F16C0882311F096E911C07723B6
:1022F00021F09EE8872F762F05C0662371F096E8BF
:10230000862F70E060E02AF09A95660F771F881F8D
:10231000DAF7880F9695879597F90895990F000831
:10232000550FAA0BE0E8FEEF16161706E807F907A7
:10233000C0F012161306E407F50798F0621B730B42
:10234000840B950B39F40A2661F0232B242B252BC3
:1023500021F408950A2609F4A140A6958FEF811D66
:10236000811D089597F99F6780E870E060E0089507
:102370009FEF80EC089500240A941616170618069D
:102380000906089500240A94121613061406050679
:102390000895092E0394000C11F4882352F0BB0F0A
:1023A00040F4BF2B11F460FF04C06F5F7F4F8F4F6D
:1023B0009F4F089557FD9058440F551F59F05F3FA8
:1023C00071F04795880F97FB991F61F09F3F79F057
:1023D00087950895121613061406551FF2CF4695D9
:1023E000F1DF08C0161617061806991FF1CF86955B
:1023F0007105610508940895E894BB27662777273F
:10240000CB0197F908950E948E1108F48FEF08957B
:102410000E941B120C94C9110E94BB1138F00E943B
:10242000C21120F0952311F00C94B2110C94B81144
:1024300011240C94FD110E94DA1170F3959FC1F3E1
:10244000950F50E0551F629FF001729FBB27F00D62
:10245000B11D639FAA27F00DB11DAA1F649F6627B7
:10246000B00DA11D661F829F2227B00DA11D621F06
:10247000739FB00DA11D621F839FA00D611D221FC0
:10248000749F3327A00D611D231F849F600D211DA4
:10249000822F762F6A2F11249F5750409AF0F1F027
:1024A00088234AF0EE0FFF1FBB1F661F771F881F90
:1024B00091505040A9F79E3F510580F00C94B21105
:1024C0000C94FD115F3FE4F3983ED4F38695779525
:1024D0006795B795F795E7959F5FC1F7FE2B880F36
:1024E000911D9695879597F90895FA01EE0FFF1FB4
:1024F000309621053105A1F16115710561F480382F
:10250000BFE39B0749F168949038810561F08038FA
:10251000BFEF9B0741F099234AF5FF3FE1053105E5
:10252000210519F1E8940894E795D901AA2329F423
:10253000AB2FBE2FF85FD0F310C0FF5F70F4A695ED
:10254000E0F7F73950F019F0FF3A38F49F779F938E
:102550000DD00F9007FC9058089546F00C94B811D8
:1025600060E070E080E89FE308954FE79F775F9316
:102570004F933F932F930E9470132F913F914F9150
:102580005F910E9408120C94CD1229F416F00C945D
:10259000B2110C94FC110C94B8110E94E211A8F332
:1025A0009638A0F707F80F92E8942BE33AEA48EB45
:1025B0005FE70E941E120F920F920F924DB75EB707
:1025C0000F920E94B813E8E9F0E00E94FF124F91C9
:1025D0005F91EF91FF91E595EE1FFF1F49F0FE57C8
:1025E000E0684427EE0F441FFA95E1F74195550B3B
:1025F0000E9432130F9007FE0C9426130895DF9368
:10260000CF931F930F93FF92EF92DF927B018C0188
:10261000689406C0DA2EEF010E941B12FE01E894B6
:10262000A5912591359145915591A6F3EF010E9411
:102630004F10FE019701A801DA9469F7DF90EF903F
:10264000FF900F911F91CF91DF9108959B01AC01F5
:1026500060E070E080E89FE30C94A9100C94B21144
:102660000C94EC130E94E211D8F39923C9F3940F50
:10267000511DA3F39150504094F059F0882332F04B
:10268000660F771F881F91505040C1F79E3F51053C
:102690002CF7880F911D9695879597F908955F3FC0
:1026A000ACF0983E9CF0BB27869577956795B795DB
:1026B00008F4B1609395C1F7BB0F58F711F460FFB0
:1026C000E8CF6F5F7F4F8F4F9F4FE3CF0C94FD118B
:1026D00016F00C94EC130C94B81168940C94B2118D
:1026E0000E94E211A8F39923C1F3AEF3DF93CF93D5
:1026F0001F930F93FF92C92FDD2788232AF021977C
:10270000660F771F881FDAF720E030E040E85FEBC4
:102710009FE3883920F0803E38F021968F770E9421
:102720003810E0ECF0E004C00E943810EDEEF0E06C
:102730000E94FF128B01BE01EC01FB2E6F57710945
:102740007595771F880B990B0E94531128E132E78A
:1027500041E35FE30E941B12AF2D9801AE01FF9091
:102760000F911F91CF91DF910E944F100C94C911CE
:10277000FA01DC01AA0FBB1F9B01AC01BF5728F473
:10278000222733274427507820C0B75190F4AB2F2D
:102790000024469537952795011CA395D2F3002078
:1027A00071F0220F331F441FB395DAF30ED00C944F
:1027B000371061307105A0E88A07B94630F49B01F3
:1027C000AC016627772788279078309621F0208300
:1027D00031834283538308959F3F31F0915020F419
:1027E000879577956795B795880F911D96958795ED
:1027F00097F908958F929F92AF92BF92CF92DF92F6
:10280000EF92FF92CF93DF93EC01688179818A8107
:102810009B81611571058105910521F464E279EDD3
:102820008BE597E02DE133EF41E050E00E949614F4
:1028300049015A019B01AC01A7EAB1E40E94B51419
:102840006B017C01ACEEB4EFA50194010E94C314AE
:10285000DC01CB018C0D9D1DAE1DBF1DB7FF03C05C
:102860000197A109B04888839983AA83BB839F7786
:10287000DF91CF91FF90EF90DF90CF90BF90AF901E
:102880009F908F9008950E94FA13089580E690E03B
:102890000E94FA130895A0E0B0E080936000909346
:1028A0006100A0936200B093630008954532510522
:1028B00020F4423010F00C946114FB011082CB0123
:1028C0000895BB274A3031F4992322F4BDE2909554
:1028D00081959F4F0C946D14BB27FB015527AA27A8
:1028E000880F991FAA1FA41710F0A41B839550519D
:1028F000B9F7A05DAA3308F0A95DA193009779F715
:10290000B111B1931192CB010C948614DC01FC013E
:10291000672F71917723E1F7329704C07C916D9313
:1029200070836291AE17BF07C8F30895052E97FB19
:102930001EF400940E94AD1457FD07D00E94C814E5
:1029400007FC03D04EF40C94AD145095409530958F
:1029500021953F4F4F4F5F4F08959095809570950B
:1029600061957F4F8F4F9F4F08950E94EA14A59F56
:10297000900DB49F900DA49F800D911D112408957A
:10298000B7FF0C94B5140E94B514821B930B0895E5
:10299000A1E21A2EAA1BBB1BFD010DC0AA1FBB1F63
:1029A000EE1FFF1FA217B307E407F50720F0A21BD5
:1029B000B30BE40BF50B661F771F881F991F1A9442
:1029C00069F760957095809590959B01AC01BD016C
:1029D000CF010895A29FB001B39FC001A39F700DC6
:1029E000811D1124911DB29F700D811D1124911D17
:0629F0000895F894FFCFEA
:1029F600010000000A000C00120014000000000193
:102A06000101180101010101010101010101010199
:102A160001EEF1E22E003000252020003A0020D001
:102A2600E0F1F1E2E5F20020C4E5EDFC2020200013
:102A360020C7E0EAE0F220200020CDEEF7FC2020BF
:102A4600200000000000000000000000FA00000066
:102A56000000600060000028FE28FE28002454D6EE
:102A6600544800C20C106086000C52BA4C1200008A
:102A760000600000000038448200000082443800F4
:102A86000000502050000010107C101000000102C1
:102A960000000000101010000000000200000002FC
:102AA6000C106080007C8A92A27C000242FE020228
:102AB60000468A92926600448292926C00182848D8
:102AC60088FE00E4A2A2A29C003C5292920C00C096
:102AD600808E90E0006C9292926C00609292947854
:102AE600000000240000000002240000001028441A
:102AF6008200002424242400008244281000004080
:102B0600808A9060003C425A4A3A007E9090907EBD
:102B160000FE9292926C007C8282824400FE828247
:102B2600827C00FE9292928200FE90909080007CC1
:102B36008282A2BC00FE101010FE000082FE8200FF
:102B46000004020202FC00FE2020508E00FE02025B
:102B5600020000FE402040FE00FE402010FE007CE9
:102B66008282827C00FE90909060007C8282847AD1
:102B760000FE9090906E00649292924C008080FECF
:102B8600808000FC020202FC00F00C020CF000FE49
:102B9600040804FE00C6281028C60080403E408077
:102BA60000868A92A2C20000FE8282000080601027
:102BB6000C0200008282FE000020408040200001BE
:102BC6000101010100402000000000042A2A2A1EFB
:102BD600007E1222221C001C22222214001C222209
:102BE600127E001C2A2A2A1A00207EA0A0000019A4
:102BF6002525253E00FE1020201E000020BC0200D8
:102C06000004020202BC0000FE081422000080FC40
:102C16000202003E2018201E003E2020201E001C1E
:102C26002222221C003F1424241800182424143FB6
:102C3600003E1020201000122A2A2A24000020FC20
:102C46002200003C0202023E003804020438003C26
:102C5600020E023E00221408142200390505053E24
:102C66000022262A32220000106C8200000000FE9C
:102C760000000000826C10000018201008300000D0
:102C8600000000000000000000000000000000003E
:102C9600000000000000000000000000000000002E
:102CA600000000000000000000000000000000001E
:102CB600000000000000000000000000000000000E
:102CC60000000000000000000000000000000000FE
:102CD60000000000000000000000000000000000EE
:102CE60000000000000000000000000000000000DE
:102CF60000000000000000000000000000000000CE
:102D060000000000000000000000000000000000BD
:102D160000000000000000000000000000000000AD
:102D2600000000000000000000000000000000009D
:102D3600000000000000000000000000000000008D
:102D4600000000000000000000000000000000007D
:102D5600000000000000000000000000000000006D
:102D6600000000000000000000000000000000005D
:102D760000000000003EAA2AAA220000000000006F
:102D8600000000000000000000000000000000003D
:102D9600000000000000000000000000000000002D
:102DA600000000000000000000000000000000001D
:102DB600000000000000000000000000000000000D
:102DC60000000000000000000000000000000000FD
:102DD60000000000000000000000000000000000ED
:102DE60000000000000000000000000000000000DD
:102DF60000000000000000000000000000000000CD
:102E060000000000007E9090907E00FEA2A2A29C90
:102E160000FE9292926C00FE8080808000031EE28B
:102E260082FF00FE9292928200DE20FE20DE0044A7
:102E360082A2A25C00FE040830FE00000000000032
:102E4600000000000000000000000000000000007C
:102E5600000000FE101010FE000000000000000040
:102E66000000000000FE909090600000000000004E
:102E7600000000000000000000000000000000004C
:102E8600000000000000000000000000000000003C
:102E9600000000000000000000000000000000002C
:102EA600000000000000000000000000000000001C
:102EB600000000000000000000000000000000000C
:102EC6000000000000042A2A2A1E0000000000005C
:102ED600003E2A2A2A14000000000000000000001C
:102EE6000000001C2A2A2A1A000000000000000028
:102EF60000000000003E0408103E003E8448903E5C
:102F0600003E080814220000000000000000000037
:102F16000000003E0808083E001C2222221C000079
:102F260000000000003F14242418001C2222221452
:102F36000020203E202000000000000000000000CD
:102F4600000000000000000000000000000000304B
:102F56000808083E00000000000000000000000015
:102F6600000000000000000000000000003E0A0A09
:102F76000A0400000000000000000000000000003D
:062F860000000000000045
:00000001FF
