S01600004C45445F636F6E74726F6C6C65722E7372656396
S11300000C942A000C9447000C9447000C9447006D
S11300100C9447000C9447000C9447000C94470040
S11300200C9447000C9447000C9447000C94470030
S11300300C9447000C9447000C9447000C94470020
S11300400C9447000C9447000C9447000C94470010
S11300500C94470011241FBECFE5D8E0DEBFCDBF0E
S113006015E0A0E6B0E0E2E5F5E002C005900D92EF
S1130070AE3BB107D9F725E0AEEBB5E001C01D9268
S1130080A03CB207E1F70E9449000C94A7020C942B
S113009000002FEF8FEF98E0215080409040E1F76F
S11300A000C000000E940B010E94190160916E00C3
S11300B070916F00809170000E94A001C090710047
S11300C0D0907200E090730080917400909175005C
S11300D0A091760023E0A22E8C012A2F4EEB55E04E
S11300E06FEB75E080E690E00E948E02C0907A008B
S11300F0D0907B00E0907C00809177009091780014
S1130100A09179008C012A2F4EEB55E06FEB75E03E
S113011087E690E00E948E02FFCF8FB9779BFECFD7
S11301200895CF92DF92EF92FF920F931F93CF9394
S1130130DF93182FF62ED42FC22FAA988AE20E949A
S11301408D00AA9A80E00E948D00812F0E948D006C
S1130150CE2CD12CC601810F911D0197892F0E94AD
S11301608D008FEF8E0D810F0E948D00AA988BE277
S11301700E948D00AA9A80E00E948D008F2D0E941B
S11301808D00CF0CD11C81E0C81AD1088D2D0E949E
S11301908D008FEF8F0D8E0D0E948D00AA988CE23A
S11301A00E948D00AA9AEE9C700111242C2F30E03D
S11301B088E0D89FE0011124C90143E09595879513
S11301C04A95E1F7C82B55E0220F331F5A95E1F702
S11301D0022BC12CD12CEC14FD0451F08C2F0E9465
S11301E08D00802F0E948D008FEFC81AD80AF3CF9C
S11301F0DF91CF911F910F91FF90EF90DF90CF90FF
S11302000895AA9A8FB9779BFECF0895AA988FB9BB
S1130210779BFECF089587B3806B87BB88B3806FCD
S113022088BB8CE58DB91EB8A39AAB9AA29AAA9AF8
S11302300895AB9A81EE94E00197F1F700C00000B5
S1130240AB9881EE94E00197F1F700C00000AB9AFF
S113025081EE94E00197F1F700C0000081E00E9474
S1130260060183EC99E00197F1F700C0000081E1F9
S11302700E94060183EC99E00197F1F700C00000A9
S11302808AE30E94060185E00E94010183EC99E063
S11302900197F1F700C0000086E30E94060180E0A8
S11302A00E94010183EC99E00197F1F700C000007E
S11302B08AE20E94060180E00E94010180E00E941F
S11302C0010180E00E94010180EF0E94010183ECA2
S11302D099E00197F1F700C000008BE20E9406014B
S11302E080E00E94010180E00E94010180E00E9400
S11302F0010180EF0E94010183EC99E00197F1F77D
S113030000C0000081E20E94060183EC99E001979D
S1130310F1F700C0000089E20E94060183EC99E035
S11303200197F1F700C000000895EF920F93813F09
S113033020F4613F10F40E9491000F91EF90089512
S1130340EF920F93462F272F90EFE92E082F60E0AE
S113035080E00E9491000F91EF9008952F923F92B8
S11303604F925F926F927F928F929F92AF92BF92C1
S1130370CF92DF92EF92FF920F931F93CF93DF936D
S1130380CDB7DEB727970FB6F894DEBF0FBECDBF4B
S11303903B012A012C830D83EE82CF829A2C1C8D83
S11303A0212F220F220F220F298336E0839F500131
S11303B01124C12CD12CC5018C0D9D1DFC01E354CD
S11303C0F040FB83EA83F12C87E0282E312CEA816C
S11303D0FB818081282F30E081E090E0022C02C074
S11303E0880F991F0A94E2F782239323F201608114
S11303F06F0DE12E892B21F00E812D814C8103C0DC
S1130400082D292D4F81F30180810E949501F1E08F
S11304102F1A3108F10E2FEF22163206C1F6F3011E
S11304208081810F803F38F0F3011082F2018081D6
S1130430F9818F0FF2018083F2018081803F20F0E7
S1130440F3011082F2011082FFEFCF1ADF0A26E0D7
S1130450C216D10409F0AFCF27960FB6F894DEBFC9
S11304600FBECDBFDF91CF911F910F91FF90EF9001
S1130470DF90CF90BF90AF909F908F907F906F90C0
S11304805F904F903F902F9008952F923F924F92FC
S11304905F926F927F928F929F92AF92BF92CF9210
S11304A0DF92EF92FF920F931F93CF93DF9300D0CD
S11304B0CDB7DEB71C013B012A0129830A83FE2C38
S11304C0DC2CBA2C982C10E0F101E10FF11D808195
S11304D0882379F09F899F93892CAB2CCD2CEF2C0A
S11304E00A812981A201B3010E94AE011F5F0F900E
S11304F0EBCF0F900F90DF91CF911F910F91FF9051
S1130500EF90DF90CF90BF90AF909F908F907F90AF
S11305106F905F904F903F902F9008958F92AF927D
S1130520CF92DF92EF920F931F93302FAF928E2CC6
S1130530AD2CE22E012F232F0E9445020F901F9114
S11305400F91EF90DF90CF90AF908F900895F89433
S1050550FFCFD7
S113055242454252412100416D6F477573000000CC
S1130562001F3D1F1F3D00003D001F000000000052
S113057200000000FA000000000060006000002893
S1130582FE28FE28002454D6544800C20C1060866B
S1130592000C52BA4C120000006000000000384403
S11305A282000000824438000000502050000010F5
S11305B2107C101000000102000000001010100056
S11305C200000002000000020C106080007C8A928D
S11305D2A27C000242FE020200468A929266004413
S11305E28292926C0018284888FE00E4A2A2A29C7F
S11305F2003C5292920C00C0808E90E0006C929269
S1130602926C006092929478000000240000000032
S11306120224000000102844820000242424240020
S11306220082442810000040808A9060003C425AB4
S11306324A3A007E9090907E00FE9292926C007CE8
S11306428282824400FE8282827C00FE92929282A4
S113065200FE90909080007C8282A2BC00FE10106A
S113066210FE000082FE82000004020202FC00FE70
S11306722020508E00FE0202020000FE402040FEB6
S113068200FE402010FE007C8282827C00FE90905C
S11306929060007C8282847A00FE9090906E006466
S11306A29292924C008080FE808000FC020202FC46
S11306B200F00C020CF000FE040804FE00C6281030
S11306C228C60080403E408000868A92A2C2000072
S11306D2FE828200008060100C0200008282FE0012
S11306E2002040804020000101010101004020005F
S11306F2000000042A2A2A1E007E1222221C001C48
S113070222222214001C2222127E001C2A2A2A1AC5
S113071200207EA0A00000192525253E00FE102001
S1130722201E000020BC02000004020202BC0000E1
S1130732FE081422000080FC0202003E2018201E43
S1130742003E2020201E001C2222221C003F1424D2
S1130752241800182424143F003E102020100012F4
S11307622A2A2A24000020FC2200003C0202023E23
S1130772003804020438003C020E023E002214082F
S1130782142200390505053E0022262A32220000E1
S1130792106C8200000000FE00000000826C100059
S11307A200182010083000000000000000000000C3
S11307B20000000000000000000000000000000033
S11307C20000000000000000000000000000000023
S11307D20000000000000000000000000000000013
S11307E20000000000000000000000000000000003
S11307F200000000000000000000000000000000F3
S113080200000000000000000000000000000000E2
S113081200000000000000000000000000000000D2
S113082200000000000000000000000000000000C2
S113083200000000000000000000000000000000B2
S113084200000000000000000000000000000000A2
S11308520000000000000000000000000000000092
S11308620000000000000000000000000000000082
S11308720000000000000000000000000000000072
S11308820000000000000000000000000000000062
S1130892000000000000000000000000003EAA2A40
S11308A2AA22000000000000000000000000000076
S11308B20000000000000000000000000000000032
S11308C20000000000000000000000000000000022
S11308D20000000000000000000000000000000012
S11308E20000000000000000000000000000000002
S11308F200000000000000000000000000000000F2
S113090200000000000000000000000000000000E1
S113091200000000000000000000000000000000D1
S1130922000000000000000000000000007E909023
S1130932907E00FEA2A2A29C00FE9292926C00FE05
S11309428080808000031EE282FF00FE92929282E7
S113095200DE20FE20DE004482A2A25C00FE040827
S113096230FE000000000000000000000000000053
S11309720000000000000000000000FE101010FE45
S113098200000000000000000000000000FE909043
S11309929060000000000000000000000000000061
S11309A20000000000000000000000000000000041
S11309B20000000000000000000000000000000031
S11309C20000000000000000000000000000000021
S11309D20000000000000000000000000000000011
S11309E200000000000000000000000000042A2AA9
S11309F22A1E000000000000003E2A2A2A140000D9
S1130A0200000000000000000000001C2A2A2A1A2C
S1130A12000000000000000000000000003E040886
S1130A22103E003E8448903E003E08081422000016
S1130A3200000000000000000000003E0808083E1C
S1130A42001C2222221C000000000000003F14248B
S1130A522418001C222222140020203E2020000000
S1130A620000000000000000000000000000000080
S1130A7200000000000000300808083E00000000EA
S1130A820000000000000000000000000000000060
S1130A9200000000003E0A0A0A04000000000000F0
S1110AA2000000000000000000000000000042
S9030000FC
